:020000020000FC
:100000000C948009189518951895189518951895B9
:100010001895189518951895189518951895189578
:100020001895189518951895189518951895189568
:100030001895189518951895189518951895189558
:10004000189518950C94C4851895189518951895B9
:100050001895189518951895189518951895189538
:10006000189518950C949186189518950C94F88904
:100070001895189518951895189518951895189518
:100080001895189518951895189518951895189508
:1000900018951895189518951895189518951895F8
:1000A00018951895189518951895189518951895E8
:1000B00018951895189518951895189518951895D8
:1000C00018951895189518951895189518951895C8
:1000D00018951895189518951895189518951895B8
:1000E000189518952020204D61696E20204D656E71
:1000F00075202020004D30204F7065726174696F4B
:100100006E20202020004D31204472697665204DFC
:100110006F6E69746F72004D3220506172616D654F
:1001200074657245646974004D33204175746F20A5
:1001300054756E696E672020004D34204661756CE1
:1001400074205265636F726420004D3520496E69DA
:100150007469616C697A65202020004D36205061F9
:100160007373776F72642020202020005B305D2045
:100170004C6F63616C2F52656D6F7465005B315D10
:10018000204469725F4368616E67652020005B32BE
:100190005D205370656564205365745F5074005B27
:1001A000335D2046726571205365745F5074200082
:1001B0005B345D20546F727175655F5365742020E8
:1001C000005B355D20504944205365745F507420B6
:1001D00020202030204F7065726174696F6E20207E
:1001E0002020002031205465726D696E616C2049B9
:1001F0004F202000203220447269766520496E66C7
:100200006F726D200030205664635F496E707574A4
:1002100020566F6C74003120496E7075745F4443D2
:100220002043757272200032204F757470757420EF
:1002300020566F6C74202000332041205068617379
:10024000652043757272202000342042205068617E
:10025000736520437572722020003520432050685A
:1002600061736520437572722020003620437572D9
:1002700072205265666572656E636500372056644C
:1002800063204572726F72202020202000382049A0
:100290006E70757420506F776572202020003920B1
:1002A0004F757470757420506F776572202000311F
:1002B00030204964635F4572726F725F4120200095
:1002C0003131204964635F4572726F725F42202052
:1002D000003132204964635F4572726F725F432060
:1002E000200031332054656D7065726174757265DC
:1002F00020200020302044495B382E2E2E2E2E2E1A
:10030000315D2000203120444F5B332E315D2020B1
:1003100020202020003220416E616C6F6720496EE2
:100320007075743120003320416E616C6F67204915
:100330006E7075743220003420416E616C6F6720DE
:100340004F757470757420003020444320746F2002
:100350004443202020202020003120436F6E7472FF
:100360006F6C204D6574686F6400322052554E2FBB
:1003700053544F502053726320200033205265663F
:10038000204D6574686F6420202020003420447262
:1003900069766520506F77657220202000352044F3
:1003A0007269766520566F6C74616765200036202F
:1003B00044657669636520496E666F2020200037AA
:1003C00020536F6674776172652056657220200035
:1003D00020302050726F6772616D204374726C2000
:1003E0000031204374726C2053657475705B4D311D
:1003F0005D0032204374726C2053657475705B4DE0
:10040000325D0033205265662053657475705B4D14
:10041000315D200034205265662053657475705B31
:100420004D325D200020352050726F746563746911
:100430006F6E20202000203620416E616C6F672097
:10044000496E707574200020372050494420436F56
:100450006E74726F6C202000382044696769746183
:100460006C20496E70757420003920204D756C74B5
:1004700069537465705B4D315D003130204D756C92
:100480007469537465705B4D325D00313120416E8B
:10049000616C6F67204F7574707574003132204441
:1004A00069676974616C4F757470757400313320BD
:1004B0004D6F746F72204272616B65202000313481
:1004C000204175746F2054756E696E67202000316D
:1004D0003520562F46204374726C5B4D315D2000F1
:1004E000313620562F46204374726C5B4D325D20AE
:1004F00000313720534C20566563746F725B4D3169
:100500005D00313820534C20566563746F725B4D2B
:10051000325D0020313920566563746F725B4D3156
:100520005D20200020323020566563746F725B4D71
:10053000325D202000203231204D3120436F6E7318
:1005400074616E742000203232204D3220436F6E71
:100550007374616E742000323320436F6D6D2043DD
:100560006F6E74726F6C20003234204D6F6E697440
:100570006F722053657475700032392044432F44E4
:100580004320504152414D20200050332E30205204
:10059000554E2F53544F502020200050332E3120E1
:1005A00052616D705F496E707574200050332E3249
:1005B0002053544F50204465746563740050332EAB
:1005C000332053544F50204D6F646520200050332A
:1005D0002E342053746F70486F6C645F546D0050FC
:1005E000332E35204F75745F4F66665F546D200063
:1005F00050332E36204F75745F4F66665F526566C6
:100600000050332E37204163632F4465635F456E8E
:10061000200050332E3820416363546D5F52616E69
:1006200067650050332E3920416363537720312DA5
:100630003220200050332E31302041636353772025
:10064000322D33200050332E3131204163635377F4
:1006500020332D34200050332E3132204163635338
:100660007720342D35200050332E31332041636301
:10067000537720352D36200050332E3134204163FE
:1006800063537720362D37200050332E31352041EB
:100690006363537720372D38200050332E313620B6
:1006A0004163635F546D20492E310050332E313742
:1006B000204163635F546D20492E320050332E3148
:1006C00038204163635F546D20492E330050332E30
:1006D0003139204163635F546D20492E340050331B
:1006E0002E3230204163635F546D20492E35005017
:1006F000332E3231204163635F546D20492E360022
:1007000050332E3232204163635F546D20492E37BF
:100710000050332E3233204163635F546D20492EE5
:10072000380050332E3234204163635F546D2049CA
:1007300049200050332E323520446563546D5F529A
:100740006E67200050332E32362044656353772085
:10075000312D32200050332E3237204465635377D9
:1007600020322D33200050332E323820446563531D
:100770007720332D34200050332E323920446563E6
:10078000537720342D35200050332E3330204465EC
:1007900063537720352D36200050332E33312044DB
:1007A0006563537720362D37200050332E333220A7
:1007B000446563537720372D38200050332E333370
:1007C000204465635F546D20492E310050332E3331
:1007D00034204465635F546D20492E320050332E1F
:1007E0003335204465635F546D20492E3300503308
:1007F0002E3336204465635F546D20492E340050FB
:10080000332E3337204465635F546D20492E350005
:1008100050332E3338204465635F546D20492E36A3
:100820000050332E3339204465635F546D20492EC8
:10083000370050332E3430204465635F546D2049B7
:100840002E380050332E3431204465635F546D20C0
:100850004949200050332E343220435F446563659C
:100860006C5F456E0050332E343320435F44656324
:10087000656C5F546D0050332E343420532D437516
:100880007276655F456E0050332E343520532D430C
:1008900072764163635F530050332E343620532DFC
:1008A0004372764163635F450050332E34372053E3
:1008B0002D4372764465635F530050332E343820E5
:1008C000532D4372764465635F450050332E3439AF
:1008D0002045535F4D6F64652020200050332E3536
:1008E000302045535F44656354696D650050332E75
:1008F000353120434F4E54494E555F4F50005033D1
:100900002E3532205265765F4449525F456E005065
:10091000382E302052554E2F53544F502020200057
:1009200050382E312044492E332046756E632E20D8
:100930000050382E322044492E342046756E632EE6
:10094000200050382E332044492E352046756E63E2
:100950002E200050382E342044492E362046756E05
:10096000632E200050382E352044492E37204675FE
:100970006E632E200050382E362044492E382046F3
:10098000756E632E200050382E372044492E3920B2
:1009900046756E632E200050382E382044492E3183
:1009A000302046756E632E0050382E392044492E73
:1009B00031312046756E632E0050382E3130204480
:1009C000492E31322046756E630050382E31312069
:1009D00044492E31332046756E630050382E313233
:1009E0002044492E31342046756E630050382E3134
:1009F000332044492E31352046756E630050382E21
:100A000031342044492E31362046756E630050380B
:100A10002E3135204D2E432E20426C616E6B0050DE
:100A2000382E3136205265665F55502F444E2000D7
:100A300050382E313720466C795F53544152542040
:100A40000050382E31382052554E5F44656C617924
:100A5000200050382E313920496E6368696E675F17
:100A6000546D005031312E3020414F31204F75747C
:100A7000707574005031312E3120414F312054793E
:100A800070652020005031312E3220414F3120300E
:100A90005F41646A20005031312E3320414F3120B4
:100AA000345F41646A20005031312E3420414F318F
:100AB0002032305F41646A005031312E3520414F81
:100AC00031205363616C6520005031312E36204156
:100AD0004F3120496E762E2020005031322E3020AA
:100AE000444F2E312046756E6320005031322E3136
:100AF00020444F2E322046756E6320005031322E36
:100B00003220444F2E332046756E63200050313220
:100B10002E3320444F2E342046756E632000503112
:100B2000322E3420444F2E352046756E63200050FF
:100B300031322E3520444F2E362046756E6320000C
:100B40005031322E3620444F2E372046756E6320AA
:100B5000005031322E3720444F2E382046756E63B8
:100B600020005032332E3020446561645F54696D3B
:100B70006520005032332E31204C696E5F52617413
:100B8000696F20005032332E3220565F53656E73EA
:100B90005F53636C005032332E3320495F536361DF
:100BA0006C655F4120005032332E3420495F53631F
:100BB000616C655F4220005032332E3520495F530F
:100BC00063616C655F4320005032332E3620495FED
:100BD0004F6666735F413120005032332E37204913
:100BE0005F4F6666735F423120005032332E3820EB
:100BF000495F4F6666735F433120005032332E39B0
:100C000020495F4F6666735F413220005032332EB9
:100C1000313020495F4F6666735F42320050323395
:100C20002E313120495F4F6666735F433200503288
:100C3000392E302050574D5F46726571202000508C
:100C400032392E31205664635F4F757453657400DA
:100C50005032392E32205274645F496E566F6C7474
:100C6000005032392E33205274645F4F75745077C0
:100C700072005032392E342052656163746F7252A3
:100C80006573005032392E352052656163746F727E
:100C9000496E64005032392E3620562053656E73EB
:100CA00054696D65005032392E3720564320502D3F
:100CB0004761696E20005032392E38205643204952
:100CC0002D4761696E20005032392E392043432070
:100CD000502D4761696E20005032392E313020434B
:100CE0004320492D4761696E005032392E31312041
:100CF000564379636C65436E74005032392E31323D
:100D000020496E70757420436170005032392E3165
:100D100033204F7574707574436170005032392EF2
:100D200031342056432046726571202000503239FC
:100D30002E31352043432046726571202000503209
:100D4000392E3136204F7574204F5653657400503C
:100D500032392E3137204F75742055565365740043
:100D60005032392E313820496E204F562D5365743C
:100D7000005032392E313920496E2055562D536599
:100D800074005032392E323020496E5274644375EB
:100D90007272005032392E3231204F432053657425
:100DA00056616C005032392E3232204D78436F6ECE
:100DB00074437572005032392E3233204F4C2D431C
:100DC000757256616C005032392E3234204F4C20EF
:100DD00054696D652020005032392E3235204F562F
:100DE0002054696D652020005032392E3236204F54
:100DF000542D53657456616C0020202030205265BC
:100E0000636F726428302920200020202031205276
:100E100065636F7264283129202000202020322051
:100E20005265636F7264283229202000202020330D
:100E3000205265636F72642833292020002020200F
:100E400034205265636F72642834292020002020EA
:100E50002035205265636F726428352920200020D8
:100E6000202036205265636F7264283629202000C6
:100E700020202037205265636F7264283729202094
:100E80000020202038205265636F726428382920A2
:100E90002000000000000000000000000000000032
:100EA0000000005B25642E315D4661756C74204343
:100EB0006F646520005B25642E325D4D6F746F7228
:100EC0002053656C2020005B25642E335D437472D3
:100ED0006C204D7468642020005B25642E345D53C3
:100EE0007065656420434D442020005B25642E35E9
:100EF0005D4D6F746F72205370642020005B256419
:100F00002E365D4672657175656E63792020005BD3
:100F100025642E375D54656D702020202020202010
:100F2000005B25642E385D4163746C20546F7271D0
:100F30007565005B25642E395D4443204C696E6BFA
:100F400020562020005B25642E31305D4D6F746F7C
:100F5000722043757272005B25642E31315D4D6FD6
:100F6000746F7220566F6C74005B305D436C72203E
:100F70004661756C744C697374202020205B315D70
:100F800053797374656D2052657365742000000099
:100F9000005B325D506172616D6574657220202066
:100FA000200000000052657365742D3E5B456E7431
:100FB00065725D2000000000002020436F6D706CA2
:100FC0006574652E2E2E20202000000000496E69D9
:100FD0007469616C697A696E672E2E2E00000000BC
:100FE00000455252205B5761726E696E675D00006A
:100FF00000000000005731332044726976652043B9
:10100000616C2E0000000000005B305D4163636591
:1010100073733D4C2564202020200000005B315D6F
:1010200041646D697373696F6E2020202000000099
:10103000005B325D507764204368616E67652020F5
:1010400020000000002020456E7465723A2025645F
:101050002564256425642020202020436F6D706C5A
:101060006574652E2E2E20202000000000202050C8
:10107000617373776F72645B4C25645D20200000A0
:10108000002041646D69747465642E5B4C25645D59
:1010900020000000004E65772050617373776F72F7
:0910A000645B4C25645D00000056
:1010AA00000100AD5B0010005D5B00625B00675BE6
:1010BA00006C5B00715B00765B007B5B00805B0011
:1010CA00855B008A5B008F5B00945B00995B009EE6
:1010DA005B00A35B00A85B00000100755F001000C5
:1010EA00255F002A5F002F5F00345F00395F003EF2
:1010FA005F00435F00485F004D5F00525F00575F2B
:10110A00005C5F00615F00665F006B5F00705F00FC
:10111A000001004C63001000FC62000163000663DA
:10112A00000B63001063001563001A63001F63005D
:10113A002463002963002E63003363003863003D93
:10114A006300426300476300000100236700100048
:10115A00D36600D86600DD6600E26600E76600EC4A
:10116A006600F16600F66600FB6600006700056728
:10117A00000A67000F67001467001967001E6700FE
:10118A00000100EB6A0010009B6A00A06A00A56AD1
:10119A0000AA6A00AF6A00B46A00B96A00BE6A00AF
:1011AA00C36A00C86A00CD6A00D26A00D76A00DC46
:1011BA006A00E16A00E66A00000100B36E001000EE
:1011CA00636E00686E006D6E00726E00776E007C52
:1011DA006E00816E00866E008B6E00906E00956EBA
:1011EA00009A6E009F6E00A46E00A96E00AE6E009B
:1011FA000001007B720010002B7200307200357201
:10120A00003A72003F72004472004972004E720046
:10121A005372005872005D72006272006772006C4D
:10122A0072007172007672000001004376001000AD
:10123A00F37500F87500FD75000276000776000C5C
:10124A0076001176001676001B7600207600257649
:10125A00002A76002F76003476003976003E760032
:10126A000001000B7A001000BB7900C07900C57933
:10127A0000CA7900CF7900D47900D97900DE7900E3
:10128A00E37900E87900ED7900F27900F77900FC5A
:10129A007900017A00067A00FEBA012284002084CD
:1012AA0000451E840080108400401C8400201284A3
:1012BA0000101A84000814840004188400020E84A2
:1012CA000001168400FBFEFF016284006084008036
:1012DA00528400405E840020548400105C8400081C
:1012EA00568400045A84000250840001588400FB8A
:1012FA0000008895FECF0CE8009374000BE20DBF46
:10130A0008E00EBFC0E0D7E00E942D8A002311F04A
:10131A000E943F8A0E94D6850E947D090C947D090D
:10132A00149F102D059F100D049F002D110D089577
:10133A0000241124EFE0001F111F001C111C0416C9
:10134A00150610F0041A150AEA95AAF7001F111FCC
:10135A00A001009510950895519541955040089522
:10136A00FF27552312F4F160F7DF112312F4F095E9
:10137A0007D00E949D09F0FD03D0F1FDEDCF08953D
:10138A0011950195104008954A952AF036952795AA
:10139A0017950795F9CF0895002411241001E0E26A
:1013AA00EA9592F0001F111F221F331F001C111C07
:1013BA00221C331C041615062606370688F3041A5F
:1013CA00150A260A370AECCF001F111F221F331FE6
:1013DA00A001B10100951095209530950895779157
:1013EA00679157914791179011FA27903790079074
:1013FA000CBE0895F7DF041B10E003C0F2DF041BE4
:10140A00150B20E030E005C0EADF041B150B260BA4
:10141A00370B28F110FC25C047910790E00FF11F08
:10142A000417100540E024073407C8F486F412FEB6
:10143A0005C0E00FF11F0791069002C00691002433
:10144A00F101E01BF0090CB700400CBF1994E00F42
:10145A00F11FE00FF11F2790379007900CBEF101A2
:10146A00199411F4C6F7E3CF319612FC31960EF0B7
:10147A00329650E060E070E047914B3F48F079F3D4
:10148A004F3F29F04E3F11F077916791579147915D
:10149A00041B150B260B370B29F308F3E5CFFA9239
:1014AA00EA92DA92CA92BA92AA929A928A927A9212
:1014BA006A925A924A92BA93AA939A938A930895ED
:1014CA00FF84EE84DD84CC84BB84AA8499848884D6
:1014DA007F806E805D804C80BB81AA8199818881E2
:1014EA00F0E0EC0FFD1FEF0108951BB110741BB95A
:1014FA00009302010BB1007400620BB90F920F90B6
:10150A000BB100740BB902E30E940C8A08951BB157
:10151A00107410611BB9009302010BB100740063CF
:10152A000BB90F920F900BB1007400610BB902E373
:10153A000E940C8A0895012BD8DF0FE0D6DF0895A8
:10154A000CE0D3DF0FEF009300800895BA93AA93BB
:10155A00D901CBDF03C00C91DADF11960C9100237D
:10156A00D1F7A991B991089508E3BFDF0CE0BDDF77
:10157A0006E0BBDF01E0B9DF02E010E00E94188A52
:10158A000895002311F05E9A08955E98089506E37F
:10159A0015E220E0EAE9FBE900831183228300E0F7
:1015AA000093989A00E00093008000E010E0009316
:1015BA00949A1093959A00E010E00093929A1093EF
:1015CA00939A0895002349F50091989A002391F47B
:1015DA000091929A1091939A1A930A930CE218E046
:1015EA000E94A37F2296980100EC0E94AB0A0E94F7
:1015FA00A50A08950091949A1091959A1A930A93BC
:10160A000CE218E00E94A37F2296980100EC0E9447
:10161A00AB0A01E00E940B240895013009F059C079
:10162A000091989A002351F50091929A1091939AF9
:10163A00012B31F42DE338E000EC0E94AB0A1BC009
:10164A000091929A1091939A013020E0120731F496
:10165A002EE438E000EC0E94AB0A0DC00091929A89
:10166A001091939A023020E0120729F42FE538E00E
:10167A0000EC0E94AB0A0E94A50A08950091949A70
:10168A001091959A012B31F42DE338E000EC0E9479
:10169A00AB0A1BC00091949A1091959A013020E0F0
:1016AA00120731F42EE438E000EC0E94AB0A0DC0B8
:1016BA000091949A1091959A023020E0120729F429
:1016CA002FE538E000EC0E94AB0A04E00E940B24EC
:1016DA0008950230E9F50091989A0023E1F4009107
:1016EA00929A1091939A012B31F420E738E000EC9A
:1016FA000E94AB0A0DC00091929A1091939A013000
:10170A0020E0120729F421E838E000EC0E94AB0A35
:10171A000E94A50A08950091949A1091959A012B16
:10172A0031F420E738E000EC0E94AB0A0DC00091CA
:10173A00949A1091959A013020E0120729F421E831
:10174A0038E000EC0E94AB0A04E00E940B240895E2
:10175A000330E9F50091989A0023E1F40091929AF6
:10176A001091939A012B31F422E938E000EC0E949F
:10177A00AB0A0DC00091929A1091939A013020E021
:10178A00120729F423EA38E000EC0E94AB0A0E940F
:10179A00A50A08950091949A1091959A012B31F413
:1017AA0022E938E000EC0E94AB0A0DC00091949A3D
:1017BA001091959A013020E0120729F423EA38E0C3
:1017CA0000EC0E94AB0A04E00E940B240895043046
:1017DA00E9F50091989A0023E1F40091929A109108
:1017EA00939A012B31F424EB38E000EC0E94AB0A07
:1017FA000DC00091929A1091939A013020E012073D
:10180A0029F425EC38E000EC0E94AB0A0E94A50AF4
:10181A0008950091949A1091959A012B31F426ED2E
:10182A0038E000EC0E94AB0A0DC00091949A109126
:10183A00959A013020E0120729F427EE38E000ECEF
:10184A000E94AB0A04E00E940B240895053009F0B7
:10185A0045C00091989A002301F54AE050E00091B2
:10186A00929A1091939A0E949D095A934A934AE038
:10187A0050E00091929A1091939A0E94B5091A9396
:10188A000A9308EF18E00E94A37F2496980100ECBF
:10189A000E94AB0A0E94A50A08954AE050E000910E
:1018AA00949A1091959A0E949D095A934A934AE0F4
:1018BA0050E00091949A1091959A0E94B5091A9352
:1018CA000A9308EF18E00E94A37F2496980100EC7F
:1018DA000E94AB0A06E00E940B240895063009F024
:1018EA0045C00091989A002301F54AE050E0009122
:1018FA00929A1091939A0E949D095A934A934AE0A8
:10190A0050E00091929A1091939A0E94B5091A9305
:10191A000A930EE019E00E94A37F2496980100EC36
:10192A000E94AB0A0E94A50A08954AE050E000917D
:10193A00949A1091959A0E949D095A934A934AE063
:10194A0050E00091949A1091959A0E94B5091A93C1
:10195A000A930EE019E00E94A37F2496980100ECF6
:10196A000E94AB0A06E00E940B240895073009F092
:10197A0045C00091989A002301F54AE050E0009191
:10198A00929A1091939A0E949D095A934A934AE017
:10199A0050E00091929A1091939A0E94B5091A9375
:1019AA000A9304E219E00E94A37F2496980100ECAE
:1019BA000E94AB0A0E94A50A08954AE050E00091ED
:1019CA00949A1091959A0E949D095A934A934AE0D3
:1019DA0050E00091949A1091959A0E94B5091A9331
:1019EA000A9304E219E00E94A37F2496980100EC6E
:1019FA000E94AB0A06E00E940B240895083009F001
:101A0A0045C00091989A002301F54AE050E0009100
:101A1A00929A1091939A0E949D095A934A934AE086
:101A2A0050E00091929A1091939A0E94B5091A93E4
:101A3A000A930AE319E00E94A37F2496980100EC16
:101A4A000E94AB0A0E94A50A08954AE050E000915C
:101A5A00949A1091959A0E949D095A934A934AE042
:101A6A0050E00091949A1091959A0E94B5091A93A0
:101A7A000A930AE319E00E94A37F2496980100ECD6
:101A8A000E94AB0A06E00E940B240895093049F52A
:101A9A000091989A002391F40091929A1091939A46
:101AAA001A930A9300E519E00E94A37F22969801EF
:101ABA0000EC0E94AB0A0E94A50A08950091949A2C
:101ACA001091959A1A930A9300E519E00E94A37F50
:101ADA002296980100EC0E94AB0A01E00E940B24B6
:101AEA0008950A3049F50091989A002391F40091DB
:101AFA00929A1091939A1A930A9300E619E00E9417
:101B0A00A37F2296980100EC0E94AB0A0E94A50AC4
:101B1A0008950091949A1091959A1A930A9300E65F
:101B2A0019E00E94A37F2296980100EC0E94AB0A5A
:101B3A0001E00E940B2408950B3009F075C0009152
:101B4A00989A0023C1F50091929A1091939A012BC9
:101B5A0031F421E739E000EC0E94AB0A29C0009178
:101B6A00929A1091939A013020E0120731F422E8F8
:101B7A0039E000EC0E94AB0A1BC00091929A1091C6
:101B8A00939A023020E0120731F423E939E000EC9D
:101B9A000E94AB0A0DC00091929A1091939A033059
:101BAA0020E0120729F424EA39E000EC0E94AB0A8B
:101BBA000E94A50A08950091949A1091959A012B72
:101BCA0031F421E739E000EC0E94AB0A29C0009108
:101BDA00949A1091959A013020E0120731F422E884
:101BEA0039E000EC0E94AB0A1BC00091949A109154
:101BFA00959A023020E0120731F423E939E000EC2B
:101C0A000E94AB0A0DC00091949A1091959A0330E4
:101C1A0020E0120729F424EA39E000EC0E94AB0A1A
:101C2A0004E00E940B2408950C3009F045C000918D
:101C3A00989A002301F54AE050E00091929A109197
:101C4A00939A0E949D095A934A934AE050E0009160
:101C5A00929A1091939A0E94B5091A930A9305EBE6
:101C6A0019E00E94A37F2496980100EC0E94AB0A17
:101C7A000E94A50A08954AE050E00091949A1091B2
:101C8A00959A0E949D095A934A934AE050E000911E
:101C9A00949A1091959A0E94B5091A930A9305EBA2
:101CAA0019E00E94A37F2496980100EC0E94AB0AD7
:101CBA0006E00E940B2408950D3009F092C00091AD
:101CCA00989A002309F046C00091929A1091939A2B
:101CDA00012B31F42BEC39E000EC0E94AB0A37C03F
:101CEA000091929A1091939A013020E0120731F4F0
:101CFA002CED39E000EC0E94AB0A29C00091929ABF
:101D0A001091939A023020E0120731F42DEE39E057
:101D1A0000EC0E94AB0A1BC00091929A1091939A10
:101D2A00033020E0120731F42EEF39E000EC0E9474
:101D3A00AB0A0DC00091929A1091939A043020E058
:101D4A00120729F42FE03AE000EC0E94AB0A0E9445
:101D5A00A50A08950091949A1091959A012B31F44D
:101D6A002BEC39E000EC0E94AB0A37C00091949A40
:101D7A001091959A013020E0120731F42CED39E0E8
:101D8A0000EC0E94AB0A29C00091949A1091959A8E
:101D9A00023020E0120731F42DEE39E000EC0E9407
:101DAA00AB0A1BC00091949A1091959A033020E0D7
:101DBA00120731F42EEF39E000EC0E94AB0A0DC095
:101DCA000091949A1091959A043020E0120729F410
:101DDA002FE03AE000EC0E94AB0A04E00E940B24D8
:101DEA0008950E3009F045C00091989A002301F534
:101DFA004AE050E00091929A1091939A0E949D09AC
:101E0A005A934A934AE050E00091929A1091939A19
:101E1A000E94B5091A930A9300E21AE00E94A37F6E
:101E2A002496980100EC0E94AB0A0E94A50A089524
:101E3A004AE050E00091949A1091959A0E949D0967
:101E4A005A934A934AE050E00091949A1091959AD5
:101E5A000E94B5091A930A9300E21AE00E94A37F2E
:101E6A002496980100EC0E94AB0A06E00E940B241B
:101E7A0008950F3009F059C00091989A002351F53E
:101E8A000091929A1091939A012B31F426E33AE049
:101E9A0000EC0E94AB0A1BC00091929A1091939A8F
:101EAA00013020E0120731F427E43AE000EC0E9406
:101EBA00AB0A0DC00091929A1091939A023020E0D9
:101ECA00120729F428E53AE000EC0E94AB0A0E94C6
:101EDA00A50A08950091949A1091959A012B31F4CC
:101EEA0026E33AE000EC0E94AB0A1BC00091949AE8
:101EFA001091959A013020E0120731F427E43AE074
:101F0A0000EC0E94AB0A0DC00091949A1091959A28
:101F1A00023020E0120729F428E53AE000EC0E949A
:101F2A00AB0A04E00E940B240895003109F045C071
:101F3A000091989A002301F54AE050E00091929AA4
:101F4A001091939A0E949D095A934A934AE050E04D
:101F5A000091929A1091939A0E94B5091A930A9342
:101F6A0009E61AE00E94A37F2496980100EC0E94D9
:101F7A00AB0A0E94A50A08954AE050E00091949A9B
:101F8A001091959A0E949D095A934A934AE050E00B
:101F9A000091949A1091959A0E94B5091A930A93FE
:101FAA000FE71AE00E94A37F2496980100EC0E9492
:101FBA00AB0A06E00E940B2408950131E9F500916D
:101FCA00989A0023E1F40091929A1091939A012B26
:101FDA0031F424E93AE000EC0E94AB0A0DC000910A
:101FEA00929A1091939A013020E0120729F425EA77
:101FFA003AE000EC0E94AB0A0E94A50A08950091FB
:10200A00949A1091959A012B31F424E93AE000EC64
:10201A000E94AB0A0DC00091949A1091959A0130D2
:10202A0020E0120729F425EA3AE000EC0E94AB0A04
:10203A0004E00E940B2408950231E9F50091989A70
:10204A000023E1F40091929A1091939A012B31F4B2
:10205A0026EB3AE000EC0E94AB0A0DC00091929A7E
:10206A001091939A013020E0120729F427EC3AE004
:10207A0000EC0E94AB0A0E94A50A08950091949A66
:10208A001091959A012B31F426EB3AE000EC0E946C
:10209A00AB0A0DC00091949A1091959A013020E0F4
:1020AA00120729F427EC3AE000EC0E94AB0A04E09C
:1020BA000E940B240895033149F50091989A002350
:1020CA0091F40091929A1091939A1A930A9308EDB7
:1020DA001AE00E94A37F2296980100EC0E94AB0AA4
:1020EA000E94A50A08950091949A1091959A1A93BC
:1020FA000A9307EE1AE00E94A37F2296980100EC49
:10210A000E94AB0A01E00E940B240895043149F5AC
:10211A000091989A002391F40091929A1091939ABF
:10212A001A930A9307EF1AE00E94A37F2296980156
:10213A0000EC0E94AB0A0E94A50A08950091949AA5
:10214A001091959A1A930A9307EF1AE00E94A37FB7
:10215A002296980100EC0E94AB0A01E00E940B242F
:10216A000895053149F50091989A002391F4009158
:10217A00929A1091939A1A930A9308E01BE00E948C
:10218A00A37F2296980100EC0E94AB0A0E94A50A3E
:10219A0008950091949A1091959A1A930A9308E0D7
:1021AA001BE00E94A37F2296980100EC0E94AB0AD2
:1021BA0001E00E940B240895063109F075C00091D0
:1021CA00989A0023C1F50091929A1091939A012B43
:1021DA0031F429E13BE000EC0E94AB0A29C00091EE
:1021EA00929A1091939A013020E0120731F42AE270
:1021FA003BE000EC0E94AB0A1BC00091929A10913E
:10220A00939A023020E0120731F42BE33BE000EC12
:10221A000E94AB0A0DC00091929A1091939A0330D2
:10222A0020E0120729F42CE43BE000EC0E94AB0A00
:10223A000E94A50A08950091949A1091959A012BEB
:10224A0031F429E13BE000EC0E94AB0A29C000917D
:10225A00949A1091959A013020E0120731F42AE2FB
:10226A003BE000EC0E94AB0A1BC00091949A1091CB
:10227A00959A023020E0120731F42BE33BE000ECA0
:10228A000E94AB0A0DC00091949A1091959A03305E
:10229A0020E0120729F42CE43BE000EC0E94AB0A90
:1022AA0004E00E940B240895073109F045C000910B
:1022BA00989A002301F54AE050E00091929A109111
:1022CA00939A0E949D095A934A934AE050E00091DA
:1022DA00929A1091939A0E94B5091A930A930DE55E
:1022EA001BE00E94A37F2496980100EC0E94AB0A8F
:1022FA000E94A50A08954AE050E00091949A10912C
:10230A00959A0E949D095A934A934AE050E0009197
:10231A00949A1091959A0E94B5091A930A930DE519
:10232A001BE00E94A37F2496980100EC0E94AB0A4E
:10233A0006E00E940B240895083109F059C0009163
:10234A00989A002351F50091929A1091939A012B31
:10235A0031F424E93AE000EC0E94AB0A1BC0009178
:10236A00929A1091939A013020E0120731F423E7F0
:10237A003BE000EC0E94AB0A0DC00091929A1091CA
:10238A00939A023020E0120729F424E83BE000EC9B
:10239A000E94AB0A0E94A50A08950091949A10918E
:1023AA00959A012B31F424E93AE000EC0E94AB0A39
:1023BA001BC00091949A1091959A013020E012075F
:1023CA0031F423E73BE000EC0E94AB0A0DC0009118
:1023DA00949A1091959A023020E0120729F424E881
:1023EA003BE000EC0E94AB0A04E00E940B24089533
:1023FA00093109F075C00091989A0023C1F500913E
:10240A00929A1091939A012B31F429E13BE000EC66
:10241A000E94AB0A29C00091929A1091939A0130B6
:10242A0020E0120731F42AE23BE000EC0E94AB0AFA
:10243A001BC00091929A1091939A023020E01207E1
:10244A0031F425E93BE000EC0E94AB0A0DC0009193
:10245A00929A1091939A033020E0120729F42CE4FF
:10246A003BE000EC0E94AB0A0E94A50A0895009185
:10247A00949A1091959A012B31F429E13BE000ECF2
:10248A000E94AB0A29C00091949A1091959A013042
:10249A0020E0120731F42AE23BE000EC0E94AB0A8A
:1024AA001BC00091949A1091959A023020E012076D
:1024BA0031F425E93BE000EC0E94AB0A0DC0009123
:1024CA00949A1091959A033020E0120729F42CE48B
:1024DA003BE000EC0E94AB0A04E00E940B24089542
:1024EA000A3109F045C00091989A002301F54AE0A3
:1024FA0050E00091929A1091939A0E949D095A93E2
:10250A004A934AE050E00091929A1091939A0E945D
:10251A00B5091A930A9306EA1BE00E94A37F249640
:10252A00980100EC0E94AB0A0E94A50A08954AE0AD
:10253A0050E00091949A1091959A0E949D095A939D
:10254A004A934AE050E00091949A1091959A0E9419
:10255A00B5091A930A930BEB1BE00E94A37F2496FA
:10256A00980100EC0E94AB0A06E00E940B24089531
:10257A000B3109F059C00091989A002351F5009146
:10258A00929A1091939A012B31F424E93AE000ECE3
:10259A000E94AB0A1BC00091929A1091939A013043
:1025AA0020E0120731F421ED3BE000EC0E94AB0A77
:1025BA000DC00091929A1091939A023020E012076E
:1025CA0029F422EE3BE000EC0E94AB0A0E94A50A25
:1025DA0008950091949A1091959A012B31F424E967
:1025EA003AE000EC0E94AB0A1BC00091949A109149
:1025FA00959A013020E0120731F421ED3BE000EC1E
:10260A000E94AB0A0DC00091949A1091959A0230DB
:10261A0020E0120729F422EE3BE000EC0E94AB0A0C
:10262A0004E00E940B2408950C31E9F50091989A70
:10263A000023E1F40091929A1091939A012B31F4BC
:10264A0024E93AE000EC0E94AB0A0DC00091929A8C
:10265A001091939A013020E0120729F423EF3BE00E
:10266A0000EC0E94AB0A0E94A50A08950091949A70
:10267A001091959A012B31F424E93AE000EC0E947A
:10268A00AB0A0DC00091949A1091959A013020E0FE
:10269A00120729F423EF3BE000EC0E94AB0A04E0A6
:1026AA000E940B2408950D3109F075C00091989A83
:1026BA000023C1F50091929A1091939A012B31F45B
:1026CA0024E03CE000EC0E94AB0A29C00091929AF7
:1026DA001091939A013020E0120731F427E13CE08F
:1026EA0000EC0E94AB0A1BC00091929A1091939A37
:1026FA00023020E0120731F42AE23CE000EC0E94AA
:10270A00AB0A0DC00091929A1091939A033020E07F
:10271A00120729F42DE33CE000EC0E94AB0A0E9468
:10272A00A50A08950091949A1091959A012B31F473
:10273A0024E03CE000EC0E94AB0A29C00091949A84
:10274A001091959A013020E0120731F427E13CE01C
:10275A0000EC0E94AB0A1BC00091949A1091959AC2
:10276A00023020E0120731F42AE23CE000EC0E9439
:10277A00AB0A0DC00091949A1091959A033020E00B
:10278A00120729F42DE33CE000EC0E94AB0A04E0B6
:10279A000E940B2408950E3109F045C00091989AC1
:1027AA00002301F54AE050E00091929A1091939A21
:1027BA000E949D095A934A934AE050E00091929AE6
:1027CA001091939A0E94B5091A930A9300E51CE0A6
:1027DA000E94A37F2496980100EC0E94AB0A0E94F3
:1027EA00A50A08954AE050E00091949A1091959AAA
:1027FA000E949D095A934A934AE050E00091949AA4
:10280A001091959A0E94B5091A930A9300E51CE063
:10281A000E94A37F2496980100EC0E94AB0A06E06E
:10282A000E940B2408950F3109F045C00091989A2F
:10283A00002301F54AE050E00091929A1091939A90
:10284A000E949D095A934A934AE050E00091929A55
:10285A001091939A0E94B5091A930A9306E61CE00E
:10286A000E94A37F2496980100EC0E94AB0A0E9462
:10287A00A50A08954AE050E00091949A1091959A19
:10288A000E949D095A934A934AE050E00091949A13
:10289A001091959A0E94B5091A930A9306E61CE0CC
:1028AA000E94A37F2496980100EC0E94AB0A06E0DE
:1028BA000E940B240895003249F50091989A00234A
:1028CA0091F40091929A1091939A1A930A930CE7B1
:1028DA001CE00E94A37F2296980100EC0E94AB0A9A
:1028EA000E94A50A08950091949A1091959A1A93B4
:1028FA000A930CE71CE00E94A37F2296980100EC41
:10290A000E94AB0A01E00E940B240895013209F0EB
:10291A0045C00091989A002301F54AE050E00091E1
:10292A00929A1091939A0E949D095A934A934AE067
:10293A0050E00091929A1091939A0E94B5091A93C5
:10294A000A930CE81CE00E94A37F2496980100ECED
:10295A000E94AB0A0E94A50A08954AE050E000913D
:10296A00949A1091959A0E949D095A934A934AE023
:10297A0050E00091949A1091959A0E94B5091A9381
:10298A000A930CE81CE00E94A37F2496980100ECAD
:10299A000E94AB0A06E00E940B240895023209F055
:1029AA0045C00091989A002301F54AE050E0009151
:1029BA00929A1091939A0E949D095A934A934AE0D7
:1029CA0050E00091929A1091939A0E94B5091A9335
:1029DA000A9302EA1CE00E94A37F2496980100EC65
:1029EA000E94AB0A0E94A50A08954AE050E00091AD
:1029FA00949A1091959A0E949D095A934A934AE093
:102A0A0050E00091949A1091959A0E94B5091A93F0
:102A1A000A9302EA1CE00E94A37F2496980100EC24
:102A2A000E94AB0A06E00E940B240895033209F0C3
:102A3A0075C00091989A0023C1F50091929A10915D
:102A4A00939A012B31F424E93AE000EC0E94AB0A94
:102A5A0029C00091929A1091939A013020E01207AE
:102A6A0031F428EB3CE000EC0E94AB0A1BC0009159
:102A7A00929A1091939A023020E0120731F429ECCD
:102A8A003CE000EC0E94AB0A0DC00091929A1091B2
:102A9A00939A033020E0120729F42AED3CE000EC77
:102AAA000E94AB0A0E94A50A08950091949A109177
:102ABA00959A012B31F424E93AE000EC0E94AB0A22
:102ACA0029C00091949A1091959A013020E012073A
:102ADA0031F428EB3CE000EC0E94AB0A1BC00091E9
:102AEA00949A1091959A023020E0120731F429EC59
:102AFA003CE000EC0E94AB0A0DC00091949A109140
:102B0A00959A033020E0120729F42AED3CE000EC04
:102B1A000E94AB0A04E00E940B240895043209F0D3
:102B2A0075C00091989A0023C1F50091929A10916C
:102B3A00939A012B31F42BEE3CE000EC0E94AB0A95
:102B4A0029C00091929A1091939A013020E01207BD
:102B5A0031F42CEF3CE000EC0E94AB0A1BC0009160
:102B6A00929A1091939A023020E0120731F42DE0E4
:102B7A003DE000EC0E94AB0A0DC00091929A1091C0
:102B8A00939A033020E0120729F42EE13DE000EC8D
:102B9A000E94AB0A0E94A50A08950091949A109186
:102BAA00959A012B31F42BEE3CE000EC0E94AB0A23
:102BBA0029C00091949A1091959A013020E0120749
:102BCA0031F42CEF3CE000EC0E94AB0A1BC00091F0
:102BDA00949A1091959A023020E0120731F42DE070
:102BEA003DE000EC0E94AB0A0DC00091949A10914E
:102BFA00959A033020E0120729F42EE13DE000EC1B
:102C0A000E94AB0A04E00E940B240895053209F0E1
:102C1A0059C00091989A002351F50091929A109107
:102C2A00939A012B31F42FE23DE000EC0E94AB0AAB
:102C3A001BC00091929A1091939A013020E01207DA
:102C4A0031F420E43DE000EC0E94AB0A0DC0009193
:102C5A00929A1091939A023020E0120729F421E502
:102C6A003DE000EC0E94AB0A0E94A50A089500917B
:102C7A00949A1091959A012B31F42FE23DE000ECE1
:102C8A000E94AB0A1BC00091949A1091959A013048
:102C9A0020E0120731F420E43DE000EC0E94AB0A88
:102CAA000DC00091949A1091959A023020E0120773
:102CBA0029F421E53DE000EC0E94AB0A04E00E9401
:102CCA000B240895063249F50091989A002391F44D
:102CDA000091929A1091939A1A930A9302E61DE030
:102CEA000E94A37F2296980100EC0E94AB0A0E94E0
:102CFA00A50A08950091949A1091959A1A930A93A5
:102D0A0002E61DE00E94A37F2296980100EC0E9431
:102D1A00AB0A01E00E940B2408950732E9F50091FD
:102D2A00989A0023E1F40091929A1091939A012BB8
:102D3A0031F423E73DE000EC0E94AB0A0DC000919C
:102D4A00929A1091939A013020E0120729F424E80C
:102D5A003DE000EC0E94AB0A0E94A50A089500918A
:102D6A00949A1091959A012B31F423E73DE000ECF7
:102D7A000E94AB0A0DC00091949A1091959A013065
:102D8A0020E0120729F424E83DE000EC0E94AB0A97
:102D9A0004E00E940B240895083209F0CAC0009189
:102DAA00989A002309F062C00091929A1091939A1E
:102DBA00012B31F425E93DE000EC0E94AB0A53C037
:102DCA000091929A1091939A013020E0120731F4FF
:102DDA0026EA3DE000EC0E94AB0A45C00091929AB7
:102DEA001091939A023020E0120731F427EB3DE06C
:102DFA0000EC0E94AB0A37C00091929A1091939A04
:102E0A00063020E0120731F428EC3DE000EC0E9485
:102E1A00AB0A29C00091929A1091939A093020E046
:102E2A00120731F429ED3DE000EC0E94AB0A1BC009
:102E3A000091929A1091939A0A3020E0120731F485
:102E4A002AEE3DE000EC0E94AB0A0DC00091929A76
:102E5A001091939A0B3020E0120729F42BEF3DE0F2
:102E6A0000EC0E94AB0A0E94A50A08950091929A6A
:102E7A001091939A012B31F425E93DE000EC0E9470
:102E8A00AB0A53C00091929A1091939A013020E0B4
:102E9A00120731F426EA3DE000EC0E94AB0A45C075
:102EAA000091929A1091939A023020E0120731F41D
:102EBA0027EB3DE000EC0E94AB0A37C00091929AE2
:102ECA001091939A063020E0120731F428EC3DE085
:102EDA0000EC0E94AB0A29C00091929A1091939A31
:102EEA00093020E0120731F429ED3DE000EC0E94A0
:102EFA00AB0A1BC00091929A1091939A0A3020E073
:102F0A00120731F42AEE3DE000EC0E94AB0A0DC034
:102F1A000091929A1091939A0B3020E0120729F4AB
:102F2A002BEF3DE000EC0E94AB0A04E00E940B2468
:102F3A0008950932E9F50091989A0023E1F4009185
:102F4A00929A1091939A012B31F42CE03EE000EC16
:102F5A000E94AB0A0DC00091929A1091939A013087
:102F6A0020E0120729F42DE13EE000EC0E94AB0AB2
:102F7A000E94A50A08950091949A1091959A012B9E
:102F8A0031F42CE03EE000EC0E94AB0A0DC0009147
:102F9A00949A1091959A013020E0120729F42DE1B4
:102FAA003EE000EC0E94AB0A04E00E940B24089564
:102FBA000A32E9F50091989A0023E1F40091929A75
:102FCA001091939A012B31F42EE23EE000EC0E941C
:102FDA00AB0A0DC00091929A1091939A013020E0A9
:102FEA00120729F42FE33EE000EC0E94AB0A0E948C
:102FFA00A50A08950091949A1091959A012B31F49B
:10300A002EE23EE000EC0E94AB0A0DC00091949AB9
:10301A001091959A013020E0120729F42FE33EE03F
:10302A0000EC0E94AB0A04E00E940B2408950B32C4
:10303A0009F03AC10091989A002309F09AC00091C8
:10304A00929A1091939A012B31F420E53EE000EC1C
:10305A000E94AB0A8BC00091929A1091939A013008
:10306A0020E0120731F421E63EE000EC0E94AB0AB0
:10307A007DC00091929A1091939A023020E0120733
:10308A0031F422E73EE000EC0E94AB0A6FC00091E7
:10309A00929A1091939A033020E0120731F423E8B0
:1030AA003EE000EC0E94AB0A61C00091929A109136
:1030BA00939A043020E0120731F424E93EE000EC50
:1030CA000E94AB0A53C00091929A1091939A0530CC
:1030DA0020E0120731F425EA3EE000EC0E94AB0A38
:1030EA0045C00091929A1091939A063020E01207F7
:1030FA0031F426EB3EE000EC0E94AB0A37C00091A7
:10310A00929A1091939A073020E0120731F427EC33
:10311A003EE000EC0E94AB0A29C00091929A1091FD
:10312A00939A083020E0120731F428ED3EE000ECD3
:10313A000E94AB0A1BC00091929A1091939A09308F
:10314A0020E0120731F429EE3EE000EC0E94AB0ABF
:10315A000DC00091929A1091939A0A3020E01207BA
:10316A0029F42AEF3EE000EC0E94AB0A0E94A50A6D
:10317A0008950091949A1091959A012B31F420E5C3
:10318A003EE000EC0E94AB0A8BC00091949A109129
:10319A00959A013020E0120731F421E63EE000EC76
:1031AA000E94AB0A7DC00091949A1091959A0230C0
:1031BA0020E0120731F42BE03FE000EC0E94AB0A5A
:1031CA006FC00091949A1091959A033020E01207EB
:1031DA0031F423E83EE000EC0E94AB0A61C00091A2
:1031EA00949A1091959A043020E0120731F424E958
:1031FA003EE000EC0E94AB0A53C00091949A1091F1
:10320A00959A053020E0120731F425EA3EE000ECF9
:10321A000E94AB0A45C00091949A1091959A063083
:10322A0020E0120731F426EB3EE000EC0E94AB0AE4
:10323A0037C00091949A1091959A073020E01207AE
:10324A0031F427EC3EE000EC0E94AB0A29C0009161
:10325A00949A1091959A083020E0120731F428EDDB
:10326A003EE000EC0E94AB0A1BC00091949A1091B8
:10327A00959A093020E0120731F429EE3EE000EC7D
:10328A000E94AB0A0DC00091949A1091959A0A3047
:10329A0020E0120729F42AEF3EE000EC0E94AB0A74
:1032AA0004E00E940B2408950C3209F045C00091F5
:1032BA00989A002301F540E157E20091929A109101
:1032CA00939A0E94B5095A934A9340E157E20091B2
:1032DA00929A1091939A0E94B5091A930A930CE153
:1032EA001FE00E94A37F2496980100EC0E94AB0A7B
:1032FA000E94A50A089540E157E20091949A10911C
:10330A00959A0E94B5095A934A9340E157E200916F
:10331A00949A1091959A0E94B5091A930A930CE10E
:10332A001FE00E94A37F2496980100EC0E94AB0A3A
:10333A0008E00E940B2408950D3209F0E6C00091BE
:10334A00989A002309F070C00091929A1091939A6A
:10335A00012B31F420E33FE000EC0E94AB0A61C08C
:10336A000091929A1091939A013020E0120731F459
:10337A0021E43FE000EC0E94AB0A53C00091929A0C
:10338A001091939A023020E0120731F422E53FE0CF
:10339A0000EC0E94AB0A45C00091929A1091939A50
:1033AA00033020E0120731F423E63FE000EC0E94EC
:1033BA00AB0A37C00091929A1091939A053020E097
:1033CA00120731F424E73FE000EC0E94AB0A29C05F
:1033DA000091929A1091939A063020E0120731F4E4
:1033EA0025E83FE000EC0E94AB0A1BC00091929ACC
:1033FA001091939A093020E0120731F426E93FE050
:10340A0000EC0E94AB0A0DC00091929A1091939A17
:10341A000A3020E0120729F427EA3FE000EC0E9474
:10342A00AB0A0E94A50A08950091949A1091959A60
:10343A00012B31F420E33FE000EC0E94AB0A61C0AB
:10344A000091949A1091959A013020E0120731F474
:10345A0021E43FE000EC0E94AB0A53C00091949A29
:10346A001091959A023020E0120731F422E53FE0EC
:10347A0000EC0E94AB0A45C00091949A1091959A6B
:10348A00033020E0120731F423E63FE000EC0E940B
:10349A00AB0A37C00091949A1091959A053020E0B2
:1034AA00120731F424E73FE000EC0E94AB0A29C07E
:1034BA000091949A1091959A063020E0120731F4FF
:1034CA0025E83FE000EC0E94AB0A1BC00091949AE9
:1034DA001091959A093020E0120731F426E93FE06D
:1034EA0000EC0E94AB0A0DC00091949A1091959A33
:1034FA000A3020E0120729F427EA3FE000EC0E9494
:10350A00AB0A04E00E940B2408950E3209F045C06C
:10351A000091989A002301F54AE050E00091929AAE
:10352A001091939A0E949D095A934A934AE050E057
:10353A000091929A1091939A0E94B5091A930A934C
:10354A0008EB1FE00E94A37F2496980100EC0E94DA
:10355A00AB0A0E94A50A08954AE050E00091949AA5
:10356A001091959A0E949D095A934A934AE050E015
:10357A000091949A1091959A0E94B5091A930A9308
:10358A0008EB1FE00E94A37F2496980100EC0E949A
:10359A00AB0A06E00E940B2408950F32E9F5009168
:1035AA00989A0023E1F40091929A1091939A012B30
:1035BA0031F42EEC3FE000EC0E94AB0A0DC0009102
:1035CA00929A1091939A013020E0120729F42FED74
:1035DA003FE000EC0E94AB0A0E94A50A0895009100
:1035EA00949A1091959A012B31F42EEC3FE000EC5D
:1035FA000E94AB0A0DC00091949A1091959A0130DD
:10360A0020E0120729F42FED3FE000EC0E94AB0AFC
:10361A0004E00E940B2408950033E9F50091989A7A
:10362A000023E1F40091929A1091939A012B31F4BC
:10363A0020EF3FE000EC0E94AB0A0DC00091929A85
:10364A001091939A013020E0120729F421E030E129
:10365A0000EC0E94AB0A0E94A50A08950091949A70
:10366A001091959A012B31F420EF3FE000EC0E9473
:10367A00AB0A0DC00091949A1091959A013020E0FE
:10368A00120729F421E030E100EC0E94AB0A04E0C1
:10369A000E940B240895013309F075C00091989A8D
:1036AA000023C1F50091929A1091939A012B31F45B
:1036BA0022E130E100EC0E94AB0A29C00091929A03
:1036CA001091939A013020E0120731F423E230E19D
:1036DA0000EC0E94AB0A1BC00091929A1091939A37
:1036EA00023020E0120731F424E330E100EC0E94BA
:1036FA00AB0A0DC00091929A1091939A033020E080
:10370A00120729F425E430E100EC0E94AB0A0E947A
:10371A00A50A08950091929A1091939A012B31F477
:10372A0022E130E100EC0E94AB0A29C00091929A92
:10373A001091939A013020E0120731F423E230E12C
:10374A0000EC0E94AB0A1BC00091929A1091939AC6
:10375A00023020E0120731F424E330E100EC0E9449
:10376A00AB0A0DC00091929A1091939A033020E00F
:10377A00120729F425E430E100EC0E94AB0A04E0C8
:10378A000E940B2408950233E9F50091989A0023C8
:10379A00E1F40091929A1091939A012B31F426E563
:1037AA0030E100EC0E94AB0A0DC00091929A109190
:1037BA00939A013020E0120729F427E630E100EC61
:1037CA000E94AB0A0E94A50A08950091949A10914A
:1037DA00959A012B31F426E530E100EC0E94AB0A00
:1037EA000DC00091949A1091959A013020E0120729
:1037FA0029F427E630E100EC0E94AB0A04E00E94BB
:10380A000B240895033341F50091989A002391F40B
:10381A000091929A1091939A1A930A9308E710E1E9
:10382A000E94A37F2296980100EC0E94AB0A0E9494
:10383A00A50A08950091949A1091959A1A930A9359
:10384A0008E710E10E94A37F2296980100EC0E94EB
:10385A00AB0A01E0DBD70895043341F50091989A49
:10386A00002391F40091929A1091939A1A930A93D1
:10387A0009E810E10E94A37F2296980100EC0E94B9
:10388A00AB0A0E94A50A08950091949A1091959AFC
:10389A001A930A930AE910E10E94A37F22969801DB
:1038AA0000EC0E94AB0A01E0B1D70895053341F557
:1038BA000091989A002391F40091929A1091939A08
:1038CA001A930A930AEA10E10E94A37F22969801AA
:1038DA0000EC0E94AB0A0E94A50A08950091949AEE
:1038EA001091959A1A930A930AEA10E10E94A37F0B
:1038FA002296980100EC0E94AB0A01E087D708954E
:10390A00063341F50091989A002391F40091929A16
:10391A001091939A1A930A930BEB10E10E94A37FDA
:10392A002296980100EC0E94AB0A0E94A50A08950B
:10393A000091949A1091959A1A930A930BEB10E1BD
:10394A000E94A37F2296980100EC0E94AB0A01E034
:10395A005DD70895073341F50091989A002391F4B1
:10396A000091929A1091939A1A930A930CEC10E18F
:10397A000E94A37F2296980100EC0E94AB0A0E9443
:10398A00A50A08950091949A1091959A1A930A9308
:10399A000CEC10E10E94A37F2296980100EC0E9491
:1039AA00AB0A01E033D70895083309F044C0009107
:1039BA00989A002301F54AE050E00091929A1091FA
:1039CA00939A0E949D095A934A934AE050E00091C3
:1039DA00929A1091939A0E94B5091A930A930DED3F
:1039EA0010E10E94A37F2496980100EC0E94AB0A82
:1039FA000E94A50A08954AE050E00091949A109115
:103A0A00959A0E949D095A934A934AE050E0009180
:103A1A00949A1091959A0E94B5091A930A930DEDFA
:103A2A0010E10E94A37F2496980100EC0E94AB0A41
:103A3A0006E0ECD60895093341F50091989A0023DF
:103A4A0091F40091929A1091939A1A930A9303EF20
:103A5A0010E10E94A37F2296980100EC0E94AB0A13
:103A6A000E94A50A08950091949A1091959A1A9322
:103A7A000A9303EF10E10E94A37F2296980100ECBB
:103A8A000E94AB0A01E0C2D608950A3341F50091BB
:103A9A00989A002391F40091929A1091939A1A930A
:103AAA000A9304E011E10E94A37F2296980100EC98
:103ABA000E94AB0A0E94A50A08950091949A109157
:103ACA00959A1A930A9304E011E10E94A37F229621
:103ADA00980100EC0E94AB0A01E098D608950B33D6
:103AEA0041F50091989A002391F40091929A1091CD
:103AFA00939A1A930A9305E111E10E94A37F2296F1
:103B0A00980100EC0E94AB0A0E94A50A0895009150
:103B1A00949A1091959A1A930A9305E111E10E94D9
:103B2A00A37F2296980100EC0E94AB0A01E06ED6B0
:103B3A0008950C3341F50091989A002391F400916D
:103B4A00929A1091939A1A930A9306E211E10E94AB
:103B5A00A37F2296980100EC0E94AB0A0E94A50A54
:103B6A0008950091949A1091959A1A930A9306E2ED
:103B7A0011E10E94A37F2296980100EC0E94AB0AF1
:103B8A0001E044D608950D3341F50091989A002337
:103B9A0091F40091929A1091939A1A930A9307E3D7
:103BAA0011E10E94A37F2296980100EC0E94AB0AC1
:103BBA000E94A50A08950091949A1091959A1A93D1
:103BCA000A9307E311E10E94A37F2296980100EC71
:103BDA000E94AB0A01E01AD608950E3309F044C0D8
:103BEA000091989A002301F54AE050E00091929AD8
:103BFA001091939A0E949D095A934A934AE050E081
:103C0A000091929A1091939A0E94B5091A930A9375
:103C1A0008E411E10E94A37F2496980100EC0E9417
:103C2A00AB0A0E94A50A08954AE050E00091949ACE
:103C3A001091959A0E949D095A934A934AE050E03E
:103C4A000091949A1091959A0E94B5091A930A9331
:103C5A0008E411E10E94A37F2496980100EC0E94D7
:103C6A00AB0A06E0D3D508950F3309F044C000919A
:103C7A00989A002301F54AE050E00091929A109137
:103C8A00939A0E949D095A934A934AE050E0009100
:103C9A00929A1091939A0E94B5091A930A930EE583
:103CAA0011E10E94A37F2496980100EC0E94AB0ABE
:103CBA000E94A50A08954AE050E00091949A109152
:103CCA00959A0E949D095A934A934AE050E00091BE
:103CDA00949A1091959A0E94B5091A930A930EE53F
:103CEA0011E10E94A37F2496980100EC0E94AB0A7E
:103CFA0006E08CD50895003409F043C00091989AE3
:103D0A00002301F548EE53E00091929A1091939A9C
:103D1A000E94B5095A934A9348EE53E00091929A49
:103D2A001091939A0E94B5091A930A9303E711E135
:103D3A000E94A37F2496980100EC0E94AB0A0E947D
:103D4A00A50A089548EE53E00091949A1091959A25
:103D5A000E94B5095A934A9348EE53E00091949A07
:103D6A001091959A0E94B5091A930A9303E711E1F3
:103D7A000E94A37F2496980100EC0E94AB0A07E0F8
:103D8A0045D508959A938A932597C901413009F038
:103D9A0026C12091A49B263089F49C010E947D862D
:103DAA008093929A9093939A00E00093989A00E0F5
:103DBA000093008001E00093919A20C50091A49B92
:103DCA00053051F400E00093989A00E000930080D7
:103DDA0001E00093919A12C50091A49B013009F069
:103DEA006EC04AE050E08C010E949D0948834AE077
:103DFA0050E08C010E949D094AE050E00E949D0912
:103E0A00498344E650E08C010E949D094AE050E053
:103E1A000E949D094A8348EE53E08C010E949D0945
:103E2A004AE050E00E949D094B8340E157E28C0131
:103E3A000E949D090C83FE010091008010E0E00FB2
:103E4A00F11F3197008103950083FE0100910080E4
:103E5A0010E0E00FF11F319700810A3048F020E0AE
:103E6A00FE010091008010E0E00FF11F31972083DE
:103E7A004C8150E000E117E20E949509C8014B818C
:103E8A0050E008EE13E00E949509800F911F4A81C5
:103E9A0050E004E610E00E949509800F911F4981C5
:103EAA0050E00AE010E00E949509800F911F0881F6
:103EBA0010E0800F911F01E00093919A9FC4009136
:103ECA00A49B023009F06FC04AE050E08C010E94C6
:103EDA009D0948834AE050E08C010E949D094AE00E
:103EEA0050E00E949D09498344E650E08C010E94FB
:103EFA009D094AE050E00E949D094A8348EE53E03A
:103F0A008C010E949D094AE050E00E949D094B8362
:103F1A0040E157E28C010E949D090C83FE01009149
:103F2A00008010E0E00FF11F31970081013050F45A
:103F3A0029E0FE010091008010E0E00FF11F3197A7
:103F4A0020830AC0FE010091008010E0E00FF11FFB
:103F5A00319700810A9500834C8150E000E117E215
:103F6A000E949509C8014B8150E008EE13E00E94B7
:103F7A009509800F911F4A8150E004E610E00E94E3
:103F8A009509800F911F498150E00AE010E00E94D4
:103F9A009509800F911F088110E0800F911F01E0A1
:103FAA000093919A2BC40091A49B033051F4009181
:103FBA000080013099F0009100800A9500930080FA
:103FCA001DC40091A49B043049F400910080043080
:103FDA0028F4009100800395009300800FC44230BA
:103FEA0009F041C02091A49B263089F49C010E94CB
:103FFA007D868093929A9093939A00E00093989A80
:10400A0000E00093008001E00093919AF7C30091C9
:10401A00A49B053051F400E00093989A00E00093C5
:10402A00008001E00093919AE9C30091A49B0130BA
:10403A0059F40196863000E0900710F085E090E090
:10404A0001E00093919ADAC30091A49B023051F4E3
:10405A00082F092B11F0019702C080E090E001E0DF
:10406A000093919ACBC3433009F041C02091A49B9D
:10407A00263089F49C010E947D868093929A9093BF
:10408A00939A00E00093989A00E00093008001E080
:10409A000093919AB3C30091A49B053051F400E0B8
:1040AA000093989A00E00093008001E00093919AAF
:1040BA00A5C30091A49B013059F401968E3100E00A
:1040CA00900710F08DE190E001E00093919A96C379
:1040DA000091A49B023051F4082F092B11F001978B
:1040EA0002C080E090E001E00093919A87C34430D7
:1040FA0009F05DC220910080213009F04EC0209164
:10410A00A49B253051F400E00093989A00E00093B4
:10411A00008001E00093919A71C32091A49B213001
:10412A0049F48E3F0FE79007BCF5019601E0009332
:10413A00919A64C32091A49B223049F4803000E80C
:10414A00900751F1019701E00093919A57C320918A
:10415A00A49B243069F400910080043028F4009173
:10416A00008003950093008001E00093919A46C372
:10417A002091A49B263081F49C010E947D86809325
:10418A00929A9093939A00E00093989A00E0009391
:10419A00008001E00093919A31C32091008022307F
:1041AA0009F081C02091A49B253051F400E00093CE
:1041BA00989A00E00093008001E00093919A1EC350
:1041CA002091A49B2130C9F4853F0FE7900724F47E
:1041DA000A9601E00093919A873F0FEF900734F017
:1041EA00992322F401E00093008008C3082F092BC9
:1041FA0019F401E00093008001C32091A49B2230AE
:10420A00D9F48A3000E8900724F00A9701E0009375
:10421A00919A8A3000E0900744F4813000E09007D8
:10422A0024F001E000930080E9C2082F092BD1F5A0
:10423A0001E000930080E2C22091A49B233069F43C
:10424A0000910080013029F0009100800A950093C6
:10425A00008001E00093919AD1C22091A49B24305E
:10426A0069F400910080043028F4009100800395DD
:10427A000093008001E00093919AC0C22091A49B10
:10428A00263081F49C010E947D868093929A9093B5
:10429A00939A00E00093989A00E00093008001E06E
:1042AA000093919AABC220910080233009F083C019
:1042BA002091A49B253051F400E00093989A00E0E5
:1042CA000093008001E00093919A98C22091A49BE8
:1042DA002130D1F48B390FE790072CF48C599F4F7A
:1042EA0001E00093919A8D390FEF900734F09923EA
:1042FA0022F402E00093008081C2082F092B19F4EE
:10430A0001E0009300807AC22091A49B2230E1F45C
:10431A00843600E890072CF08456904001E0009320
:10432A00919A843600E0900744F4813000E09007C7
:10433A0024F002E00093008061C2082F092BD1F516
:10434A0001E0009300805AC22091A49B233069F4B3
:10435A0000910080013029F0009100800A950093B5
:10436A00008001E00093919A49C22091A49B2430D5
:10437A0069F400910080043028F4009100800395CC
:10438A000093008001E00093919A38C22091A49B87
:10439A00263081F49C010E947D868093929A9093A4
:1043AA00939A00E00093989A00E00093008001E05D
:1043BA000093919A23C220910080243009F083C08F
:1043CA002091A49B253051F400E00093989A00E0D4
:1043DA000093008001E00093919A10C22091A49B5F
:1043EA002130D1F487310CE790072CF488519C4F87
:1043FA0001E00093919A89310CEF900734F09923E8
:10440A0022F403E000930080F9C1082F092B19F464
:10441A0001E000930080F2C12091A49B2230E1F4D4
:10442A00883E03E890072CF0885E934001E00093F1
:10443A00919A883E03E0900744F4813000E09007A7
:10444A0024F003E000930080D9C1082F092BD1F58D
:10445A0001E000930080D2C12091A49B233069F42B
:10446A0000910080013029F0009100800A950093A4
:10447A00008001E00093919AC1C12091A49B24304D
:10448A0069F400910080043028F4009100800395BB
:10449A000093008001E00093919AB0C12091A49BFF
:1044AA00263081F49C010E947D868093929A909393
:1044BA00939A00E00093989A00E00093008001E04C
:1044CA000093919A9BC120910080253009F096C1F2
:1044DA002091A49B253051F400E00093989A00E0C3
:1044EA000093008001E00093919A88C12091A49BD7
:1044FA002130D1F48F3E08E590072CF4805F984D67
:10450A0001E00093919A813F08ED900734F09923D6
:10451A0022F404E00093008071C1082F092B19F4DA
:10452A0001E0009300806AC12091A49B2230E1F44B
:10453A00803107EA90072CF08051974201E00093FE
:10454A00919A803107E2900744F4813000E09007A5
:10455A0024F004E00093008051C1082F092B31F5A3
:10456A0001E0009300804AC12091A49B233051F4BA
:10457A00009100800130D1F0009100800A950093EB
:10458A0000803CC12091A49B263081F49C010E94AA
:10459A007D868093929A9093939A00E00093989ADA
:1045AA0000E00093008001E00093919A27C1453012
:1045BA0009F083C02091A49B263089F49C010E94B3
:1045CA007D868093929A9093939A00E00093989AAA
:1045DA0000E00093008001E00093919A0FC10091DE
:1045EA00A49B053051F400E00093989A00E00093F0
:1045FA00008001E00093919A01C10091A49B0130CF
:10460A0061F5082F092B19F481E090E022C081306E
:10461A0000E0900719F486E090E01BC0863000E0C5
:10462A00900719F489E090E014C0893000E09007FF
:10463A0019F48AE090E00DC08A3000E0900719F47E
:10464A008BE090E006C08B3000E0900711F480E028
:10465A0090E001E00093919AD1C00091A49B0230AE
:10466A0059F5082F092B19F48BE090E022C081300C
:10467A0000E0900719F480E090E01BC0863000E06B
:10468A00900719F481E090E014C0893000E09007A7
:10469A0019F486E090E00DC08A3000E0900719F422
:1046AA0089E090E006C08B3000E0900711F48AE0C0
:1046BA0090E001E00093919AA1C0463009F09EC0B3
:1046CA002091A49B263089F49C010E947D868093C8
:1046DA00929A9093939A00E00093989A00E000933C
:1046EA00008001E00093919A89C00091A49B053053
:1046FA0051F400E00093989A00E00093008001E0F2
:10470A000093919A7BC00091A49B0130D1F5082FA8
:10471A00092B19F481E090E030C0813000E0900765
:10472A0019F482E090E029C0823000E0900719F481
:10473A0083E090E022C0833000E0900719F485E01E
:10474A0090E01BC0853000E0900719F486E090E005
:10475A0014C0863000E0900719F487E090E00DC09D
:10476A00893000E0900719F48AE090E006C08A30A8
:10477A0000E0900711F480E090E001E00093919A44
:10478A003DC00091A49B0230C9F5082F092B19F4EA
:10479A008AE090E030C0813000E0900719F480E0B0
:1047AA0090E029C0823000E0900719F481E090E09F
:1047BA0022C0833000E0900719F482E090E01BC029
:1047CA00853000E0900719F483E090E014C0863049
:1047DA0000E0900719F485E090E00DC0893000E010
:1047EA00900719F486E090E006C08A3000E090074E
:1047FA0011F489E090E001E00093919A8093949AF1
:10480A009093959A2596899199910895002321F577
:10481A000091979A002329F419E000EC0E94A00A5B
:10482A0008950091979A013029F41AE000EC0E9449
:10483A00A00A08950091979A023029F41BE000EC2F
:10484A000E94A00A08950091979A033021F41CE06F
:10485A0000EC0E94A00A0895013041F41BE0009187
:10486A000080101B00EC0E94A00A08950230D9F4BF
:10487A0000910080043018F003E00093008000915A
:10488A000080033040F41BE000910080101B00EC14
:10489A000E94A00A08951AE000910080101B00EC03
:1048AA000E94A00A08950330D9F4009100800330D1
:1048BA0018F002E00093008000910080023040F47A
:1048CA001BE000910080101B00EC0E94A00A0895D2
:1048DA001AE000910080101B00EC0E94A00A0895C3
:1048EA00043029F411E000EC0E94A00A0895053072
:1048FA00D9F400910080043018F003E0009300809E
:10490A0000910080023040F41BE000910080101BEF
:10491A0000EC0E94A00A08951AE000910080101B82
:10492A0000EC0E94A00A08950630D9F40091008094
:10493A00053018F004E000930080009100800230F6
:10494A0040F41BE000910080101B00EC0E94A00ABA
:10495A0008951AE000910080101B00EC0E94A00A42
:10496A0008950730D9F400910080053018F004E06A
:10497A000093008000910080043040F41BE0009115
:10498A000080101B00EC0E94A00A08951AE0009112
:10499A000080101B00EC0E94A00A08950830D1F490
:1049AA0000910080063018F004E000930080009126
:1049BA000080053040F41BE000910080101B00ECE1
:1049CA000E94A00A08951AE000910080101B00ECD2
:1049DA000E94A00A08951091969A101778F001E0A3
:1049EA000093989A01E0009300800091929A1091A6
:1049FA00939A0093949A1093959A0895002331F408
:104A0A0028E831E100EC0E94AB0A27C0013031F4FA
:104A1A0029E931E100EC0E94AB0A1FC0023031F4EF
:104A2A002AEA31E100EC0E94AB0A17C0033031F4E4
:104A3A002BEB31E100EC0E94AB0A0FC0043031F4D9
:104A4A002CEC31E100EC0E94AB0A07C0053029F4D6
:104A5A002DED31E100EC0E94AB0A00E00093919A3F
:104A6A0008950091A49B023049F406EA16E220E078
:104A7A00EAE9FBE90083118322832EC00091A49BFB
:104A8A00013049F406E815E220E0EAE9FBE900838F
:104A9A001183228321C00091A49B063089F40CEF74
:104AAA0018E00E9485860093929A1093939A0EEECC
:104ABA0016E220E0EAE9FBE90083118322830CC0B5
:104ACA000091A49B0E3F41F402E71FE720E0EAE9C8
:104ADA00FBE90083118322830091919A002381F0DC
:104AEA0004EE10E00E948D7F980100E80E94AB0A54
:104AFA0005EF10E00E948D7F980100EC0E94AB0A3E
:104B0A0008950091A49B023049F406E315E220E0DF
:104B1A00EAE9FBE900831183228326C00091A49B62
:104B2A00013049F40EEC15E220E0EAE9FBE90083E2
:104B3A001183228319C00091A49B063049F409EC21
:104B4A0017E220E0EAE9FBE90083118322830CC023
:104B5A000091A49B0E3F41F402E71FE720E0EAE937
:104B6A00FBE90083118322830091919A002381F04B
:104B7A0004EE10E00E948D7F980100E80E94AB0AC3
:104B8A0006E011E00E948D7F980100EC0E94AB0ABA
:104B9A0008950091A49B023049F406E815E220E04A
:104BAA00EAE9FBE900831183228326C00091A49BD2
:104BBA00013049F406E116E220E0EAE9FBE9008364
:104BCA001183228319C00091A49B063049F402E99B
:104BDA0010E320E0EAE9FBE90083118322830CC099
:104BEA000091A49B0E3F41F402E71FE720E0EAE9A7
:104BFA00FBE90083118322830091919A002381F0BB
:104C0A0004EE10E00E948D7F980100E80E94AB0A32
:104C1A0007E111E00E948D7F980100EC0E94AB0A27
:104C2A0008950091A49B023049F40EEC15E220E0AD
:104C3A00EAE9FBE900831183228326C00091A49B41
:104C4A00013049F40EE516E220E0EAE9FBE90083C7
:104C5A001183228319C00091A49B063049F402E50E
:104C6A0018E520E0EAE9FBE90083118322830CC0FE
:104C7A000091A49B0E3F41F402E71FE720E0EAE916
:104C8A00FBE90083118322830091919A002381F02A
:104C9A0004EE10E00E948D7F980100E80E94AB0AA2
:104CAA0009E311E00E948D7F980100EC0E94AB0A93
:104CBA0008950091A49B023049F406E116E220E02F
:104CCA00EAE9FBE900831183228326C00091A49BB1
:104CDA00013049F406EA16E220E0EAE9FBE900833A
:104CEA001183228319C00091A49B063049F40FE373
:104CFA001DE720E0EAE9FBE90083118322830CC067
:104D0A000091A49B0E3F41F402E71FE720E0EAE985
:104D1A00FBE90083118322830091919A002381F099
:104D2A0004EE10E00E948D7F980100E80E94AB0A11
:104D3A000AE411E00E948D7F980100EC0E94AB0A00
:104D4A0008950091A49B023049F40EE516E220E092
:104D5A00EAE9FBE900831183228326C00091A49B20
:104D6A00013049F406E315E220E0EAE9FBE90083B1
:104D7A001183228319C00091A49B063049F409EBE0
:104D8A001EE720E0EAE9FBE90083118322830CC0D5
:104D9A000091A49B0E3F41F402E71FE720E0EAE9F5
:104DAA00FBE90083118322830091919A002381F009
:104DBA0004EE10E00E948D7F980100E80E94AB0A81
:104DCA000BE511E00E948D7F980100EC0E94AB0A6E
:104DDA0008950091A49B053049F406E315E220E00A
:104DEA00EAE9FBE90083118322834CC00091A49B6A
:104DFA00023089F401E019E00E9485860093929AB4
:104E0A001093939A0DE617E220E0EAE9FBE90083A2
:104E1A001183228337C00091A49B013089F40DEFDE
:104E2A0018E00E9485860093929A1093939A0DE651
:104E3A0017E220E0EAE9FBE900831183228322C01A
:104E4A000091A49B0630F1F40CEF18E00E948586CD
:104E5A000093929A1093939A0091929A1091939A2E
:104E6A00012B39F421E030E00CEF18E00E947D8636
:104E7A0006C020E030E00CEF18E00E947D8601E0D9
:104E8A000093919A0091919A002309F10CE611E09E
:104E9A000E948D7F980100E80E94AB0A0CEF18E08F
:104EAA000E9485860093929A1093939A0091929AFF
:104EBA001091939A012B31F02EEE31E100EC0E9411
:104ECA00AB0A089520E032E100EC0E94AB0A089593
:104EDA000091989A0023D1F50091A49B053049F4DA
:104EEA0006E315E220E0EAE9FBE900831183228365
:104EFA0036C00091A49B023049F40EEE16E220E07F
:104F0A00EAE9FBE900831183228329C00091A49B6B
:104F1A00013049F40EEE16E220E0EAE9FBE90083EB
:104F2A00118322831CC00091A49B0630C1F401E0C6
:104F3A000093989A01E0009300800091929A109150
:104F4A00939A0093949A1093959A09C044E02091F9
:104F5A00949A3091959A0DEF18E00E94C71E00911D
:104F6A00919A002381F00DEF18E00E948586009344
:104F7A00929A1093939A21E132E100E80E94AB0AD7
:104F8A000DE30E94E70A08950091A49B053049F4B5
:104F9A0006E815E220E0EAE9FBE9008311832283AF
:104FAA0026C00091A49B063049F401EA18E220E0E9
:104FBA00EAE9FBE900831183228319C00091A49BCB
:104FCA00023049F409E518E220E0EAE9FBE9008346
:104FDA00118322830CC00091A49B013041F401E1AA
:104FEA0018E220E0EAE9FBE90083118322830091B9
:104FFA00919A002381F006E011E00E948D7F9801CA
:10500A0000E80E94AB0A02ED11E00E948D7F980130
:10501A0000EC0E94AB0A08950091A49B053049F464
:10502A0006E815E220E0EAE9FBE90083118322831E
:10503A0026C00091A49B063049F40FE91CE220E047
:10504A00EAE9FBE900831183228319C00091A49B3A
:10505A00023049F409EC17E220E0EAE9FBE90083AF
:10506A00118322830CC00091A49B013041F409E50D
:10507A0018E220E0EAE9FBE9008311832283009128
:10508A00919A002381F006E011E00E948D7F980139
:10509A0000E80E94AB0A03EE11E00E948D7F98019E
:1050AA0000EC0E94AB0A08950091A49B053049F4D4
:1050BA0006E815E220E0EAE9FBE90083118322838E
:1050CA0026C00091A49B063049F40CE51EE220E0BC
:1050DA00EAE9FBE900831183228319C00091A49BAA
:1050EA00023049F401E118E220E0EAE9FBE9008331
:1050FA00118322830CC00091A49B013041F409EC76
:10510A0017E220E0EAE9FBE9008311832283009198
:10511A00919A002381F006E011E00E948D7F9801A8
:10512A0000E80E94AB0A04EF11E00E948D7F98010B
:10513A0000EC0E94AB0A08950091A49B053049F443
:10514A0009EC17E220E0EAE9FBE9008311832283F4
:10515A0019C00091A49B023049F406E51CE220E044
:10516A00EAE9FBE90083118322830CC00091A49B26
:10517A00013041F40AEE18E220E0EAE9FBE9008393
:10518A00118322830091AC9B002339F006E019E0D9
:10519A000E947A8901E00093919A0091919A0023E2
:1051AA0099F006E019E00E9485860093929A10937E
:1051BA00939A05E012E00E948D7F980100E80E9410
:1051CA00AB0A06E20E94E70A08950091A49B053003
:1051DA0049F409EC17E220E0EAE9FBE900831183CC
:1051EA00228319C00091A49B023049F401EA18E213
:1051FA0020E0EAE9FBE90083118322830CC00091D5
:10520A00A49B013041F403E319E220E0EAE9FBE957
:10521A000083118322830091AC9B002339F007E0BD
:10522A0019E00E947A8901E00093919A0091919A7B
:10523A00002399F007E019E00E9485860093929A6C
:10524A001093939A06E112E00E948D7F980100E87C
:10525A000E94AB0A0CE30E94E70A08950091A49BFE
:10526A00053049F409EC17E220E0EAE9FBE900839A
:10527A001183228319C00091A49B023049F40AEEDB
:10528A0018E220E0EAE9FBE90083118322830CC0DB
:10529A000091A49B013041F40CE719E220E0EAE90D
:1052AA00FBE90083118322830091AC9B002339F030
:1052BA0008E019E00E947A8901E00093919A00912E
:1052CA00919A002399F008E019E00E9485860093DC
:1052DA00929A1093939A07E212E00E948D7F9801A6
:1052EA0000E80E94AB0A06E20E94E70A08950091CC
:1052FA00A49B053049F409EC17E220E0EAE9FBE94E
:10530A0000831183228319C00091A49B023049F4BF
:10531A0003E319E220E0EAE9FBE90083118322832F
:10532A000CC00091A49B013041F405EC19E220E085
:10533A00EAE9FBE90083118322830091AC9B0023F5
:10534A0039F009E019E00E947A8901E00093919A04
:10535A000091919A002399F009E019E00E9485864C
:10536A000093929A1093939A08E312E00E948D7F19
:10537A00980100E80E94AB0A0CE30E94E70A08952C
:10538A000091A49B053049F409EC17E220E0EAE910
:10539A00FBE900831183228319C00091A49B023088
:1053AA0049F40CE719E220E0EAE9FBE900831183FA
:1053BA0022830CC00091A49B013041F40EE01AE252
:1053CA0020E0EAE9FBE90083118322830091AC9B88
:1053DA00002339F00AE019E00E947A8901E000937B
:1053EA00919A0091919A002399F00AE019E00E949B
:1053FA0085860093929A1093939A09E412E00E9488
:10540A008D7F980100E80E94AB0A0CE30E94E70A2C
:10541A0008950091A49B053049F409EC17E220E0B5
:10542A00EAE9FBE900831183228319C00091A49B56
:10543A00023049F405EC19E220E0EAE9FBE90083CD
:10544A00118322830CC00091A49B013041F407E52B
:10545A001AE220E0EAE9FBE9008311832283009142
:10546A00AC9B002339F00BE019E00E947A8901E035
:10547A000093919A0091919A002399F00BE019E018
:10548A000E9485860093929A1093939A0AE512E0F5
:10549A000E948D7F980100E80E94AB0A0CE30E94EB
:1054AA00E70A08950091A49B053049F409EC17E234
:1054BA0020E0EAE9FBE900831183228319C0009105
:1054CA00A49B023049F40EE01AE220E0EAE9FBE983
:1054DA000083118322830CC00091A49B013041F404
:1054EA0000EA1AE220E0EAE9FBE900831183228359
:1054FA000091AC9B002339F00CE019E00E947A89F4
:10550A0001E00093919A0091919A002399F00CE09E
:10551A0019E00E9485860093929A1093939A0BE65B
:10552A0012E00E948D7F980100E80E94AB0A0CE30A
:10553A000E94E70A08950091A49B053049F409ECFA
:10554A0017E220E0EAE9FBE900831183228319C00C
:10555A000091A49B023049F407E51AE220E0EAE947
:10556A00FBE90083118322830CC00091A49B0130C4
:10557A0041F409EE1AE220E0EAE9FBE9008311832B
:10558A0022830091AC9B002339F00DE019E00E94C0
:10559A007A8901E00093919A0091919A002399F0F7
:1055AA000DE019E00E9485860093929A1093939ACF
:1055BA000CE712E00E948D7F980100E80E94AB0A76
:1055CA000DE30E94E70A08950091A49B053049F46F
:1055DA0009EC17E220E0EAE9FBE900831183228360
:1055EA0019C00091A49B023049F400EA1AE220E0B3
:1055FA00EAE9FBE90083118322830CC00091A49B92
:10560A00013041F402E31BE220E0EAE9FBE900830E
:10561A00118322830091AC9B002339F00EE019E03C
:10562A000E947A8901E00093919A0091919A00234D
:10563A0099F00EE019E00E9485860093929A1093E1
:10564A00939A0DE812E00E948D7F980100E80E946B
:10565A00AB0A05E00E94E70A08950091A49B053071
:10566A0049F409EC17E220E0EAE9FBE90083118337
:10567A00228319C00091A49B023049F409EE1AE270
:10568A0020E0EAE9FBE90083118322830CC0009140
:10569A00A49B013041F40BE71BE220E0EAE9FBE9B5
:1056AA000083118322830091AC9B002339F00FE021
:1056BA0019E00E947A8901E00093919A0091919AE7
:1056CA00002399F00FE019E00E9485860093929AD0
:1056DA001093939A0EE912E00E948D7F980100E8D8
:1056EA000E94AB0A05E00E94E70A08950091A49B74
:1056FA00053049F409EC17E220E0EAE9FBE9008306
:10570A001183228319C00091A49B023049F402E359
:10571A001BE220E0EAE9FBE90083118322830CC043
:10572A000091A49B013041F404EC1BE220E0EAE979
:10573A00FBE90083118322830091AC9B002339F09B
:10574A0000E119E00E947A8901E00093919A0091A0
:10575A00919A002399F000E119E00E94858600934E
:10576A00929A1093939A0FEA12E00E948D7F980101
:10577A0000E80E94AB0A0CE30E94E70A0895009130
:10578A00A49B053049F409EC17E220E0EAE9FBE9B9
:10579A0000831183228319C00091A49B023049F42B
:1057AA000BE71BE220E0EAE9FBE90083118322838D
:1057BA000CC00091A49B013041F40DE01CE220E0F2
:1057CA00EAE9FBE90083118322830091AC9B002361
:1057DA0039F001E119E00E947A8901E00093919A77
:1057EA000091919A002399F001E119E00E948586BF
:1057FA000093929A1093939A00EC12E00E948D7F84
:10580A00980100E80E94AB0A0CE30E94E70A089597
:10581A000091A49B053049F409EC17E220E0EAE97B
:10582A00FBE900831183228319C00091A49B0230F3
:10583A0049F404EC1BE220E0EAE9FBE90083118366
:10584A0022830CC00091A49B013041F406E51CE2BE
:10585A0020E0EAE9FBE90083118322830091AC9BF3
:10586A00002339F002E119E00E947A8901E00093ED
:10587A00919A0091919A002399F002E119E00E940D
:10588A0085860093929A1093939A01ED12E00E94F2
:10589A008D7F980100E80E94AB0A0CE30E94E70A98
:1058AA0008950091A49B053049F409EC17E220E021
:1058BA00EAE9FBE900831183228319C00091A49BC2
:1058CA00023049F40DE01CE220E0EAE9FBE900833A
:1058DA00118322830CC00091A49B013041F401EA98
:1058EA0018E220E0EAE9FBE90083118322830091B0
:1058FA00AC9B002339F003E119E00E947A8901E0A8
:10590A000093919A0091919A002399F003E119E08A
:10591A000E9485860093929A1093939A02EE12E05F
:10592A000E948D7F980100E80E94AB0A0AE10E945A
:10593A00E70A08950091A49B053049F401E118E2B1
:10594A0020E0EAE9FBE900831183228319C0009170
:10595A00A49B023049F409EF1DE220E0EAE9FBE9E1
:10596A000083118322830CC00091A49B013041F46F
:10597A0009EE1CE220E0EAE9FBE9008311832283B5
:10598A000091919A0023F9F004E219E00E948586B9
:10599A000093929A1093939A03EF12E00E948D7FDC
:1059AA00980100E80E94AB0A04E219E00E94858689
:1059BA001A930A9302E212E10E94A37F22969801A7
:1059CA0000EC0E94AB0A08950091A49B053049F4AB
:1059DA0001E118E220E0EAE9FBE90083118322836E
:1059EA0019C00091A49B023049F40FE91CE220E09F
:1059FA00EAE9FBE90083118322830CC00091A49B8E
:105A0A00013041F403E31DE220E0EAE9FBE9008307
:105A1A00118322830091919A0023F9F005E219E09B
:105A2A000E9485860093929A1093939A04E013E059
:105A3A000E948D7F980100E80E94AB0A05E219E0F6
:105A4A000E9485861A930A930EE212E10E94A37FAE
:105A5A002296980100EC0E94AB0A08950091A49B3B
:105A6A00053049F401E118E220E0EAE9FBE90083A4
:105A7A001183228319C00091A49B023049F409EED4
:105A8A001CE220E0EAE9FBE90083118322830CC0CF
:105A9A000091A49B013041F406E91DE220E0EAE905
:105AAA00FBE90083118322830091AC9B002339F028
:105ABA0006E219E00E947A8901E00093919A009126
:105ACA00919A002369F106E219E00E948586009303
