:020000020000FC
:100000000C948009189518951895189518951895B9
:100010001895189518951895189518951895189578
:100020001895189518951895189518951895189568
:100030001895189518951895189518951895189558
:10004000189518950C94C1891895189518951895B8
:100050001895189518951895189518951895189538
:10006000189518950C948E8A189518950C94FD8DFA
:100070001895189518951895189518951895189518
:100080001895189518951895189518951895189508
:1000900018951895189518951895189518951895F8
:1000A00018951895189518951895189518951895E8
:1000B00018951895189518951895189518951895D8
:1000C00018951895189518951895189518951895C8
:1000D00018951895189518951895189518951895B8
:1000E000189518952020204D61696E20204D656E71
:1000F00075202020004D30204F7065726174696F4B
:100100006E20202020004D31204472697665204DFC
:100110006F6E69746F72004D3220506172616D654F
:1001200074657245646974004D33204175746F20A5
:1001300054756E696E672020004D34204661756CE1
:1001400074205265636F726420004D3520496E69DA
:100150007469616C697A65202020004D36205061F9
:100160007373776F72642020202020005B305D2045
:100170004C6F63616C2F52656D6F7465005B315D10
:10018000204469725F4368616E67652020005B32BE
:100190005D205370656564205365745F5074005B27
:1001A000335D2046726571205365745F5074200082
:1001B0005B345D20546F727175655F5365742020E8
:1001C000005B355D20504944205365745F507420B6
:1001D00020202030204F7065726174696F6E20207E
:1001E0002020002031205465726D696E616C2049B9
:1001F0004F202000203220447269766520496E66C7
:100200006F726D200030205664635F496E707574A4
:1002100020566F6C74003120496E7075745F4443D2
:100220002043757272200032204F757470757420EF
:1002300020566F6C74202000332041205068617379
:10024000652043757272202000342042205068617E
:10025000736520437572722020003520432050685A
:1002600061736520437572722020003620437572D9
:1002700072205265666572656E636500372056644C
:1002800063204572726F72202020202000382049A0
:100290006E70757420506F776572202020003920B1
:1002A0004F757470757420506F776572202000311F
:1002B00030204964635F4572726F725F4120200095
:1002C0003131204964635F4572726F725F42202052
:1002D000003132204964635F4572726F725F432060
:1002E000200031332054656D7065726174757265DC
:1002F00020200020302044495B382E2E2E2E2E2E1A
:10030000315D2000203120444F5B332E315D2020B1
:1003100020202020003220416E616C6F6720496EE2
:100320007075743120003320416E616C6F67204915
:100330006E7075743220003420416E616C6F6720DE
:100340004F757470757420003020444320746F2002
:100350004443202020202020003120436F6E7472FF
:100360006F6C204D6574686F6400322052554E2FBB
:1003700053544F502053726320200033205265663F
:10038000204D6574686F6420202020003420447262
:1003900069766520506F77657220202000352044F3
:1003A0007269766520566F6C74616765200036202F
:1003B00044657669636520496E666F2020200037AA
:1003C00020536F6674776172652056657220200035
:1003D00020302050726F6772616D204374726C2000
:1003E0000031204374726C2053657475705B4D311D
:1003F0005D0032204374726C2053657475705B4DE0
:10040000325D0033205265662053657475705B4D14
:10041000315D200034205265662053657475705B31
:100420004D325D200020352050726F746563746911
:100430006F6E20202000203620416E616C6F672097
:10044000496E707574200020372050494420436F56
:100450006E74726F6C202000382044696769746183
:100460006C20496E70757420003920204D756C74B5
:1004700069537465705B4D315D003130204D756C92
:100480007469537465705B4D325D00313120416E8B
:10049000616C6F67204F7574707574003132204441
:1004A00069676974616C4F757470757400313320BD
:1004B0004D6F746F72204272616B65202000313481
:1004C000204175746F2054756E696E67202000316D
:1004D0003520562F46204374726C5B4D315D2000F1
:1004E000313620562F46204374726C5B4D325D20AE
:1004F00000313720534C20566563746F725B4D3169
:100500005D00313820534C20566563746F725B4D2B
:10051000325D0020313920566563746F725B4D3156
:100520005D20200020323020566563746F725B4D71
:10053000325D202000203231204D3120436F6E7318
:1005400074616E742000203232204D3220436F6E71
:100550007374616E742000323320436F6D6D2043DD
:100560006F6E74726F6C20003234204D6F6E697440
:100570006F722053657475700032392044432F44E4
:100580004320504152414D20200050332E30205204
:10059000554E2F53544F502020200050332E3120E1
:1005A00052616D705F496E707574200050332E3249
:1005B0002053544F50204465746563740050332EAB
:1005C000332053544F50204D6F646520200050332A
:1005D0002E342053746F70486F6C645F546D0050FC
:1005E000332E35204F75745F4F66665F546D200063
:1005F00050332E36204F75745F4F66665F526566C6
:100600000050332E37204163632F4465635F456E8E
:10061000200050332E3820416363546D5F52616E69
:1006200067650050332E3920416363537720312DA5
:100630003220200050332E31302041636353772025
:10064000322D33200050332E3131204163635377F4
:1006500020332D34200050332E3132204163635338
:100660007720342D35200050332E31332041636301
:10067000537720352D36200050332E3134204163FE
:1006800063537720362D37200050332E31352041EB
:100690006363537720372D38200050332E313620B6
:1006A0004163635F546D20492E310050332E313742
:1006B000204163635F546D20492E320050332E3148
:1006C00038204163635F546D20492E330050332E30
:1006D0003139204163635F546D20492E340050331B
:1006E0002E3230204163635F546D20492E35005017
:1006F000332E3231204163635F546D20492E360022
:1007000050332E3232204163635F546D20492E37BF
:100710000050332E3233204163635F546D20492EE5
:10072000380050332E3234204163635F546D2049CA
:1007300049200050332E323520446563546D5F529A
:100740006E67200050332E32362044656353772085
:10075000312D32200050332E3237204465635377D9
:1007600020322D33200050332E323820446563531D
:100770007720332D34200050332E323920446563E6
:10078000537720342D35200050332E3330204465EC
:1007900063537720352D36200050332E33312044DB
:1007A0006563537720362D37200050332E333220A7
:1007B000446563537720372D38200050332E333370
:1007C000204465635F546D20492E310050332E3331
:1007D00034204465635F546D20492E320050332E1F
:1007E0003335204465635F546D20492E3300503308
:1007F0002E3336204465635F546D20492E340050FB
:10080000332E3337204465635F546D20492E350005
:1008100050332E3338204465635F546D20492E36A3
:100820000050332E3339204465635F546D20492EC8
:10083000370050332E3430204465635F546D2049B7
:100840002E380050332E3431204465635F546D20C0
:100850004949200050332E343220435F446563659C
:100860006C5F456E0050332E343320435F44656324
:10087000656C5F546D0050332E343420532D437516
:100880007276655F456E0050332E343520532D430C
:1008900072764163635F530050332E343620532DFC
:1008A0004372764163635F450050332E34372053E3
:1008B0002D4372764465635F530050332E343820E5
:1008C000532D4372764465635F450050332E3439AF
:1008D0002045535F4D6F64652020200050332E3536
:1008E000302045535F44656354696D650050332E75
:1008F000353120434F4E54494E555F4F50005033D1
:100900002E3532205265765F4449525F456E005065
:10091000382E302052554E2F53544F502020200057
:1009200050382E312044492E332046756E632E20D8
:100930000050382E322044492E342046756E632EE6
:10094000200050382E332044492E352046756E63E2
:100950002E200050382E342044492E362046756E05
:10096000632E200050382E352044492E37204675FE
:100970006E632E200050382E362044492E382046F3
:10098000756E632E200050382E372044492E3920B2
:1009900046756E632E200050382E382044492E3183
:1009A000302046756E632E0050382E392044492E73
:1009B00031312046756E632E0050382E3130204480
:1009C000492E31322046756E630050382E31312069
:1009D00044492E31332046756E630050382E313233
:1009E0002044492E31342046756E630050382E3134
:1009F000332044492E31352046756E630050382E21
:100A000031342044492E31362046756E630050380B
:100A10002E3135204D2E432E20426C616E6B0050DE
:100A2000382E3136205265665F55502F444E2000D7
:100A300050382E313720466C795F53544152542040
:100A40000050382E31382052554E5F44656C617924
:100A5000200050382E313920496E6368696E675F17
:100A6000546D005031312E3020414F31204F75747C
:100A7000707574005031312E3120414F312054793E
:100A800070652020005031312E3220414F3120300E
:100A90005F41646A20005031312E3320414F3120B4
:100AA000345F41646A20005031312E3420414F318F
:100AB0002032305F41646A005031312E3520414F81
:100AC00031205363616C6520005031312E36204156
:100AD0004F3120496E762E2020005031322E3020AA
:100AE000444F2E312046756E6320005031322E3136
:100AF00020444F2E322046756E6320005031322E36
:100B00003220444F2E332046756E63200050313220
:100B10002E3320444F2E342046756E632000503112
:100B2000322E3420444F2E352046756E63200050FF
:100B300031322E3520444F2E362046756E6320000C
:100B40005031322E3620444F2E372046756E6320AA
:100B5000005031322E3720444F2E382046756E63B8
:100B600020005032332E3020446561645F54696D3B
:100B70006520005032332E31204C696E5F52617413
:100B8000696F20005032332E3220565F53656E73EA
:100B90005F53636C005032332E3320495F536361DF
:100BA0006C655F4120005032332E3420495F53631F
:100BB000616C655F4220005032332E3520495F530F
:100BC00063616C655F4320005032332E3620495FED
:100BD0004F6666735F413120005032332E37204913
:100BE0005F4F6666735F423120005032332E3820EB
:100BF000495F4F6666735F433120005032332E39B0
:100C000020495F4F6666735F413220005032332EB9
:100C1000313020495F4F6666735F42320050323395
:100C20002E313120495F4F6666735F433200503288
:100C3000392E302050574D5F46726571202000508C
:100C400032392E31205664635F4F757453657400DA
:100C50005032392E32205274645F496E566F6C7474
:100C6000005032392E33205274645F4F75745077C0
:100C700072005032392E342052656163746F7252A3
:100C80006573005032392E352052656163746F727E
:100C9000496E64005032392E3620562053656E73EB
:100CA00054696D65005032392E3720564320502D3F
:100CB0004761696E20005032392E38205643204952
:100CC0002D4761696E20005032392E392043432070
:100CD000502D4761696E20005032392E313020434B
:100CE0004320492D4761696E005032392E31312041
:100CF000564379636C65436E74005032392E31323D
:100D000020496E70757420436170005032392E3165
:100D100033204F7574707574436170005032392EF2
:100D200031342056432046726571202000503239FC
:100D30002E31352043432046726571202000503209
:100D4000392E3136204F7574204F5653657400503C
:100D500032392E3137204F75742055565365740043
:100D60005032392E313820496E204F562D5365743C
:100D7000005032392E313920496E2055562D536599
:100D800074005032392E323020496E5274644375EB
:100D90007272005032392E3231204F432053657425
:100DA00056616C005032392E3232204D78436F6ECE
:100DB00074437572005032392E3233204F4C2D431C
:100DC000757256616C005032392E3234204F4C20EF
:100DD00054696D652020005032392E3235204F562F
:100DE0002054696D652020005032392E3236204F54
:100DF000542D53657456616C0020202030205265BC
:100E0000636F726428302920200020202031205276
:100E100065636F7264283129202000202020322051
:100E20005265636F7264283229202000202020330D
:100E3000205265636F72642833292020002020200F
:100E400034205265636F72642834292020002020EA
:100E50002035205265636F726428352920200020D8
:100E6000202036205265636F7264283629202000C6
:100E700020202037205265636F7264283729202094
:100E80000020202038205265636F726428382920A2
:100E90002000000000000000000000000000000032
:100EA0000000005B25642E315D4661756C74204343
:100EB0006F646520005B25642E325D4D6F746F7228
:100EC0002053656C2020005B25642E335D437472D3
:100ED0006C204D7468642020005B25642E345D53C3
:100EE0007065656420434D442020005B25642E35E9
:100EF0005D4D6F746F72205370642020005B256419
:100F00002E365D4672657175656E63792020005BD3
:100F100025642E375D54656D702020202020202010
:100F2000005B25642E385D4163746C20546F7271D0
:100F30007565005B25642E395D4443204C696E6BFA
:100F400020562020005B25642E31305D4D6F746F7C
:100F5000722043757272005B25642E31315D4D6FD6
:100F6000746F7220566F6C74005B305D436C72203E
:100F70004661756C744C697374202020205B315D70
:100F800053797374656D2052657365742000000099
:100F9000005B325D506172616D6574657220202066
:100FA000200000000052657365742D3E5B456E7431
:100FB00065725D2000000000002020436F6D706CA2
:100FC0006574652E2E2E20202000000000496E69D9
:100FD0007469616C697A696E672E2E2E00000000BC
:100FE00000455252205B5761726E696E675D00006A
:100FF00000000000005731332044726976652043B9
:10100000616C2E0000000000005B305D4163636591
:1010100073733D4C2564202020200000005B315D6F
:1010200041646D697373696F6E2020202000000099
:10103000005B325D507764204368616E67652020F5
:1010400020000000002020456E7465723A2025645F
:101050002564256425642020202020436F6D706C5A
:101060006574652E2E2E20202000000000202050C8
:10107000617373776F72645B4C25645D20200000A0
:10108000002041646D69747465642E5B4C25645D59
:1010900020000000004E65772050617373776F72F7
:0910A000645B4C25645D00000056
:1010AA00000100AA5F0010005A5F005F5F00645FE2
:1010BA0000695F006E5F00735F00785F007D5F000C
:1010CA00825F00875F008C5F00915F00965F009BE4
:1010DA005F00A05F00A55F000001007263001000BE
:1010EA002263002763002C63003163003663003BF0
:1010FA0063004063004563004A63004F6300546322
:10110A00005963005E63006363006863006D6300F7
:10111A000001004967001000F96600FE66000367D7
:10112A00000867000D67001267001767001C670058
:10113A002167002667002B67003067003567003A91
:10114A0067003F6700446700000100206B00100041
:10115A00D06A00D56A00DA6A00DF6A00E46A00E948
:10116A006A00EE6A00F36A00F86A00FD6A00026B20
:10117A0000076B000C6B00116B00166B001B6B00F9
:10118A00000100E86E001000986E009D6E00A26ECD
:10119A0000A76E00AC6E00B16E00B66E00BB6E00AA
:1011AA00C06E00C56E00CA6E00CF6E00D46E00D944
:1011BA006E00DE6E00E36E00000100B072001000E7
:1011CA006072006572006A72006F72007472007950
:1011DA0072007E72008372008872008D72009272B1
:1011EA00009772009C7200A17200A67200AB720096
:1011FA0000010078760010002876002D76003276FD
:10120A00003776003C76004176004676004B760041
:10121A005076005576005A76005F7600647600694B
:10122A0076006E7600737600000100407A001000A6
:10123A00F07900F57900FA7900FF7900047A00095B
:10124A007A000E7A00137A00187A001D7A00227A40
:10125A0000277A002C7A00317A00367A003B7A002D
:10126A00000100087E001000B87D00BD7D00C27D2F
:10127A0000C77D00CC7D00D17D00D67D00DB7D00DE
:10128A00E07D00E57D00EA7D00EF7D00F47D00F958
:10129A007D00FE7D00037E00FEBA011F88001D88C6
:1012AA0000451B8800800D880040198800200F889F
:1012BA0000101788000811880004158800020B889E
:1012CA000001138800FBFEFF015F88005D88008033
:1012DA004F8800405B880020518800105988000818
:1012EA0053880004578800024D880001558800FB86
:1012FA0000008895FECF0CE8009374000BE20DBF46
:10130A0008E00EBFC0E0D7E00E94328E002311F041
:10131A000E94448E0E94D3890E947D090C947D0903
:10132A00149F102D059F100D049F002D110D089577
:10133A0000241124EFE0001F111F001C111C0416C9
:10134A00150610F0041A150AEA95AAF7001F111FCC
:10135A00A001009510950895519541955040089522
:10136A00FF27552312F4F160F7DF112312F4F095E9
:10137A0007D00E949D09F0FD03D0F1FDEDCF08953D
:10138A0011950195104008954A952AF036952795AA
:10139A0017950795F9CF0895002411241001E0E26A
:1013AA00EA9592F0001F111F221F331F001C111C07
:1013BA00221C331C041615062606370688F3041A5F
:1013CA00150A260A370AECCF001F111F221F331FE6
:1013DA00A001B10100951095209530950895779157
:1013EA00679157914791179011FA27903790079074
:1013FA000CBE0895F7DF041B10E003C0F2DF041BE4
:10140A00150B20E030E005C0EADF041B150B260BA4
:10141A00370B28F110FC25C047910790E00FF11F08
:10142A000417100540E024073407C8F486F412FEB6
:10143A0005C0E00FF11F0791069002C00691002433
:10144A00F101E01BF0090CB700400CBF1994E00F42
:10145A00F11FE00FF11F2790379007900CBEF101A2
:10146A00199411F4C6F7E3CF319612FC31960EF0B7
:10147A00329650E060E070E047914B3F48F079F3D4
:10148A004F3F29F04E3F11F077916791579147915D
:10149A00041B150B260B370B29F308F3E5CFFA9239
:1014AA00EA92DA92CA92BA92AA929A928A927A9212
:1014BA006A925A924A92BA93AA939A938A930895ED
:1014CA00FF84EE84DD84CC84BB84AA8499848884D6
:1014DA007F806E805D804C80BB81AA8199818881E2
:1014EA00F0E0EC0FFD1FEF0108951BB110741BB95A
:1014FA00009302010BB1007400620BB90F920F90B6
:10150A000BB100740BB902E30E94118E08951BB14E
:10151A00107410611BB9009302010BB100740063CF
:10152A000BB90F920F900BB1007400610BB902E373
:10153A000E94118E0895012BD8DF0FE0D6DF08959F
:10154A000CE0D3DF0FEF009300800895BA93AA93BB
:10155A00D901CBDF03C00C91DADF11960C9100237D
:10156A00D1F7A991B991089508E3BFDF0CE0BDDF77
:10157A0006E0BBDF01E0B9DF02E010E00E941D8E49
:10158A000895002311F05E9A08955E9808950DE17A
:10159A0019E220E0ECE9FBE900831183228300E0F1
:1015AA0000939A9A00E00093008000E010E0009314
:1015BA00949A1093959A00E010E00093929A1093EF
:1015CA00939A0895002349F500919A9A002391F479
:1015DA000091929A1091939A1A930A930CE218E046
:1015EA000E94A0832296980100EC0E94AB0A0E94F6
:1015FA00A50A08950091949A1091959A1A930A93BC
:10160A000CE218E00E94A0832296980100EC0E9446
:10161A00AB0A01E00E94F2270895013009F079C06F
:10162A0000919A9A0023D1F50091929A1091939A77
:10163A00012B31F42DE338E000EC0E94AB0A2BC0F9
:10164A000091929A1091939A013020E0120731F496
:10165A002EE438E000EC0E94AB0A1DC00091929A79
:10166A001091939A023020E0120731F42FE538E006
:10167A0000EC0E94AB0A0FC00091929A1091939AC3
:10168A001A930A9300E718E00E94A0832296980111
:10169A0000EC0E94AB0A0E94A50A08950091949A50
:1016AA001091959A012B31F42DE338E000EC0E9459
:1016BA00AB0A2BC00091949A1091959A013020E0C0
:1016CA00120731F42EE438E000EC0E94AB0A1DC088
:1016DA000091949A1091959A023020E0120731F401
:1016EA002FE538E000EC0E94AB0A0FC00091949AF3
:1016FA001091959A1A930A9300E718E00E94A08322
:10170A002296980100EC0E94AB0A04E00E94F2279C
:10171A000895023009F05DC000919A9A002361F59C
:10172A000091929A1091939A012B31F421E838E0B2
:10173A0000EC0E94AB0A1DC00091929A1091939AF4
:10174A00013020E0120731F422E938E000EC0E946F
:10175A00AB0A0FC00091929A1091939A1A930A9326
:10176A0000E718E00E94A0832296980100EC0E94EC
:10177A00AB0A0E94A50A08950091949A1091959A2D
:10178A00012B31F421E838E000EC0E94AB0A1DC0BD
:10179A000091949A1091959A013020E0120731F441
:1017AA0022E938E000EC0E94AB0A0FC00091949A3B
:1017BA001091959A1A930A9300E718E00E94A08361
:1017CA002296980100EC0E94AB0A04E00E94F227DC
:1017DA000895033009F05DC000919A9A002361F5DB
:1017EA000091929A1091939A012B31F423EA38E0EE
:1017FA0000EC0E94AB0A1DC00091929A1091939A34
:10180A00013020E0120731F424EB38E000EC0E94AA
:10181A00AB0A0FC00091929A1091939A1A930A9365
:10182A0000E718E00E94A0832296980100EC0E942B
:10183A00AB0A0E94A50A08950091949A1091959A6C
:10184A00012B31F423EA38E000EC0E94AB0A1DC0F8
:10185A000091949A1091959A013020E0120731F480
:10186A0024EB38E000EC0E94AB0A0FC00091949A76
:10187A001091959A1A930A9300E718E00E94A083A0
:10188A002296980100EC0E94AB0A04E00E94F2271B
:10189A000895043009F05DC000919A9A002361F519
:1018AA000091929A1091939A012B31F425EC38E029
:1018BA0000EC0E94AB0A1DC00091929A1091939A73
:1018CA00013020E0120731F426ED38E000EC0E94E6
:1018DA00AB0A0FC00091929A1091939A1A930A93A5
:1018EA0000E718E00E94A0832296980100EC0E946B
:1018FA00AB0A0E94A50A08950091949A1091959AAC
:10190A00012B31F427EE38E000EC0E94AB0A1DC02F
:10191A000091949A1091959A013020E0120731F4BF
:10192A0028EF38E000EC0E94AB0A0FC00091949AAD
:10193A001091959A1A930A9300E718E00E94A083DF
:10194A002296980100EC0E94AB0A04E00E94F2275A
:10195A000895053009F045C000919A9A002301F5CF
:10196A004AE050E00091929A1091939A0E949D0940
:10197A005A934A934AE050E00091929A1091939AAE
:10198A000E94B5091A930A9309E019E00E94A083FC
:10199A002496980100EC0E94AB0A0E94A50A0895B9
:1019AA004AE050E00091949A1091959A0E949D09FC
:1019BA005A934A934AE050E00091949A1091959A6A
:1019CA000E94B5091A930A9309E019E00E94A083BC
:1019DA002496980100EC0E94AB0A06E00E94F227C6
:1019EA000895063009F045C000919A9A002301F53E
:1019FA004AE050E00091929A1091939A0E949D09B0
:101A0A005A934A934AE050E00091929A1091939A1D
:101A1A000E94B5091A930A930FE119E00E94A08364
:101A2A002496980100EC0E94AB0A0E94A50A089528
:101A3A004AE050E00091949A1091959A0E949D096B
:101A4A005A934A934AE050E00091949A1091959AD9
:101A5A000E94B5091A930A930FE119E00E94A08324
:101A6A002496980100EC0E94AB0A06E00E94F22735
:101A7A000895073009F045C000919A9A002301F5AC
:101A8A004AE050E00091929A1091939A0E949D091F
:101A9A005A934A934AE050E00091929A1091939A8D
:101AAA000E94B5091A930A9305E319E00E94A083DC
:101ABA002496980100EC0E94AB0A0E94A50A089598
:101ACA004AE050E00091949A1091959A0E949D09DB
:101ADA005A934A934AE050E00091949A1091959A49
:101AEA000E94B5091A930A9305E319E00E94A0839C
:101AFA002496980100EC0E94AB0A06E00E94F227A5
:101B0A000895083009F045C000919A9A002301F51A
:101B1A004AE050E00091929A1091939A0E949D098E
:101B2A005A934A934AE050E00091929A1091939AFC
:101B3A000E94B5091A930A930BE419E00E94A08344
:101B4A002496980100EC0E94AB0A0E94A50A089507
:101B5A004AE050E00091949A1091959A0E949D094A
:101B6A005A934A934AE050E00091949A1091959AB8
:101B7A000E94B5091A930A930BE419E00E94A08304
:101B8A002496980100EC0E94AB0A06E00E94F22714
:101B9A000895093049F500919A9A002391F4009129
:101BAA00929A1091939A1A930A9301E619E00E9465
:101BBA00A0832296980100EC0E94AB0A0E94A50A13
:101BCA0008950091949A1091959A1A930A9301E6AE
:101BDA0019E00E94A0832296980100EC0E94AB0AA9
:101BEA0001E00E94F22708950A3049F500919A9A75
:101BFA00002391F40091929A1091939A1A930A935E
:101C0A0001E719E00E94A0832296980100EC0E9445
:101C1A00AB0A0E94A50A08950091949A1091959A88
:101C2A001A930A9301E719E00E94A0832296980169
:101C3A0000EC0E94AB0A01E00E94F22708950B30E3
:101C4A0009F096C000919A9A002309F048C00091C1
:101C5A00929A1091939A012B31F422E839E000EC20
:101C6A000E94AB0A39C00091929A1091939A01305E
:101C7A0020E0120731F423E939E000EC0E94AB0AB4
:101C8A002BC00091929A1091939A023020E0120789
:101C9A0031F424EA39E000EC0E94AB0A1DC000913D
:101CAA00929A1091939A033020E0120731F425EBAF
:101CBA0039E000EC0E94AB0A0FC00091929A109191
:101CCA00939A1A930A9300E718E00E94A083229637
:101CDA00980100EC0E94AB0A0E94A50A089500919F
:101CEA00949A1091959A012B31F422E839E000EC8C
:101CFA000E94AB0A39C00091949A1091959A0130CA
:101D0A0020E0120731F423E939E000EC0E94AB0A23
:101D1A002BC00091949A1091959A023020E01207F4
:101D2A0031F424EA39E000EC0E94AB0A1DC00091AC
:101D3A00949A1091959A033020E0120731F425EB1A
:101D4A0039E000EC0E94AB0A0FC00091949A1091FE
:101D5A00959A1A930A9300E718E00E94A0832296A4
:101D6A00980100EC0E94AB0A04E00E94F227089551
:101D7A000C3009F045C000919A9A002301F54AE017
:101D8A0050E00091929A1091939A0E949D095A9359
:101D9A004A934AE050E00091929A1091939A0E94D5
:101DAA00B5091A930A9306EC19E00E94A0832496B7
:101DBA00980100EC0E94AB0A0E94A50A08954AE025
:101DCA0050E00091949A1091959A0E949D095A9315
:101DDA004A934AE050E00091949A1091959A0E9491
:101DEA00B5091A930A9306EC19E00E94A083249677
:101DFA00980100EC0E94AB0A06E00E94F2270895BF
:101E0A000D3009F0B2C000919A9A002309F056C029
:101E1A000091929A1091939A012B31F42CED39E0AA
:101E2A0000EC0E94AB0A47C00091929A1091939AD3
:101E3A00013020E0120731F42DEE39E000EC0E9467
:101E4A00AB0A39C00091929A1091939A023020E01D
:101E5A00120731F42EEF39E000EC0E94AB0A2BC0D6
:101E6A000091929A1091939A033020E0120731F46C
:101E7A002FE03AE000EC0E94AB0A1DC00091929A52
:101E8A001091939A043020E0120731F420E23AE0EC
:101E9A0000EC0E94AB0A0FC00091929A1091939A9B
:101EAA001A930A9300E718E00E94A08322969801E9
:101EBA0000EC0E94AB0A0E94A50A08950091949A28
:101ECA001091959A012B31F42CED39E000EC0E9427
:101EDA00AB0A47C00091949A1091959A013020E07C
:101EEA00120731F42DEE39E000EC0E94AB0A39C03A
:101EFA000091949A1091959A023020E0120731F4D9
:101F0A002EEF39E000EC0E94AB0A2BC00091949AA4
:101F1A001091959A033020E0120731F42FE03AE04D
:101F2A0000EC0E94AB0A1DC00091949A1091959AF8
:101F3A00043020E0120731F420E23AE000EC0E947B
:101F4A00AB0A0FC00091949A1091959A1A930A932A
:101F5A0000E718E00E94A0832296980100EC0E94F4
:101F6A00AB0A04E00E94F22708950E3009F045C03A
:101F7A0000919A9A002301F54AE050E00091929A62
:101F8A001091939A0E949D095A934A934AE050E00D
:101F9A000091929A1091939A0E94B5091A930A9302
:101FAA0001E31AE00E94A0832496980100EC0E94A3
:101FBA00AB0A0E94A50A08954AE050E00091949A5B
:101FCA001091959A0E949D095A934A934AE050E0CB
:101FDA000091949A1091959A0E94B5091A930A93BE
:101FEA0001E31AE00E94A0832496980100EC0E9463
:101FFA00AB0A06E00E94F22708950F3009F079C073
:10200A0000919A9A0023D1F50091929A1091939A8D
:10201A00012B31F427E43AE000EC0E94AB0A2BC012
:10202A000091929A1091939A013020E0120731F4AC
:10203A0028E53AE000EC0E94AB0A1DC00091929A92
:10204A001091939A023020E0120731F429E63AE01F
:10205A0000EC0E94AB0A0FC00091929A1091939AD9
:10206A001A930A9300E718E00E94A0832296980127
:10207A0000EC0E94AB0A0E94A50A08950091949A66
:10208A001091959A012B31F427E43AE000EC0E9472
:10209A00AB0A2BC00091949A1091959A013020E0D6
:1020AA00120731F428E53AE000EC0E94AB0A1DC0A1
:1020BA000091949A1091959A023020E0120731F417
:1020CA0029E63AE000EC0E94AB0A0FC00091949A0C
:1020DA001091959A1A930A9300E718E00E94A08338
:1020EA002296980100EC0E94AB0A04E00E94F227B3
:1020FA000895003109F045C000919A9A002301F52C
:10210A004AE050E00091929A1091939A0E949D0998
:10211A005A934A934AE050E00091929A1091939A06
:10212A000E94B5091A930A930AE71AE00E94A0834B
:10213A002496980100EC0E94AB0A0E94A50A089511
:10214A004AE050E00091949A1091959A0E949D0954
:10215A005A934A934AE050E00091949A1091959AC2
:10216A000E94B5091A930A9300E91AE00E94A08313
:10217A002496980100EC0E94AB0A06E00E94F2271E
:10218A000895013109F05DC000919A9A002361F522
:10219A000091929A1091939A012B31F425EA3AE030
:1021AA0000EC0E94AB0A1DC00091929A1091939A7A
:1021BA00013020E0120731F426EB3AE000EC0E94ED
:1021CA00AB0A0FC00091929A1091939A1A930A93AC
:1021DA0000E718E00E94A0832296980100EC0E9472
:1021EA00AB0A0E94A50A08950091949A1091959AB3
:1021FA00012B31F425EA3AE000EC0E94AB0A1DC03B
:10220A000091949A1091959A013020E0120731F4C6
:10221A0026EB3AE000EC0E94AB0A0FC00091949AB8
:10222A001091959A1A930A9300E718E00E94A083E6
:10223A002296980100EC0E94AB0A04E00E94F22761
:10224A000895023109F05DC000919A9A002361F560
:10225A000091929A1091939A012B31F427EC3AE06B
:10226A0000EC0E94AB0A1DC00091929A1091939AB9
:10227A00013020E0120731F428ED3AE000EC0E9428
:10228A00AB0A0FC00091929A1091939A1A930A93EB
:10229A0000E718E00E94A0832296980100EC0E94B1
:1022AA00AB0A0E94A50A08950091949A1091959AF2
:1022BA00012B31F427EC3AE000EC0E94AB0A1DC076
:1022CA000091949A1091959A013020E0120731F406
:1022DA0028ED3AE000EC0E94AB0A0FC00091949AF4
:1022EA001091959A1A930A9300E718E00E94A08326
:1022FA002296980100EC0E94AB0A04E00E94F227A1
:10230A000895033149F500919A9A002391F40091B6
:10231A00929A1091939A1A930A9309EE1AE00E94DC
:10232A00A0832296980100EC0E94AB0A0E94A50A9B
:10233A0008950091949A1091959A1A930A9308EF26
:10234A001AE00E94A0832296980100EC0E94AB0A30
:10235A0001E00E94F2270895043149F500919A9A02
:10236A00002391F40091929A1091939A1A930A93E6
:10237A0008E01BE00E94A0832296980100EC0E94CC
:10238A00AB0A0E94A50A08950091949A1091959A11
:10239A001A930A9308E01BE00E94A08322969801F0
:1023AA0000EC0E94AB0A01E00E94F2270895053171
:1023BA0049F500919A9A002391F40091929A10910A
:1023CA00939A1A930A9309E11BE00E94A08322962A
:1023DA00980100EC0E94AB0A0E94A50A0895009198
:1023EA00949A1091959A1A930A9309E11BE00E9414
:1023FA00A0832296980100EC0E94AB0A01E00E9499
:10240A00F2270895063109F096C000919A9A00239E
:10241A0009F048C00091929A1091939A012B31F4D5
:10242A002AE23BE000EC0E94AB0A39C00091929A82
:10243A001091939A013020E0120731F42BE33BE02C
:10244A0000EC0E94AB0A2BC00091929A1091939AC9
:10245A00023020E0120731F42CE43BE000EC0E9449
:10246A00AB0A1DC00091929A1091939A033020E012
:10247A00120731F42DE53BE000EC0E94AB0A0FC0D5
:10248A000091929A1091939A1A930A9300E718E08E
:10249A000E94A0832296980100EC0E94AB0A0E9437
:1024AA00A50A08950091949A1091959A012B31F4F6
:1024BA002AE23BE000EC0E94AB0A39C00091949AF0
:1024CA001091959A013020E0120731F42BE33BE09A
:1024DA0000EC0E94AB0A2BC00091949A1091959A35
:1024EA00023020E0120731F42CE43BE000EC0E94B9
:1024FA00AB0A1DC00091949A1091959A033020E07E
:10250A00120731F42DE53BE000EC0E94AB0A0FC044
:10251A000091949A1091959A1A930A9300E718E0F9
:10252A000E94A0832296980100EC0E94AB0A04E064
:10253A000E94F2270895073109F045C000919A9A3E
:10254A00002301F54AE050E00091929A1091939A83
:10255A000E949D095A934A934AE050E00091929A48
:10256A001091939A0E94B5091A930A930EE61BE0FA
:10257A000E94A0832496980100EC0E94AB0A0E9454
:10258A00A50A08954AE050E00091949A1091959A0C
:10259A000E949D095A934A934AE050E00091949A06
:1025AA001091959A0E94B5091A930A930EE61BE0B8
:1025BA000E94A0832496980100EC0E94AB0A06E0D0
:1025CA000E94F2270895083109F079C000919A9A79
:1025DA000023D1F50091929A1091939A012B31F42C
:1025EA0025EA3AE000EC0E94AB0A2BC00091929ACD
:1025FA001091939A013020E0120731F424E83BE06D
:10260A0000EC0E94AB0A1DC00091929A1091939A15
:10261A00023020E0120731F425E93BE000EC0E9489
:10262A00AB0A0FC00091929A1091939A1A930A9347
:10263A0000E718E00E94A0832296980100EC0E940D
:10264A00AB0A0E94A50A08950091949A1091959A4E
:10265A00012B31F425EA3AE000EC0E94AB0A2BC0C8
:10266A000091949A1091959A013020E0120731F462
:10267A0024E83BE000EC0E94AB0A1DC00091949A4A
:10268A001091959A023020E0120731F425E93BE0D7
:10269A0000EC0E94AB0A0FC00091949A1091959A8F
:1026AA001A930A9300E718E00E94A08322969801E1
:1026BA0000EC0E94AB0A04E00E94F2270895093157
:1026CA0009F096C000919A9A002309F048C0009137
:1026DA00929A1091939A012B31F42AE23BE000EC92
:1026EA000E94AB0A39C00091929A1091939A0130D4
:1026FA0020E0120731F42BE33BE000EC0E94AB0A26
:10270A002BC00091929A1091939A023020E01207FE
:10271A0031F426EA3BE000EC0E94AB0A1DC00091AE
:10272A00929A1091939A033020E0120731F42DE522
:10273A003BE000EC0E94AB0A0FC00091929A109104
:10274A00939A1A930A9300E718E00E94A0832296AC
:10275A00980100EC0E94AB0A0E94A50A0895009114
:10276A00949A1091959A012B31F42AE23BE000ECFD
:10277A000E94AB0A39C00091949A1091959A01303F
:10278A0020E0120731F42BE33BE000EC0E94AB0A95
:10279A002BC00091949A1091959A023020E012076A
:1027AA0031F426EA3BE000EC0E94AB0A1DC000911E
:1027BA00949A1091959A033020E0120731F42DE58E
:1027CA003BE000EC0E94AB0A0FC00091949A109172
:1027DA00959A1A930A9300E718E00E94A08322961A
:1027EA00980100EC0E94AB0A04E00E94F2270895C7
:1027FA000A3109F045C000919A9A002301F54AE08E
:10280A0050E00091929A1091939A0E949D095A93CE
:10281A004A934AE050E00091929A1091939A0E944A
:10282A00B5091A930A9307EB1BE00E94A08324962A
:10283A00980100EC0E94AB0A0E94A50A08954AE09A
:10284A0050E00091949A1091959A0E949D095A938A
:10285A004A934AE050E00091949A1091959A0E9406
:10286A00B5091A930A930CEC1BE00E94A0832496E4
:10287A00980100EC0E94AB0A06E00E94F227089534
:10288A000B3109F079C000919A9A0023D1F5009191
:10289A00929A1091939A012B31F425EA3AE000ECCE
:1028AA000E94AB0A2BC00091929A1091939A013020
:1028BA0020E0120731F422EE3BE000EC0E94AB0A62
:1028CA001DC00091929A1091939A023020E012074B
:1028DA0031F423EF3BE000EC0E94AB0A0FC00091F9
:1028EA00929A1091939A1A930A9300E718E00E9419
:1028FA00A0832296980100EC0E94AB0A0E94A50AC6
:10290A0008950091949A1091959A012B31F425EA31
:10291A003AE000EC0E94AB0A2BC00091949A109105
:10292A00959A013020E0120731F422EE3BE000ECE8
:10293A000E94AB0A1DC00091949A1091959A023098
:10294A0020E0120731F423EF3BE000EC0E94AB0ACF
:10295A000FC00091949A1091959A1A930A9300E7DE
:10296A0018E00E94A0832296980100EC0E94AB0A0C
:10297A0004E00E94F22708950C3109F05DC000912D
:10298A009A9A002361F50091929A1091939A012BD9
:10299A0031F425EA3AE000EC0E94AB0A1DC000912E
:1029AA00929A1091939A013020E0120731F424E0B0
:1029BA003CE000EC0E94AB0A0FC00091929A109181
:1029CA00939A1A930A9300E718E00E94A08322962A
:1029DA00980100EC0E94AB0A0E94A50A0895009192
:1029EA00949A1091959A012B31F425EA3AE000EC79
:1029FA000E94AB0A1DC00091949A1091959A0130D9
:102A0A0020E0120731F424E03CE000EC0E94AB0A1B
:102A1A000FC00091949A1091959A1A930A9300E71D
:102A2A0018E00E94A0832296980100EC0E94AB0A4B
:102A3A0004E00E94F22708950D3109F096C0009132
:102A4A009A9A002309F048C00091929A1091939A99
:102A5A00012B31F425E13CE000EC0E94AB0A39C0BD
:102A6A000091929A1091939A013020E0120731F462
:102A7A0028E23CE000EC0E94AB0A2BC00091929A3B
:102A8A001091939A023020E0120731F42BE33CE0D4
:102A9A0000EC0E94AB0A1DC00091929A1091939A81
:102AAA00033020E0120731F42EE43CE000EC0E94EF
:102ABA00AB0A0FC00091929A1091939A1A930A93B3
:102ACA0000E718E00E94A0832296980100EC0E9479
:102ADA00AB0A0E94A50A08950091949A1091959ABA
:102AEA00012B31F425E13CE000EC0E94AB0A39C02D
:102AFA000091949A1091959A013020E0120731F4CE
:102B0A0028E23CE000EC0E94AB0A2BC00091949AA8
:102B1A001091959A023020E0120731F42BE33CE041
:102B2A0000EC0E94AB0A1DC00091949A1091959AEC
:102B3A00033020E0120731F42EE43CE000EC0E945E
:102B4A00AB0A0FC00091949A1091959A1A930A931E
:102B5A0000E718E00E94A0832296980100EC0E94E8
:102B6A00AB0A04E00E94F22708950E3109F045C02D
:102B7A0000919A9A002301F54AE050E00091929A56
:102B8A001091939A0E949D095A934A934AE050E001
:102B9A000091929A1091939A0E94B5091A930A93F6
:102BAA0001E61CE00E94A0832496980100EC0E9492
:102BBA00AB0A0E94A50A08954AE050E00091949A4F
:102BCA001091959A0E949D095A934A934AE050E0BF
:102BDA000091949A1091959A0E94B5091A930A93B2
:102BEA0001E61CE00E94A0832496980100EC0E9452
:102BFA00AB0A06E00E94F22708950F3109F045C09A
:102C0A0000919A9A002301F54AE050E00091929AC5
:102C1A001091939A0E949D095A934A934AE050E070
:102C2A000091929A1091939A0E94B5091A930A9365
:102C3A0007E71CE00E94A0832496980100EC0E94FA
:102C4A00AB0A0E94A50A08954AE050E00091949ABE
:102C5A001091959A0E949D095A934A934AE050E02E
:102C6A000091949A1091959A0E94B5091A930A9321
:102C7A0007E71CE00E94A0832496980100EC0E94BA
:102C8A00AB0A06E00E94F2270895003249F5009146
:102C9A009A9A002391F40091929A1091939A1A9316
:102CAA000A930DE81CE00E94A0832296980100EC8A
:102CBA000E94AB0A0E94A50A08950091949A109165
:102CCA00959A1A930A930DE81CE00E94A083229613
:102CDA00980100EC0E94AB0A01E00E94F2270895D5
:102CEA00013209F045C000919A9A002301F54AE0A1
:102CFA0050E00091929A1091939A0E949D095A93DA
:102D0A004A934AE050E00091929A1091939A0E9455
:102D1A00B5091A930A930DE91CE00E94A083249630
:102D2A00980100EC0E94AB0A0E94A50A08954AE0A5
:102D3A0050E00091949A1091959A0E949D095A9395
:102D4A004A934AE050E00091949A1091959A0E9411
:102D5A00B5091A930A930DE91CE00E94A0832496F0
:102D6A00980100EC0E94AB0A06E00E94F22708953F
:102D7A00023209F045C000919A9A002301F54AE00F
:102D8A0050E00091929A1091939A0E949D095A9349
:102D9A004A934AE050E00091929A1091939A0E94C5
:102DAA00B5091A930A9303EB1CE00E94A0832496A8
:102DBA00980100EC0E94AB0A0E94A50A08954AE015
:102DCA0050E00091949A1091959A0E949D095A9305
:102DDA004A934AE050E00091949A1091959A0E9481
:102DEA00B5091A930A9303EB1CE00E94A083249668
:102DFA00980100EC0E94AB0A06E00E94F2270895AF
:102E0A00033209F096C000919A9A002309F048C04B
:102E1A000091929A1091939A012B31F425EA3AE0A3
:102E2A0000EC0E94AB0A39C00091929A1091939AD1
:102E3A00013020E0120731F429EC3CE000EC0E945A
:102E4A00AB0A2BC00091929A1091939A023020E01B
:102E5A00120731F42AED3CE000EC0E94AB0A1DC0D7
:102E6A000091929A1091939A033020E0120731F45C
:102E7A002BEE3CE000EC0E94AB0A0FC00091929A44
:102E8A001091939A1A930A9300E718E00E94A0837C
:102E9A002296980100EC0E94AB0A0E94A50A0895A6
:102EAA000091949A1091959A012B31F425EA3AE00F
:102EBA0000EC0E94AB0A39C00091949A1091959A3D
:102ECA00013020E0120731F429EC3CE000EC0E94CA
:102EDA00AB0A2BC00091949A1091959A023020E087
:102EEA00120731F42AED3CE000EC0E94AB0A1DC047
:102EFA000091949A1091959A033020E0120731F4C8
:102F0A002BEE3CE000EC0E94AB0A0FC00091949AB1
:102F1A001091959A1A930A9300E718E00E94A083E9
:102F2A002296980100EC0E94AB0A04E00E94F22764
:102F3A000895043209F096C000919A9A002309F084
:102F4A0048C00091929A1091939A012B31F42CEF78
:102F5A003CE000EC0E94AB0A39C00091929A1091B1
:102F6A00939A013020E0120731F42DE03DE000ECA5
:102F7A000E94AB0A2BC00091929A1091939A023048
:102F8A0020E0120731F42EE13DE000EC0E94AB0A8A
:102F9A001DC00091929A1091939A033020E0120773
:102FAA0031F42FE23DE000EC0E94AB0A0FC0009121
:102FBA00929A1091939A1A930A9300E718E00E9442
:102FCA00A0832296980100EC0E94AB0A0E94A50AEF
:102FDA0008950091949A1091959A012B31F42CEF4F
:102FEA003CE000EC0E94AB0A39C00091949A10911F
:102FFA00959A013020E0120731F42DE03DE000EC13
:10300A000E94AB0A2BC00091949A1091959A0230B3
:10301A0020E0120731F42EE13DE000EC0E94AB0AF9
:10302A001DC00091949A1091959A033020E01207DE
:10303A0031F42FE23DE000EC0E94AB0A0FC0009190
:10304A00949A1091959A1A930A9300E718E00E94AD
:10305A00A0832296980100EC0E94AB0A04E00E9429
:10306A00F2270895053209F079C000919A9A00234F
:10307A00D1F50091929A1091939A012B31F420E4A0
:10308A003DE000EC0E94AB0A2BC00091929A10918D
:10309A00939A013020E0120731F421E53DE000EC7B
:1030AA000E94AB0A1DC00091929A1091939A023025
:1030BA0020E0120731F422E63DE000EC0E94AB0A60
:1030CA000FC00091929A1091939A1A930A9300E76B
:1030DA0018E00E94A0832296980100EC0E94AB0A95
:1030EA000E94A50A08950091949A1091959A012B2D
:1030FA0031F420E43DE000EC0E94AB0A2BC00091C1
:10310A00949A1091959A013020E0120731F421E542
:10311A003DE000EC0E94AB0A1DC00091949A109108
:10312A00959A023020E0120731F422E63DE000ECE5
:10313A000E94AB0A0FC00091949A1091959A1A9323
:10314A000A9300E718E00E94A0832296980100ECF7
:10315A000E94AB0A04E00E94F2270895063249F55C
:10316A0000919A9A002391F40091929A1091939A5D
:10317A001A930A9303E71DE00E94A08322969801FE
:10318A0000EC0E94AB0A0E94A50A08950091949A45
:10319A001091959A1A930A9303E71DE00E94A0835F
:1031AA002296980100EC0E94AB0A01E00E94F227E5
:1031BA000895073209F05DC000919A9A002361F5DB
:1031CA000091929A1091939A012B31F424E83DE0F0
:1031DA0000EC0E94AB0A1DC00091929A1091939A3A
:1031EA00013020E0120731F425E93DE000EC0E94AD
:1031FA00AB0A0FC00091929A1091939A1A930A936C
:10320A0000E718E00E94A0832296980100EC0E9431
:10321A00AB0A0E94A50A08950091949A1091959A72
:10322A00012B31F424E83DE000EC0E94AB0A1DC0FA
:10323A000091949A1091959A013020E0120731F486
:10324A0025E93DE000EC0E94AB0A0FC00091949A78
:10325A001091959A1A930A9300E718E00E94A083A6
:10326A002296980100EC0E94AB0A04E00E94F22721
:10327A000895083209F0EAC000919A9A002309F0E9
:10328A0072C00091929A1091939A012B31F426EA16
:10329A003DE000EC0E94AB0A63C00091929A109143
:1032AA00939A013020E0120731F427EB3DE000EC5D
:1032BA000E94AB0A55C00091929A1091939A0230DB
:1032CA0020E0120731F428EC3DE000EC0E94AB0A42
:1032DA0047C00091929A1091939A063020E0120703
:1032EA0031F429ED3DE000EC0E94AB0A39C00091AF
:1032FA00929A1091939A093020E0120731F42AEE3B
:10330A003DE000EC0E94AB0A2BC00091929A10910A
:10331A00939A0A3020E0120731F42BEF3DE000ECDB
:10332A000E94AB0A1DC00091929A1091939A0B3099
:10333A0020E0120731F42CE03EE000EC0E94AB0AD8
:10334A000FC00091929A1091939A1A930A9300E7E8
:10335A0018E00E94A0832296980100EC0E94AB0A12
:10336A000E94A50A08950091949A1091959A012BAA
:10337A0031F426EA3DE000EC0E94AB0A63C00091FA
:10338A00949A1091959A013020E0120731F427EBB4
:10339A003DE000EC0E94AB0A55C00091949A10914E
:1033AA00959A023020E0120731F428EC3DE000EC57
:1033BA000E94AB0A47C00091949A1091959A0630E0
:1033CA0020E0120731F429ED3DE000EC0E94AB0A3F
:1033DA0039C00091949A1091959A093020E0120709
:1033EA0031F42AEE3DE000EC0E94AB0A2BC00091BA
:1033FA00949A1091959A0A3020E0120731F42BEF33
:10340A003DE000EC0E94AB0A1DC00091949A109115
:10341A00959A0B3020E0120731F42CE03EE000ECE4
:10342A000E94AB0A0FC00091949A1091959A1A9330
:10343A000A9300E718E00E94A0832296980100EC04
:10344A000E94AB0A04E00E94F2270895093209F0AB
:10345A005DC000919A9A002361F50091929A1091A9
:10346A00939A012B31F42DE13EE000EC0E94AB0A65
:10347A001DC00091929A1091939A013020E0120790
:10348A0031F42EE23EE000EC0E94AB0A0FC000913C
:10349A00929A1091939A1A930A9300E718E00E945D
:1034AA00A0832296980100EC0E94AB0A0E94A50A0A
:1034BA0008950091949A1091959A012B31F42DE177
:1034CA003EE000EC0E94AB0A1DC00091949A109154
:1034DA00959A013020E0120731F42EE23EE000EC2A
:1034EA000E94AB0A0FC00091949A1091959A1A9370
:1034FA000A9300E718E00E94A0832296980100EC44
:10350A000E94AB0A04E00E94F22708950A3209F0E9
:10351A005DC000919A9A002361F50091929A1091E8
:10352A00939A012B31F42FE33EE000EC0E94AB0AA0
:10353A001DC00091929A1091939A013020E01207CF
:10354A0031F420E53EE000EC0E94AB0A0FC0009186
:10355A00929A1091939A1A930A9300E718E00E949C
:10356A00A0832296980100EC0E94AB0A0E94A50A49
:10357A0008950091949A1091959A012B31F42FE3B2
:10358A003EE000EC0E94AB0A1DC00091949A109193
:10359A00959A013020E0120731F420E53EE000EC74
:1035AA000E94AB0A0FC00091949A1091959A1A93AF
:1035BA000A9300E718E00E94A0832296980100EC83
:1035CA000E94AB0A04E00E94F22708950B3209F028
:1035DA005AC100919A9A002309F0AAC00091929ABE
:1035EA001091939A012B31F421E63EE000EC0E94FF
:1035FA00AB0A9BC00091929A1091939A013020E0F5
:10360A00120731F422E73EE000EC0E94AB0A8DC0BB
:10361A000091929A1091939A023020E0120731F4A5
:10362A0023E83EE000EC0E94AB0A7FC00091929A28
:10363A001091939A033020E0120731F424E93EE016
:10364A0000EC0E94AB0A71C00091929A1091939A71
:10365A00043020E0120731F425EA3EE000EC0E9433
:10366A00AB0A63C00091929A1091939A053020E0B8
:10367A00120731F426EB3EE000EC0E94AB0A55C07B
:10368A000091929A1091939A063020E0120731F431
:10369A0027EC3EE000EC0E94AB0A47C00091929AE8
:1036AA001091939A073020E0120731F428ED3EE09A
:1036BA0000EC0E94AB0A39C00091929A1091939A39
:1036CA00083020E0120731F429EE3EE000EC0E94B7
:1036DA00AB0A2BC00091929A1091939A093020E07C
:1036EA00120731F42AEF3EE000EC0E94AB0A1DC03B
:1036FA000091929A1091939A0A3020E0120731F4BD
:10370A002BE03FE000EC0E94AB0A0FC00091929AB6
:10371A001091939A1A930A9300E718E00E94A083E3
:10372A002296980100EC0E94AB0A0E94A50A08950D
:10373A000091949A1091959A012B31F421E63EE07A
:10374A0000EC0E94AB0A9BC00091949A1091959A42
:10375A00013020E0120731F422E73EE000EC0E943B
:10376A00AB0A8DC00091949A1091959A023020E08C
:10377A00120731F42CE13FE000EC0E94AB0A7FC053
:10378A000091949A1091959A033020E0120731F42F
:10379A0024E93EE000EC0E94AB0A71C00091949AC1
:1037AA001091959A043020E0120731F425EA3EE0A0
:1037BA0000EC0E94AB0A63C00091949A1091959A0A
:1037CA00053020E0120731F426EB3EE000EC0E94BF
:1037DA00AB0A55C00091949A1091959A063020E050
:1037EA00120731F427EC3EE000EC0E94AB0A47C016
:1037FA000091949A1091959A073020E0120731F4BB
:10380A0028ED3EE000EC0E94AB0A39C00091949A80
:10381A001091959A083020E0120731F429EE3EE023
:10382A0000EC0E94AB0A2BC00091949A1091959AD1
:10383A00093020E0120731F42AEF3EE000EC0E9442
:10384A00AB0A1DC00091949A1091959A0A3020E013
:10385A00120731F42BE03FE000EC0E94AB0A0FC0E4
:10386A000091949A1091959A1A930A9300E718E096
:10387A000E94A0832296980100EC0E94AB0A04E001
:10388A000E94F22708950C3209F045C000919A9AD5
:10389A00002301F540E157E20091929A1091939A20
:1038AA000E94B5095A934A9340E157E20091929ACD
:1038BA001091939A0E94B5091A930A930DE21FE098
:1038CA000E94A0832496980100EC0E94AB0A0E94F1
:1038DA00A50A089540E157E20091949A1091959AA9
:1038EA000E94B5095A934A9340E157E20091949A8B
:1038FA001091959A0E94B5091A930A930DE21FE056
:10390A000E94A0832496980100EC0E94AB0A08E06A
:10391A000E94F22708950D3209F006C100919A9A81
:10392A00002309F080C00091929A1091939A012B7A
:10393A0031F421E43FE000EC0E94AB0A71C000912F
:10394A00929A1091939A013020E0120731F422E5FD
:10395A003FE000EC0E94AB0A63C00091929A10917A
:10396A00939A023020E0120731F423E63FE000EC9C
:10397A000E94AB0A55C00091929A1091939A033013
:10398A0020E0120731F424E73FE000EC0E94AB0A82
:10399A0047C00091929A1091939A053020E012073D
:1039AA0031F425E83FE000EC0E94AB0A39C00091EF
:1039BA00929A1091939A063020E0120731F426E980
:1039CA003FE000EC0E94AB0A2BC00091929A109142
:1039DA00939A093020E0120731F427EA3FE000EC1D
:1039EA000E94AB0A1DC00091929A1091939A0A30D4
:1039FA0020E0120731F428EB3FE000EC0E94AB0A0A
:103A0A000FC00091929A1091939A1A930A9300E721
:103A1A0018E00E94A0832296980100EC0E94AB0A4B
:103A2A000E94A50A08950091949A1091959A012BE3
:103A3A0031F421E43FE000EC0E94AB0A71C000912E
:103A4A00949A1091959A013020E0120731F422E5F8
:103A5A003FE000EC0E94AB0A63C00091949A109177
:103A6A00959A023020E0120731F423E63FE000EC99
:103A7A000E94AB0A55C00091949A1091959A03300E
:103A8A0020E0120731F424E73FE000EC0E94AB0A81
:103A9A0047C00091949A1091959A053020E0120738
:103AAA0031F425E83FE000EC0E94AB0A39C00091EE
:103ABA00949A1091959A063020E0120731F426E97B
:103ACA003FE000EC0E94AB0A2BC00091949A10913F
:103ADA00959A093020E0120731F427EA3FE000EC1A
:103AEA000E94AB0A1DC00091949A1091959A0A30CF
:103AFA0020E0120731F428EB3FE000EC0E94AB0A09
:103B0A000FC00091949A1091959A1A930A9300E71C
:103B1A0018E00E94A0832296980100EC0E94AB0A4A
:103B2A0004E00E94F22708950E3209F045C0009180
:103B3A009A9A002301F54AE050E00091929A109176
:103B4A00939A0E949D095A934A934AE050E0009141
:103B5A00929A1091939A0E94B5091A930A9309ECC2
:103B6A001FE00E94A0832496980100EC0E94AB0AF1
:103B7A000E94A50A08954AE050E00091949A109193
:103B8A00959A0E949D095A934A934AE050E00091FF
:103B9A00949A1091959A0E94B5091A930A9309EC7E
:103BAA001FE00E94A0832496980100EC0E94AB0AB1
:103BBA0006E00E94F22708950F3209F05DC00091D5
:103BCA009A9A002361F50091929A1091939A012B87
:103BDA0031F42FED3FE000EC0E94AB0A1DC00091CA
:103BEA00929A1091939A013020E0120731F420EF53
:103BFA003FE000EC0E94AB0A0FC00091929A10912C
:103C0A00939A1A930A9300E718E00E94A0832296D7
:103C1A00980100EC0E94AB0A0E94A50A089500913F
:103C2A00949A1091959A012B31F42FED3FE000EC14
:103C3A000E94AB0A1DC00091949A1091959A013086
:103C4A0020E0120731F420EF3FE000EC0E94AB0ABB
:103C5A000FC00091949A1091959A1A930A9300E7CB
:103C6A0018E00E94A0832296980100EC0E94AB0AF9
:103C7A0004E00E94F2270895003309F05DC0009124
:103C8A009A9A002361F50091929A1091939A012BC6
:103C9A0031F421E030E100EC0E94AB0A1DC0009132
:103CAA00929A1091939A013020E0120731F422E19E
:103CBA0030E100EC0E94AB0A0FC00091929A109179
:103CCA00939A1A930A9300E718E00E94A083229617
:103CDA00980100EC0E94AB0A0E94A50A089500917F
:103CEA00949A1091959A012B31F421E030E100EC7D
:103CFA000E94AB0A1DC00091949A1091959A0130C6
:103D0A0020E0120731F422E130E100EC0E94AB0A14
:103D1A000FC00091949A1091959A1A930A9300E70A
:103D2A0018E00E94A0832296980100EC0E94AB0A38
:103D3A0004E00E94F2270895013309F096C0009129
:103D4A009A9A002309F048C00091929A1091939A86
:103D5A00012B31F423E230E100EC0E94AB0A39C0B6
:103D6A000091929A1091939A013020E0120731F44F
:103D7A0024E330E100EC0E94AB0A2BC00091929A36
:103D8A001091939A023020E0120731F425E430E1D1
:103D9A0000EC0E94AB0A1DC00091929A1091939A6E
:103DAA00033020E0120731F426E530E100EC0E94EE
:103DBA00AB0A0FC00091929A1091939A1A930A93A0
:103DCA0000E718E00E94A0832296980100EC0E9466
:103DDA00AB0A0E94A50A08950091929A1091939AAB
:103DEA00012B31F423E230E100EC0E94AB0A39C026
:103DFA000091929A1091939A013020E0120731F4BF
:103E0A0024E330E100EC0E94AB0A2BC00091929AA5
:103E1A001091939A023020E0120731F425E430E140
:103E2A0000EC0E94AB0A1DC00091929A1091939ADD
:103E3A00033020E0120731F426E530E100EC0E945D
:103E4A00AB0A0FC00091949A1091959A1A930A930B
:103E5A0000E718E00E94A0832296980100EC0E94D5
:103E6A00AB0A04E00E94F2270895023309F05DC00C
:103E7A0000919A9A002361F50091929A1091939A6F
:103E8A00012B31F427E630E100EC0E94AB0A1DC099
:103E9A000091929A1091939A013020E0120731F41E
:103EAA0028E730E100EC0E94AB0A0FC00091929A19
:103EBA001091939A1A930A9300E718E00E94A0833C
:103ECA002296980100EC0E94AB0A0E94A50A089566
:103EDA000091949A1091959A012B31F427E630E1DA
:103EEA0000EC0E94AB0A1DC00091949A1091959A19
:103EFA00013020E0120731F428E730E100EC0E949B
:103F0A00AB0A0FC00091949A1091959A1A930A934A
:103F1A0000E718E00E94A0832296980100EC0E9414
:103F2A00AB0A04E00E94F2270895033349F5009191
:103F3A009A9A002391F40091929A1091939A1A9363
:103F4A000A9309E810E10E94A0832296980100ECE6
:103F5A000E94AB0A0E94A50A08950091949A1091B2
:103F6A00959A1A930A9309E810E10E94A08322966F
:103F7A00980100EC0E94AB0A01E00E94F227089522
:103F8A00043349F500919A9A002391F40091929A88
:103F9A001091939A1A930A930AE910E10E94A08356
:103FAA002296980100EC0E94AB0A0E94A50A089585
:103FBA000091949A1091959A1A930A930BEA10E138
:103FCA000E94A0832296980100EC0E94AB0A01E0AD
:103FDA000E94F2270895053341F500919A9A002329
:103FEA0091F40091929A1091939A1A930A930BEB77
:103FFA0010E10E94A0832296980100EC0E94AB0A6D
:10400A000E94A50A08950091949A1091959A1A937C
:10401A000A930BEB10E10E94A0832296980100EC10
:10402A000E94AB0A01E0D9D70895063341F5009101
:10403A009A9A002391F40091929A1091939A1A9362
:10404A000A930CEC10E10E94A0832296980100ECDE
:10405A000E94AB0A0E94A50A08950091949A1091B1
:10406A00959A1A930A930CEC10E10E94A083229667
:10407A00980100EC0E94AB0A01E0AFD7089507331C
:10408A0041F500919A9A002391F40091929A109125
:10409A00939A1A930A930DED10E10E94A083229637
:1040AA00980100EC0E94AB0A0E94A50A08950091AB
:1040BA00949A1091959A1A930A930DED10E10E9421
:1040CA00A0832296980100EC0E94AB0A01E085D7F2
:1040DA000895083309F044C000919A9A002301F523
:1040EA004AE050E00091929A1091939A0E949D0999
:1040FA005A934A934AE050E00091929A1091939A07
:10410A000E94B5091A930A930EEE10E10E94A08349
:10411A002496980100EC0E94AB0A0E94A50A089511
:10412A004AE050E00091949A1091959A0E949D0954
:10413A005A934A934AE050E00091949A1091959AC2
:10414A000E94B5091A930A930EEE10E10E94A08309
:10415A002496980100EC0E94AB0A06E03ED7089527
:10416A00093341F500919A9A002391F40091929AA9
:10417A001091939A1A930A9304E011E10E94A08382
:10418A002296980100EC0E94AB0A0E94A50A0895A3
:10419A000091949A1091959A1A930A9304E011E166
:1041AA000E94A0832296980100EC0E94AB0A01E0CB
:1041BA0014D708950A3341F500919A9A002391F48D
:1041CA000091929A1091939A1A930A9305E111E138
:1041DA000E94A0832296980100EC0E94AB0A0E94DA
:1041EA00A50A08950091949A1091959A1A930A93A0
:1041FA0005E111E10E94A0832296980100EC0E9439
:10420A00AB0A01E0EAD608950B3341F500919A9A78
:10421A00002391F40091929A1091939A1A930A9317
:10422A0006E211E10E94A0832296980100EC0E9406
:10423A00AB0A0E94A50A08950091949A1091959A42
:10424A001A930A9306E211E10E94A083229698012A
:10425A0000EC0E94AB0A01E0C0D608950C3341F588
:10426A0000919A9A002391F40091929A1091939A4C
:10427A001A930A9307E311E10E94A08322969801F8
:10428A0000EC0E94AB0A0E94A50A08950091949A34
:10429A001091959A1A930A9307E311E10E94A08359
:1042AA002296980100EC0E94AB0A01E096D6089586
:1042BA000D3341F500919A9A002391F40091929A54
:1042CA001091939A1A930A9308E411E10E94A08329
:1042DA002296980100EC0E94AB0A0E94A50A089552
:1042EA000091949A1091959A1A930A9308E411E10D
:1042FA000E94A0832296980100EC0E94AB0A01E07A
:10430A006CD608950E3309F044C000919A9A00239E
:10431A0001F54AE050E00091929A1091939A0E9416
:10432A009D095A934A934AE050E00091929A10915B
:10433A00939A0E94B5091A930A9309E511E10E941A
:10434A00A0832496980100EC0E94AB0A0E94A50A59
:10435A0008954AE050E00091949A1091959A0E942B
:10436A009D095A934A934AE050E00091949A109119
:10437A00959A0E94B5091A930A9309E511E10E94D8
:10438A00A0832496980100EC0E94AB0A06E025D689
:10439A0008950F3309F044C000919A9A002301F559
:1043AA004AE050E00091929A1091939A0E949D09D6
:1043BA005A934A934AE050E00091929A1091939A44
:1043CA000E94B5091A930A930FE611E10E94A0838D
:1043DA002496980100EC0E94AB0A0E94A50A08954F
:1043EA004AE050E00091949A1091959A0E949D0992
:1043FA005A934A934AE050E00091949A1091959A00
:10440A000E94B5091A930A930FE611E10E94A0834C
:10441A002496980100EC0E94AB0A06E0DED50895C6
:10442A00003409F043C000919A9A002301F548EE3E
:10443A0053E00091929A1091939A0E94B5095A9367
:10444A004A9348EE53E00091929A1091939A0E94EF
:10445A00B5091A930A9304E811E10E94A0832496ED
:10446A00980100EC0E94AB0A0E94A50A089548EE42
:10447A0053E00091949A1091959A0E94B5095A9323
:10448A004A9348EE53E00091949A1091959A0E94AB
:10449A00B5091A930A9304E811E10E94A0832496AD
:1044AA00980100EC0E94AB0A07E097D508959A9309
:1044BA008A932597C9010093969A1093979A413047
:1044CA0009F026C12091A69B263089F49C010E94FE
:1044DA007A8A8093929A9093939A00E000939A9A98
:1044EA0000E00093008001E00093919A6EC500916C
:1044FA00A69B053051F400E000939A9A00E00093DD
:10450A00008001E00093919A60C50091A69B01305A
:10451A0009F06EC04AE050E08C010E949D09488370
:10452A004AE050E08C010E949D094AE050E00E9456
:10453A009D09498344E650E08C010E949D094AE0A6
:10454A0050E00E949D094A8348EE53E08C010E9484
:10455A009D094AE050E00E949D094B8340E157E2E1
:10456A008C010E949D090C83FE010091008010E0DD
:10457A00E00FF11F3197008103950083FE0100913E
:10458A00008010E0E00FF11F319700810A3048F0F7
:10459A0020E0FE010091008010E0E00FF11F31974A
:1045AA0020834C8150E000E117E20E949509C8017E
:1045BA004B8150E008EE13E00E949509800F911F8D
:1045CA004A8150E004E610E00E949509800F911F8D
:1045DA00498150E00AE010E00E949509800F911F7E
:1045EA00088110E0800F911F01E00093919AEDC4B9
:1045FA000091A69B023009F06FC04AE050E08C019E
:10460A000E949D0948834AE050E08C010E949D095E
:10461A004AE050E00E949D09498344E650E08C013B
:10462A000E949D094AE050E00E949D094A8348EE93
:10463A0053E08C010E949D094AE050E00E949D09C6
:10464A004B8340E157E28C010E949D090C83FE01D5
:10465A000091008010E0E00FF11F319700810130D6
:10466A0050F429E0FE010091008010E0E00FF11FF4
:10467A00319720830AC0FE010091008010E0E00F0C
:10468A00F11F319700810A9500834C8150E000E1C7
:10469A0017E20E949509C8014B8150E008EE13E029
:1046AA000E949509800F911F4A8150E004E610E0AC
:1046BA000E949509800F911F498150E00AE010E09D
:1046CA000E949509800F911F088110E0800F911FA9
:1046DA0001E00093919A79C40091A69B033051F4AA
:1046EA0000910080013099F0009100800A950093B2
:1046FA0000806BC40091A69B043049F400910080AD
:10470A00043028F4009100800395009300805DC472
:10471A00423009F041C02091A69B263089F49C01C1
:10472A000E947A8A8093929A9093939A00E00093D7
:10473A009A9A00E00093008001E00093919A45C4A0
:10474A000091A69B053051F400E000939A9A00E08C
:10475A000093008001E00093919A37C40091A69BD0
:10476A00013059F40196863000E0900710F085E098
:10477A0090E001E00093919A28C40091A69B023030
:10478A0051F4082F092B11F0019702C080E090E044
:10479A0001E00093919A19C4433009F041C0209175
:1047AA00A69B263089F49C010E947A8A8093929A69
:1047BA009093939A00E000939A9A00E00093008005
:1047CA0001E00093919A01C40091A69B053051F42F
:1047DA0000E000939A9A00E00093008001E00093C1
:1047EA00919AF3C30091A69B013059F401968E3138
:1047FA0000E0900710F08DE190E001E00093919ABB
:10480A00E4C30091A69B023051F4082F092B11F042
:10481A00019702C080E090E001E00093919AD5C32D
:10482A00443009F05DC220910080213009F04EC069
:10483A002091A69B253051F400E000939A9A00E05B
:10484A000093008001E00093919ABFC32091A69B38
:10485A00213049F48E3F0FE79007BCF5019601E03D
:10486A000093919AB2C32091A69B223049F48030DA
:10487A0000E8900751F1019701E00093919AA5C3CE
:10488A002091A69B243069F400910080043028F41A
:10489A000091008003950093008001E00093919AB3
:1048AA0094C32091A69B263081F49C010E947A8AA7
:1048BA008093929A9093939A00E000939A9A00E0D8
:1048CA000093008001E00093919A7FC320910080B9
:1048DA00223009F081C02091A69B253051F400E0D6
:1048EA0000939A9A00E00093008001E00093919A65
:1048FA006CC32091A69B2130C9F4853F0FE790072E
:10490A0024F40A9601E00093919A873F0FEF9007EB
:10491A0034F0992322F401E00093008056C3082F53
:10492A00092B19F401E0009300804FC32091A69B44
:10493A002230D9F48A3000E8900724F00A9701E07F
:10494A000093919A8A3000E0900744F4813000E0A5
:10495A00900724F001E00093008037C3082F092B49
:10496A00D1F501E00093008030C32091A69B23304B
:10497A0069F400910080013029F0009100800A95C5
:10498A000093008001E00093919A1FC32091A69B97
:10499A00243069F400910080043028F400910080EA
:1049AA0003950093008001E00093919A0EC3209131
:1049BA00A69B263081F49C010E947A8A8093929A5F
:1049CA009093939A00E000939A9A00E000930080F3
:1049DA0001E00093919AF9C220910080233009F0F6
:1049EA0083C02091A69B253051F400E000939A9A47
:1049FA0000E00093008001E00093919AE6C22091C2
:104A0A00A69B2130D1F48B390FE790072CF48C59EF
:104A1A009F4F01E00093919A8D390FEF900734F080
:104A2A00992322F402E000930080CFC2082F092BB9
:104A3A0019F401E000930080C8C22091A69B22309D
:104A4A00E1F4843600E890072CF08456904001E0A7
:104A5A000093919A843600E0900744F4813000E094
:104A6A00900724F002E000930080AFC2082F092BC0
:104A7A00D1F501E000930080A8C22091A69B2330C3
:104A8A0069F400910080013029F0009100800A95B4
:104A9A000093008001E00093919A97C22091A69B0F
:104AAA00243069F400910080043028F400910080D9
:104ABA0003950093008001E00093919A86C22091A9
:104ACA00A69B263081F49C010E947A8A8093929A4E
:104ADA009093939A00E000939A9A00E000930080E2
:104AEA0001E00093919A71C220910080243009F06C
:104AFA0083C02091A69B253051F400E000939A9A36
:104B0A0000E00093008001E00093919A5EC2209138
:104B1A00A69B2130D1F487310CE790072CF48851F9
:104B2A009C4F01E00093919A89310CEF900734F081
:104B3A00992322F403E00093008047C2082F092B2F
:104B4A0019F401E00093008040C22091A69B223014
:104B5A00E1F4883E03E890072CF0885E934001E078
:104B6A000093919A883E03E0900744F4813000E074
:104B7A00900724F003E00093008027C2082F092B36
:104B8A00D1F501E00093008020C22091A69B23303A
:104B9A0069F400910080013029F0009100800A95A3
:104BAA000093008001E00093919A0FC22091A69B86
:104BBA00243069F400910080043028F400910080C8
:104BCA0003950093008001E00093919AFEC1209121
:104BDA00A69B263081F49C010E947A8A8093929A3D
:104BEA009093939A00E000939A9A00E000930080D1
:104BFA0001E00093919AE9C120910080253009F0E3
:104C0A00E4C12091A69B253051F400E000939A9AC2
:104C1A0000E00093008001E00093919AD6C12091B0
:104C2A00A69B2130D1F48F3E08E590072CF4805FD3
:104C3A00984D01E00093919A813F08ED900734F076
:104C4A00992322F404E000930080BFC1082F092BA6
:104C5A0019F401E000930080B8C12091A69B22308C
:104C6A00E1F4803107EA90072CF08051974201E085
:104C7A000093919A803107E2900744F4813000E072
:104C8A00900724F004E0009300809FC1082F092BAD
:104C9A0031F501E00093008098C12091A69B233052
:104CAA0051F4009100800130D1F0009100800A9502
:104CBA00009300808AC12091A69B263081F49C0132
:104CCA000E947A8A8093929A9093939A00E0009332
:104CDA009A9A00E00093008001E00093919A75C1CE
:104CEA00453009F083C02091A69B263089F49C01A7
:104CFA000E947A8A8093929A9093939A00E0009302
:104D0A009A9A00E00093008001E00093919A5DC1B5
:104D1A000091A69B053051F400E000939A9A00E0B6
:104D2A000093008001E00093919A4FC10091A69BE5
:104D3A00013061F5082F092B19F481E090E022C0B7
:104D4A00813000E0900719F486E090E01BC08630BD
:104D5A0000E0900719F489E090E014C0893000E07F
:104D6A00900719F48AE090E00DC08A3000E09007BD
:104D7A0019F48BE090E006C08B3000E0900711F444
:104D8A0080E090E001E00093919A1FC10091A69BF8
:104D9A00023059F5082F092B19F48BE090E022C054
:104DAA00813000E0900719F480E090E01BC0863063
:104DBA0000E0900719F481E090E014C0893000E027
:104DCA00900719F486E090E00DC08A3000E0900761
:104DDA0019F489E090E006C08B3000E0900711F4E6
:104DEA008AE090E001E00093919AEFC0463009F022
:104DFA009FC02091A69B263089F49C010E947A8A42
:104E0A008093929A9093939A00E000939A9A00E082
:104E1A000093008001E00093919AD7C00091A69B6D
:104E2A00053051F400E000939A9A00E00093008064
:104E3A0001E00093919AC9C00091A69B0130D1F577
:104E4A00082F092B19F481E090E030C0813000E08E
:104E5A00900719F482E090E029C0823000E09007C0
:104E6A0019F483E090E022C0833000E0900719F43F
:104E7A0085E090E01BC0853000E0900719F486E0D9
:104E8A0090E014C0863000E0900719F487E090E0C3
:104E9A000DC0893000E0900719F48AE090E006C05E
:104EAA008A3000E0900711F480E090E001E000937E
:104EBA00919A8BC00091A69B0230C9F5082F092B45
:104ECA0019F48AE090E030C0813000E0900719F4CC
:104EDA0080E090E029C0823000E0900719F481E078
:104EEA0090E022C0833000E0900719F482E090E05D
:104EFA001BC0853000E0900719F483E090E014C0ED
:104F0A00863000E0900719F485E090E00DC0893002
:104F1A0000E0900719F486E090E006C08A3000E0CD
:104F2A00900711F489E090E001E00093919A4DC056
:104F3A00473009F04AC02091A69B263089F49C018B
:104F4A000E947A8A8093929A9093939A00E00093AF
:104F5A009A9A00E00093008001E00093919A35C08C
:104F6A000091A69B053051F400E000939A9A00E064
:104F7A000093008001E00093919A27C00091A69BBC
:104F8A00013081F4082F092B19F481E090E006C062
:104F9A00813000E0900711F480E090E001E0009396
:104FAA00919A13C00091A69B023079F4082F092B1D
:104FBA0019F481E090E006C0813000E0900711F416
:104FCA0080E090E001E00093919A8093949A909304
:104FDA00959A2596899199910895002321F5009132
:104FEA00999A002329F419E000EC0E94A00A089576
:104FFA000091999A013029F41AE000EC0E94A00A63
:10500A0008950091999A023029F41BE000EC0E945D
:10501A00A00A08950091999A033021F41CE000EC4B
:10502A000E94A00A0895013041F41BE0009100801B
:10503A00101B00EC0E94A00A08950230D9F40091D6
:10504A000080043018F003E0009300800091008093
:10505A00033040F41BE000910080101B00EC0E941A
:10506A00A00A08951AE000910080101B00EC0E942B
:10507A00A00A08950330D9F400910080033018F093
:10508A0002E00093008000910080023040F41BE0AF
:10509A0000910080101B00EC0E94A00A08951AE0FB
:1050AA0000910080101B00EC0E94A00A08950430B1
:1050BA0029F411E000EC0E94A00A08950530D9F401
:1050CA0000910080043018F003E000930080009102
:1050DA000080023040F41BE000910080101B00ECBD
:1050EA000E94A00A08951AE000910080101B00ECAB
:1050FA000E94A00A08950630D9F400910080053074
:10510A0018F004E00093008000910080023040F41F
:10511A001BE000910080101B00EC0E94A00A089579
:10512A001AE000910080101B00EC0E94A00A08956A
:10513A000730D9F400910080053018F004E000939C
:10514A00008000910080043040F41BE00091008050
:10515A00101B00EC0E94A00A08951AE0009100803A
:10516A00101B00EC0E94A00A08950830D1F40091A7
:10517A000080063018F004E000930080009100805F
:10518A00053040F41BE000910080101B00EC0E94E7
:10519A00A00A08951AE000910080101B00EC0E94FA
:1051AA00A00A08951091989A101778F001E00093D8
:1051BA009A9A01E0009300800091929A1091939A32
:1051CA000093949A1093959A0895002331F429E94B
:1051DA0031E100EC0E94AB0A27C0013031F42AEA1F
:1051EA0031E100EC0E94AB0A1FC0023031F42BEB14
:1051FA0031E100EC0E94AB0A17C0033031F42CEC09
:10520A0031E100EC0E94AB0A0FC0043031F42DEDFD
:10521A0031E100EC0E94AB0A07C0053029F42EEEFA
:10522A0031E100EC0E94AB0A00E00093919A0895E4
:10523A000091A69B023049F40DE81AE220E0ECE95D
:10524A00FBE90083118322832EC00091A69B0130C3
:10525A0049F40DE619E220E0ECE9FBE90083118349
:10526A00228321C00091A69B063089F40CEF18E036
:10527A000E94828A0093929A1093939A05ED1AE2F9
:10528A0020E0ECE9FBE90083118322830CC0009142
:10529A00A69B0E3F41F40FE613E820E0ECE9FBE998
:1052AA000083118322830091919A002381F004EEF6
:1052BA0010E00E948A83980100E80E94AB0A05EF79
:1052CA0010E00E948A83980100EC0E94AB0A0895BC
:1052DA000091A69B023049F40DE119E220E0ECE9C5
:1052EA00FBE900831183228326C00091A69B01302B
:1052FA0049F405EB19E220E0ECE9FBE900831183AC
:10530A00228319C00091A69B063049F400EB1BE2E8
:10531A0020E0ECE9FBE90083118322830CC00091B1
:10532A00A69B0E3F41F40FE613E820E0ECE9FBE907
:10533A000083118322830091919A002381F004EE65
:10534A0010E00E948A83980100E80E94AB0A06E0F6
:10535A0011E00E948A83980100EC0E94AB0A08952A
:10536A000091A69B023049F40DE619E220E0ECE92F
:10537A00FBE900831183228326C00091A69B01309A
:10538A0049F40DEF19E220E0ECE9FBE9008311830F
:10539A00228319C00091A69B063049F40FE814E352
:1053AA0020E0ECE9FBE90083118322830CC0009121
:1053BA00A69B0E3F41F40FE613E820E0ECE9FBE977
:1053CA000083118322830091919A002381F004EED5
:1053DA0010E00E948A83980100E80E94AB0A07E164
:1053EA0011E00E948A83980100EC0E94AB0A08959A
:1053FA000091A69B023049F405EB19E220E0ECE9A2
:10540A00FBE900831183228326C00091A69B013009
:10541A0049F405E41AE220E0ECE9FBE90083118390
:10542A00228319C00091A69B063049F40FE41CE5BB
:10543A0020E0ECE9FBE90083118322830CC0009190
:10544A00A69B0E3F41F40FE613E820E0ECE9FBE9E6
:10545A000083118322830091919A002381F004EE44
:10546A0010E00E948A83980100E80E94AB0A09E3CF
:10547A0011E00E948A83980100EC0E94AB0A089509
:10548A000091A69B023049F40DEF19E220E0ECE905
:10549A00FBE900831183228326C00091A69B013079
:1054AA0049F40DE81AE220E0ECE9FBE900831183F4
:1054BA00228319C00091A69B063049F40CE311E837
:1054CA0020E0ECE9FBE90083118322830CC0009100
:1054DA00A69B0E3F41F40FE613E820E0ECE9FBE956
:1054EA000083118322830091919A002381F004EEB4
:1054FA0010E00E948A83980100E80E94AB0A0AE43D
:10550A0011E00E948A83980100EC0E94AB0A089578
:10551A000091A69B023049F405E41AE220E0ECE986
:10552A00FBE900831183228326C00091A69B0130E8
:10553A0049F40DE119E220E0ECE9FBE9008311836B
:10554A00228319C00091A69B063049F406EB12E8A3
:10555A0020E0ECE9FBE90083118322830CC000916F
:10556A00A69B0E3F41F40FE613E820E0ECE9FBE9C5
:10557A000083118322830091919A002381F004EE23
:10558A0010E00E948A83980100E80E94AB0A0BE5AA
:10559A0011E00E948A83980100EC0E94AB0A0895E8
:1055AA000091A69B053049F40DE119E220E0ECE9EF
:1055BA00FBE90083118322834CC00091A69B023031
:1055CA0089F401E019E00E94828A0093929A10936A
:1055DA00939A04E51BE220E0ECE9FBE900831183DE
:1055EA00228337C00091A69B013089F40DEF18E0A1
:1055FA000E94828A0093929A1093939A04E51BE27E
:10560A0020E0ECE9FBE900831183228322C00091A8
:10561A00A69B0630F1F40CEF18E00E94828A0093F0
:10562A00929A1093939A0091929A1091939A012BBD
:10563A0039F421E030E00CEF18E00E947A8A06C0C3
:10564A0020E030E00CEF18E00E947A8A01E0009333
:10565A00919A0091919A002309F10CE611E00E94B7
:10566A008A83980100E80E94AB0A0CEF18E00E94B6
:10567A00828A0093929A1093939A0091929A109127
:10568A00939A012B31F02FEF31E100EC0E94AB0A23
:10569A00089521E132E100EC0E94AB0A08950091DD
:1056AA009A9A0023D1F50091A69B053049F40DE1A1
:1056BA0019E220E0ECE9FBE900831183228336C07A
:1056CA000091A69B023049F405ED1AE220E0ECE9CC
:1056DA00FBE900831183228329C00091A69B013034
:1056EA0049F405ED1AE220E0ECE9FBE900831183B5
:1056FA0022831CC00091A69B0630C1F401E00093EE
:10570A009A9A01E0009300800091929A1091939ADC
:10571A000093949A1093959A09C044E02091949A20
:10572A003091959A0DEF18E00E945C220091919AAF
:10573A00002381F00DEF18E00E94828A0093929A6A
:10574A001093939A22E232E100E80E94AB0A0DE339
:10575A000E94E70A08950091A69B053049F40DE6D8
:10576A0019E220E0ECE9FBE900831183228326C0D9
:10577A000091A69B063049F408E81CE220E0ECE917
:10578A00FBE900831183228319C00091A69B023092
:10579A0049F400E41CE220E0ECE9FBE90083118310
:1057AA0022830CC00091A69B013041F408EF1BE252
:1057BA0020E0ECE9FBE90083118322830091919AAE
:1057CA00002381F006E011E00E948A83980100E834
:1057DA000E94AB0A02ED11E00E948A83980100EC54
:1057EA000E94AB0A08950091A69B053049F40DE684
:1057FA0019E220E0ECE9FBE900831183228326C049
:10580A000091A69B063049F406E810E320E0ECE993
:10581A00FBE900831183228319C00091A69B023001
:10582A0049F400EB1BE220E0ECE9FBE90083118379
:10583A0022830CC00091A69B013041F400E41CE2D3
:10584A0020E0ECE9FBE90083118322830091919A1D
:10585A00002381F006E011E00E948A83980100E8A3
:10586A000E94AB0A03EE11E00E948A83980100ECC1
:10587A000E94AB0A08950091A69B053049F40DE6F3
:10588A0019E220E0ECE9FBE900831183228326C0B8
:10589A000091A69B063049F409E512E320E0ECE901
:1058AA00FBE900831183228319C00091A69B023071
:1058BA0049F408EF1BE220E0ECE9FBE900831183DD
:1058CA0022830CC00091A69B013041F400EB1BE23D
:1058DA0020E0ECE9FBE90083118322830091919A8D
:1058EA00002381F006E011E00E948A83980100E813
:1058FA000E94AB0A04EF11E00E948A83980100EC2F
:10590A000E94AB0A08950091A69B053049F400EB6A
:10591A001BE220E0ECE9FBE900831183228319C032
:10592A000091A69B023049F40DE310E320E0ECE974
:10593A00FBE90083118322830CC00091A69B0130EE
:10594A0041F401ED1CE220E0ECE9FBE9008311835C
:10595A0022830091AE9B002339F006E019E00E94F1
:10596A007F8D01E00093919A0091919A002399F01A
:10597A0006E019E00E94828A0093929A1093939A01
:10598A0005E012E00E948A83980100E80E94AB0AAF
:10599A0006E20E94E70A08950091A69B053049F4A1
:1059AA0000EB1BE220E0ECE9FBE900831183228390
:1059BA0019C00091A69B023049F408E81CE220E0D5
:1059CA00ECE9FBE90083118322830CC00091A69BBA
:1059DA00013041F40AE11DE220E0ECE9FBE9008331
:1059EA00118322830091AE9B002339F007E019E06E
:1059FA000E947F8D01E00093919A0091919A002371
:105A0A0099F007E019E00E94828A0093929A109313
:105A1A00939A06E112E00E948A83980100E80E94A4
:105A2A00AB0A0CE30E94E70A08950091A69B053091
:105A3A0049F400EB1BE220E0ECE9FBE90083118367
:105A4A00228319C00091A69B023049F401ED1CE2A1
:105A5A0020E0ECE9FBE90083118322830CC000916A
:105A6A00A69B013041F403E61DE220E0ECE9FBE9E4
:105A7A000083118322830091AE9B002339F008E052
:105A8A0019E00E947F8D01E00093919A0091919A0A
:105A9A00002399F008E019E00E94828A0093929A02
:105AAA001093939A07E212E00E948A83980100E811
:105ABA000E94AB0A06E20E94E70A08950091A69B9B
:105ACA00053049F400EB1BE220E0ECE9FBE9008336
