:020000020000FC
:100000000C94A70618951895189518951895189595
:100010001895189518951895189518951895189578
:100020001895189518951895189518951895189568
:100030001895189518951895189518951895189558
:10004000189518950C94F94F1895189518951895BA
:100050001895189518951895189518951895189538
:10006000189518950C94C650189518950C946F54C3
:100070001895189518951895189518951895189518
:100080001895189518951895189518951895189508
:1000900018951895189518951895189518951895F8
:1000A00018951895189518951895189518951895E8
:1000B00018951895189518951895189518951895D8
:1000C00018951895189518951895189518951895C8
:1000D00018951895189518951895189518951895B8
:1000E000189518952020204D61696E20204D656E71
:1000F00075202020004D30204F7065726174696F4B
:100100006E20202020004D31204472697665204DFC
:100110006F6E69746F72004D3220506172616D654F
:1001200074657245646974004D33204175746F20A5
:1001300054756E696E672020004D34204661756CE1
:1001400074205265636F726420004D3520496E69DA
:100150007469616C697A65202020004D36205061F9
:100160007373776F72642020202020005B305D2045
:100170004C6F63616C2F52656D6F7465005B315D10
:10018000204469725F4368616E67652020005B32BE
:100190005D205370656564205365745F5074005B27
:1001A000335D2046726571205365745F5074200082
:1001B0005B345D20546F727175655F5365742020E8
:1001C000005B355D20504944205365745F507420B6
:1001D00020202030204F7065726174696F6E20207E
:1001E0002020002031205465726D696E616C2049B9
:1001F0004F202000203220436F6E7620496E666FBC
:10020000726D20200030205664635F496E707574F3
:1002100020566F6C74003120496E7075745F4443D2
:100220002043757272200032204F757470757420EF
:1002300020566F6C74202000332041205068617379
:10024000652043757272202000342042205068617E
:10025000736520437572722020003520432050685A
:1002600061736520437572722020003620437572D9
:1002700072205265666572656E636500372056644C
:1002800063204572726F72202020202000382049A0
:100290006E70757420506F776572202020003920B1
:1002A0004F757470757420506F776572202000311F
:1002B00030204964635F4572726F725F4120200095
:1002C0003131204964635F4572726F725F42202052
:1002D000003132204964635F4572726F725F432060
:1002E000200031332054656D7065726174757265DC
:1002F00020200020302044495B382E2E2E2E2E2E1A
:10030000315D2000203120444F5B332E315D2020B1
:1003100020202020003220416E616C6F6720496EE2
:100320007075743120003320416E616C6F67204915
:100330006E7075743220003420416E616C6F6720DE
:100340004F757470757420003020444320746F2002
:100350004443202020202020003120436F6E7472FF
:100360006F6C204D6574686F6400322052554E2FBB
:1003700053544F502053726320200033205265663F
:10038000204D6574686F6420202020003420436F66
:100390006E7620506F776572202020200035204334
:1003A0006F6E7620566F6C74616765202000362072
:1003B00044657669636520496E666F2020200037AA
:1003C00020536F6674776172652056657220200035
:1003D00020302050726F6772616D204374726C2000
:1003E0000031204374726C2053657475705B4D311D
:1003F0005D0032204374726C2053657475705B4DE0
:10040000325D0033205265662053657475705B4D14
:10041000315D200034205265662053657475705B31
:100420004D325D200020352050726F746563746911
:100430006F6E20202000203620416E616C6F672097
:10044000496E707574200020372050494420436F56
:100450006E74726F6C202000382044696769746183
:100460006C20496E70757420003920204D756C74B5
:1004700069537465705B4D315D003130204D756C92
:100480007469537465705B4D325D00313120416E8B
:10049000616C6F67204F7574707574003132204441
:1004A00069676974616C4F757470757400313320BD
:1004B0004D6F746F72204272616B65202000313481
:1004C000204175746F2054756E696E67202000316D
:1004D0003520562F46204374726C5B4D315D2000F1
:1004E000313620562F46204374726C5B4D325D20AE
:1004F00000313720534C20566563746F725B4D3169
:100500005D00313820534C20566563746F725B4D2B
:10051000325D0020313920566563746F725B4D3156
:100520005D20200020323020566563746F725B4D71
:10053000325D202000203231204D3120436F6E7318
:1005400074616E742000203232204D3220436F6E71
:100550007374616E742000323320436F6D6D2043DD
:100560006F6E74726F6C20003234204D6F6E697440
:100570006F722053657475700032392044432F44E4
:100580004320504152414D20200050382E302052FF
:10059000554E2F53544F502020200050382E3120DC
:1005A00044492E332046756E632E200050382E327B
:1005B0002044492E342046756E632E200050382E7C
:1005C000332044492E352046756E632E2000503866
:1005D0002E342044492E362046756E632E2000505E
:1005E000382E352044492E372046756E632E200064
:1005F00050382E362044492E382046756E632E2002
:100600000050382E372044492E392046756E632E0F
:10061000200050382E382044492E31302046756E47
:10062000632E0050382E392044492E313120467532
:100630006E632E0050382E31302044492E31322046
:1006400046756E630050382E31312044492E3133C7
:100650002046756E630050382E31322044492E31C9
:10066000342046756E630050382E31332044492EB5
:1006700031352046756E630050382E3134204449A0
:100680002E31362046756E630050382E3135204DA0
:100690002E432E20426C616E6B0050382E31362076
:1006A0005265665F55502F444E200050382E31372A
:1006B00020466C795F5354415254200050382E31FB
:1006C000382052554E5F44656C6179200050382EB9
:1006D000313920496E6368696E675F546D0050312F
:1006E000312E3020414F31204F7574707574005099
:1006F00031312E3120414F31205479706520200056
:100700005031312E3220414F3120305F41646A2018
:10071000005031312E3320414F3120345F41646A23
:1007200020005031312E3420414F312032305F4192
:10073000646A005031312E3520414F3120536361BE
:100740006C6520005031312E3620414F3120496EEA
:10075000762E2020005031322E3020444F2E312072
:1007600046756E6320005031322E3120444F2E32B8
:100770002046756E6320005031322E3220444F2EB9
:10078000332046756E6320005031322E3320444FA3
:100790002E342046756E6320005031322E342044B2
:1007A0004F2E352046756E6320005031322E352095
:1007B000444F2E362046756E6320005031322E365F
:1007C00020444F2E372046756E6320005031322E64
:1007D0003720444F2E382046756E63200050323942
:1007E0002E302050574D5F467265712020005032E8
:1007F000392E31205664635F4F7574536574005011
:1008000032392E32205274645F496E566F6C740018
:100810005032392E33205274645F4F7574507772A2
:10082000005032392E342052656163746F72526504
:1008300073005032392E352052656163746F7249EE
:100840006E64005032392E3620562053656E735434
:10085000696D65005032392E3720564320502D47A0
:1008600061696E20005032392E3820564320492DC0
:100870004761696E20005032392E392043432050A1
:100880002D4761696E20005032392E3130204343AC
:1008900020492D4761696E005032392E3131205682
:1008A0004379636C65436E74005032392E313220C7
:1008B000496E70757420436170005032392E3133A7
:1008C000204F7574707574436170005032392E3149
:1008D0003420564320467265712020005032392E54
:1008E0003135204343204672657120200050323953
:1008F0002E3136204F7574204F5653657400503298
:10090000392E3137204F7574205556536574005079
:1009100032392E313820496E204F562D53657400E0
:100920005032392E313920496E2055562D53657479
:10093000005032392E323020496E52746443757241
:1009400072005032392E3231204F43205365745695
:10095000616C005032392E3232204D78436F6E7404
:10096000437572005032392E3233204F4C2D43756F
:100970007256616C005032392E3234204F4C205464
:10098000696D652020005032392E3235204F5620B7
:1009900054696D652020005032392E3236204F5474
:1009A0002D53657456616C004631204F7665725F39
:1009B0004C6F616420202020004632204F76657203
:1009C0005F43757272656E7420004633204F766502
:1009D000725F43757272205B485D004634205A6531
:1009E000726F5F5365715F49202020004635205AA1
:1009F00065726F5F5365715F495B485D00463620E5
:100A0000556E6465725F43757272656E7400463729
:100A1000204F7665725F4275735F566F6C74004647
:100A200038204F7665725F566F6C74205B485D00AE
:100A30004639204C6F775F4275735F566F6C742038
:100A400000463130204F7665725F537065656420D3
:100A50002000463131204F75745F6F665F437472BA
:100A60006C200046313220552D436170204F5620B6
:100A70002020200046313320552D43617020565FE1
:100A800053656E730046313420552D436170204FFD
:100A900056202020200046313520552D43617020FE
:100AA0004F542020202000463136204F435F412004
:100AB0002020202020202000463137204F435F4255
:100AC000202020202020202000463138204F435F66
:100AD00043202020202020202000463139204F763E
:100AE00065725F566F6C745F494E00463230204C21
:100AF0006F775F566F6C745F494E2000463231202D
:100B00004F7665725F54656D70202020004632324A
:100B1000204465766963655F53686F72740046327E
:100B200033204368617267696E675F457272004681
:100B3000323420476174654472765F5077722000CA
:100B4000463235204578745F4661756C74202020EC
:100B500000463236204E6F5F43757272656E7420A8
:100B60002000463237204F70656E205068617365F3
:100B7000202000463238204D6F746F72204C6F6316
:100B80006B202000463239204B65797061645F45E7
:100B900072726F72004633302053796E63436F6D0B
:100BA0006D5F45727200463331204C696E655F554A
:100BB00056202020202000463332204C696E655F8D
:100BC0004F50454E20202000463333204C696E653F
:100BD0005F4F56202020202000463334204C696E81
:100BE000655F5365715F45727200463335204C690D
:100BF0006E655F556E62616C202000463336205072
:100C0000726F66696275735F457272004633372092
:100C1000465F4C6F676963203120202000463338DF
:100C200020465F4C6F6769632032202020004633E6
:100C300039204D61737465725F4661756C7400464E
:100C400034302049696E69745F436861726765007A
:100C50005B305D4163636573733D4C2564202020E8
:100C6000200000005B315D41646D697373696F6ED4
:100C700020202020000000005B325D50776420437C
:100C800068616E6765202020000000002020456E0E
:100C90007465723A2025642564256425642020202B
:100CA0002020436F6D706C6574652E2E2E202020E1
:100CB00000000000202050617373776F72645B4CFA
:100CC00025645D20200000002041646D6974746516
:100CD000642E5B4C25645D20000000004E6577208B
:100CE00050617373776F72645B4C25645D00000024
:100CF000FEBA01574E00554E0045534E0080454EFA
:100D00000040514E0020474E00104F4E0008494E03
:100D100000044D4E0002434E00014B4E00FBFEFF0F
:100D200001974E00954E0080874E0040934E002064
:100D3000894E0010914E00088B4E00048F4E000229
:100D4000854E00018D4E00FB00008895FECF0CE81B
:100D5000009374000BE20DBF08E00EBFC0E0D7E0C7
:100D60000E94A454002311F00E94B6540E940B501C
:100D70000E94A4060C94A406149F102D059F100D2C
:100D8000049F002D110D089500241124EFE0001F91
:100D9000111F001C111C0416150610F0041A150A68
:100DA000EA95AAF7001F111FA0010095109508955C
:100DB0005195419550400895FF27552312F4F16055
:100DC000F7DF112312F4F09507D00E94C406F0FD5E
:100DD00003D0F1FDEDCF08951195019510400895D0
:100DE0004A952AF03695279517950795F9CF0895D6
:100DF000002411241001E0E2EA9592F0001F111F77
:100E0000221F331F001C111C221C331C0416150644
:100E10002606370688F3041A150A260A370AECCF85
:100E2000001F111F221F331FA001B1010095109553
:100E30002095309508957791679157914791179034
:100E400011FA2790379007900CBE0895F7DF041B26
:100E500010E003C0F2DF041B150B20E030E005C0FA
:100E6000EADF041B150B260B370B28F110FC25C0FD
:100E700047910790E00FF11F0417100540E0240789
:100E80003407C8F486F412FE05C0E00FF11F079185
:100E9000069002C006910024F101E01BF0090CB796
:100EA00000400CBF1994E00FF11FE00FF11F2790D5
:100EB000379007900CBEF101199411F4C6F7E3CFF7
:100EC000319612FC31960EF0329650E060E070E000
:100ED00047914B3F48F079F34F3F29F04E3F11F0D7
:100EE0007791679157914791041B150B260B370B90
:100EF00029F308F3E5CFFA92EA92DA92CA92BA920B
:100F0000AA929A928A927A926A925A924A92BA9340
:100F1000AA939A938A930895FF84EE84DD84CC8407
:100F2000BB84AA84998488847F806E805D804C8095
:100F3000BB81AA8199818881F0E0EC0FFD1FEF0150
:100F400008951BB110741BB9009302010BB100741A
:100F500000620BB90F920F900BB100740BB902E352
:100F60000E94835408951BB1107410611BB9009343
:100F700002010BB1007400630BB90F920F900BB11B
:100F8000007400610BB902E30E9483540895012BA1
:100F9000D8DF0FE0D6DF08950CE0D3DF0FEF00932A
:100FA00000800895BA93AA93D901CBDF03C00C91B6
:100FB000DADF11960C910023D1F7A991B991089528
:100FC00008E3BFDF0CE0BDDF06E0BBDF01E0B9DF17
:100FD00002E010E00E948F540895002311F05E9A01
:100FE00008955E98089501E619E220E0ECE9FBE936
:100FF00000831183228300E000939A9A00E000931B
:10100000008000E010E00093949A1093959A00E01D
:1010100010E00093929A1093939A0895002349F553
:1010200000919A9A002391F40091929A1091939AC8
:101030001A930A930CE218E00E94F3482296980152
:1010400000EC0E94D2070E94CC0708950091949A68
:101050001091959A1A930A930CE218E00E94F348B3
:101060002296980100EC0E94D20701E00E943628E7
:101070000895013009F079C000919A9A0023D1F5C2
:101080000091929A1091939A012B31F42DE338E05C
:1010900000EC0E94D2072BC00091929A1091939A73
:1010A000013020E0120731F42EE438E000EC0E9419
:1010B000D2071DC00091929A1091939A023020E0BD
:1010C000120731F42FE538E000EC0E94D2070FC080
:1010D0000091929A1091939A1A930A9300E718E05C
:1010E0000E94F3482296980100EC0E94D2070E94C9
:1010F000CC0708950091949A1091959A012B31F4A0
:101100002DE338E000EC0E94D2072BC00091949AA6
:101110001091959A013020E0120731F42EE438E066
:1011200000EC0E94D2071DC00091949A1091959AEC
:10113000023020E0120731F42FE538E000EC0E9485
:10114000D2070FC00091949A1091959A1A930A931E
:1011500000E718E00E94F3482296980100EC0E94F4
:10116000D20704E00E9436280895023009F05DC0DD
:1011700000919A9A002361F50091929A1091939AA6
:10118000012B31F421E838E000EC0E94D2071DC0A9
:101190000091929A1091939A013020E0120731F455
:1011A00022E938E000EC0E94D2070FC00091929A29
:1011B0001091939A1A930A9300E718E00E94F3485B
:1011C0002296980100EC0E94D2070E94CC07089555
:1011D0000091949A1091959A012B31F421E838E00E
:1011E00000EC0E94D2071DC00091949A1091959A2C
:1011F000013020E0120731F422E938E000EC0E94CF
:10120000D2070FC00091949A1091959A1A930A935D
:1012100000E718E00E94F3482296980100EC0E9433
:10122000D20704E00E9436280895033009F05DC01B
:1012300000919A9A002361F50091929A1091939AE5
:10124000012B31F423EA38E000EC0E94D2071DC0E4
:101250000091929A1091939A013020E0120731F494
:1012600024EB38E000EC0E94D2070FC00091929A64
:101270001091939A1A930A9300E718E00E94F3489A
:101280002296980100EC0E94D2070E94CC07089594
:101290000091949A1091959A012B31F423EA38E049
:1012A00000EC0E94D2071DC00091949A1091959A6B
:1012B000013020E0120731F424EB38E000EC0E940A
:1012C000D2070FC00091949A1091959A1A930A939D
:1012D00000E718E00E94F3482296980100EC0E9473
:1012E000D20704E00E9436280895043009F05DC05A
:1012F00000919A9A002361F50091929A1091939A25
:10130000012B31F425EC38E000EC0E94D2071DC01F
:101310000091929A1091939A013020E0120731F4D3
:1013200026ED38E000EC0E94D2070FC00091929A9F
:101330001091939A1A930A9300E718E00E94F348D9
:101340002296980100EC0E94D2070E94CC070895D3
:101350000091949A1091959A012B31F427EE38E080
:1013600000EC0E94D2071DC00091949A1091959AAA
:10137000013020E0120731F428EF38E000EC0E9441
:10138000D2070FC00091949A1091959A1A930A93DC
:1013900000E718E00E94F3482296980100EC0E94B2
:1013A000D20704E00E9436280895053009F045C0B0
:1013B00000919A9A002301F54AE050E00091929A38
:1013C0001091939A0E94C4065A934A934AE050E0BF
:1013D0000091929A1091939A0E94DC061A930A93B4
:1013E00009E019E00E94F3482496980100EC0E945D
:1013F000D2070E94CC0708954AE050E00091949AE9
:101400001091959A0E94C4065A934A934AE050E07C
:101410000091949A1091959A0E94DC061A930A936F
:1014200009E019E00E94F3482496980100EC0E941C
:10143000D20706E00E9436280895063009F045C01C
:1014400000919A9A002301F54AE050E00091929AA7
:101450001091939A0E94C4065A934A934AE050E02E
:101460000091929A1091939A0E94DC061A930A9323
:101470000FE119E00E94F3482496980100EC0E94C5
:10148000D2070E94CC0708954AE050E00091949A58
:101490001091959A0E94C4065A934A934AE050E0EC
:1014A0000091949A1091959A0E94DC061A930A93DF
:1014B0000FE119E00E94F3482496980100EC0E9485
:1014C000D20706E00E9436280895073009F045C08B
:1014D00000919A9A002301F54AE050E00091929A17
:1014E0001091939A0E94C4065A934A934AE050E09E
:1014F0000091929A1091939A0E94DC061A930A9393
:1015000005E319E00E94F3482496980100EC0E943C
:10151000D2070E94CC0708954AE050E00091949AC7
:101520001091959A0E94C4065A934A934AE050E05B
:101530000091949A1091959A0E94DC061A930A934E
:1015400005E319E00E94F3482496980100EC0E94FC
:10155000D20706E00E9436280895083009F045C0F9
:1015600000919A9A002301F54AE050E00091929A86
:101570001091939A0E94C4065A934A934AE050E00D
:101580000091929A1091939A0E94DC061A930A9302
:101590000BE419E00E94F3482496980100EC0E94A5
:1015A000D2070E94CC0708954AE050E00091949A37
:1015B0001091959A0E94C4065A934A934AE050E0CB
:1015C0000091949A1091959A0E94DC061A930A93BE
:1015D0000BE419E00E94F3482496980100EC0E9465
:1015E000D20706E00E9436280895093049F5009197
:1015F0009A9A002391F40091929A1091939A1A93D7
:101600000A9301E619E00E94F3482296980100EC43
:101610000E94D2070E94CC0708950091949A1091DD
:10162000959A1A930A9301E619E00E94F3482296CC
:10163000980100EC0E94D20701E00E94362808952C
:101640000A3049F500919A9A002391F40091929AF8
:101650001091939A1A930A9301E719E00E94F348B4
:101660002296980100EC0E94D2070E94CC070895B0
:101670000091949A1091959A1A930A9301E719E0B0
:101680000E94F3482296980100EC0E94D20701E0E4
:101690000E94362808950B3009F096C000919A9A5E
:1016A000002309F048C00091929A1091939A012B5F
:1016B00031F422E839E000EC0E94D20739C00091F1
:1016C000929A1091939A013020E0120731F423E9A5
:1016D00039E000EC0E94D2072BC00091929A109141
:1016E000939A023020E0120731F424EA39E000EC4A
:1016F0000E94D2071DC00091929A1091939A0330D4
:1017000020E0120731F425EB39E000EC0E94D2070B
:101710000FC00091929A1091939A1A930A9300E73E
:1017200018E00E94F3482296980100EC0E94D2072C
:101730000E94CC0708950091949A1091959A012BDC
:1017400031F422E839E000EC0E94D20739C0009160
:10175000949A1091959A013020E0120731F423E910
:1017600039E000EC0E94D2072BC00091949A1091AE
:10177000959A023020E0120731F424EA39E000ECB7
:101780000E94D2071DC00091949A1091959A03303F
:1017900020E0120731F425EB39E000EC0E94D2077B
:1017A0000FC00091949A1091959A1A930A9300E7AA
:1017B00018E00E94F3482296980100EC0E94D2079C
:1017C00004E00E94362808950C3009F045C00091CD
:1017D0009A9A002301F54AE050E00091929A109104
:1017E000939A0E94C4065A934A934AE050E00091AB
:1017F000929A1091939A0E94DC061A930A9306EC2F
:1018000019E00E94F3482496980100EC0E94D20748
:101810000E94CC0708954AE050E00091949A1091FC
:10182000959A0E94C4065A934A934AE050E0009168
:10183000949A1091959A0E94DC061A930A9306ECEA
:1018400019E00E94F3482496980100EC0E94D20708
:1018500006E00E94362808950D3009F0B2C00091CC
:101860009A9A002309F056C00091929A1091939A87
:10187000012B31F42CED39E000EC0E94D20747C077
:101880000091929A1091939A013020E0120731F45E
:101890002DEE39E000EC0E94D20739C00091929AF7
:1018A0001091939A023020E0120731F42EEF39E0C4
:1018B00000EC0E94D2072BC00091929A1091939A4B
:1018C000033020E0120731F42FE03AE000EC0E94F0
:1018D000D2071DC00091929A1091939A043020E093
:1018E000120731F420E23AE000EC0E94D2070FC068
:1018F0000091929A1091939A1A930A9300E718E034
:101900000E94F3482296980100EC0E94D2070E94A0
:10191000CC0708950091949A1091959A012B31F477
:101920002CED39E000EC0E94D20747C00091949A58
:101930001091959A013020E0120731F42DEE39E034
:1019400000EC0E94D20739C00091949A1091959AA8
:10195000023020E0120731F42EEF39E000EC0E9453
:10196000D2072BC00091949A1091959A033020E0F1
:10197000120731F42FE03AE000EC0E94D2071DC0BC
:101980000091949A1091959A043020E0120731F456
:1019900020E23AE000EC0E94D2070FC00091949A36
:1019A0001091959A1A930A9300E718E00E94F34861
:1019B0002296980100EC0E94D20704E00E9436288B
:1019C00008950E3009F045C000919A9A002301F560
:1019D0004AE050E00091929A1091939A0E94C406B6
:1019E0005A934A934AE050E00091929A1091939A48
:1019F0000E94DC061A930A9301E31AE00E94F3485E
:101A00002496980100EC0E94D2070E94CC0708950A
:101A10004AE050E00091949A1091959A0E94C40671
:101A20005A934A934AE050E00091949A1091959A03
:101A30000E94DC061A930A9301E31AE00E94F3481D
:101A40002496980100EC0E94D20706E00E943628F6
:101A500008950F3009F079C000919A9A0023D1F5CA
:101A60000091929A1091939A012B31F427E43AE075
:101A700000EC0E94D2072BC00091929A1091939A89
:101A8000013020E0120731F428E53AE000EC0E9432
:101A9000D2071DC00091929A1091939A023020E0D3
:101AA000120731F429E63AE000EC0E94D2070FC099
:101AB0000091929A1091939A1A930A9300E718E072
:101AC0000E94F3482296980100EC0E94D2070E94DF
:101AD000CC0708950091949A1091959A012B31F4B6
:101AE00027E43AE000EC0E94D2072BC00091949AC0
:101AF0001091959A013020E0120731F428E53AE080
:101B000000EC0E94D2071DC00091949A1091959A02
:101B1000023020E0120731F429E63AE000EC0E949E
:101B2000D2070FC00091949A1091959A1A930A9334
:101B300000E718E00E94F3482296980100EC0E940A
:101B4000D20704E00E9436280895003109F045C00C
:101B500000919A9A002301F54AE050E00091929A90
:101B60001091939A0E94C4065A934A934AE050E017
:101B70000091929A1091939A0E94DC061A930A930C
:101B80000AE71AE00E94F3482496980100EC0E94AC
:101B9000D2070E94CC0708954AE050E00091949A41
:101BA0001091959A0E94C4065A934A934AE050E0D5
:101BB0000091949A1091959A0E94DC061A930A93C8
:101BC00000E91AE00E94F3482496980100EC0E9474
:101BD000D20706E00E9436280895013109F05DC061
:101BE00000919A9A002361F50091929A1091939A2C
:101BF000012B31F425EA3AE000EC0E94D2071DC027
:101C00000091929A1091939A013020E0120731F4DA
:101C100026EB3AE000EC0E94D2070FC00091929AA6
:101C20001091939A1A930A9300E718E00E94F348E0
:101C30002296980100EC0E94D2070E94CC070895DA
:101C40000091949A1091959A012B31F425EA3AE08B
:101C500000EC0E94D2071DC00091949A1091959AB1
:101C6000013020E0120731F426EB3AE000EC0E944C
:101C7000D2070FC00091949A1091959A1A930A93E3
:101C800000E718E00E94F3482296980100EC0E94B9
:101C9000D20704E00E9436280895023109F05DC0A1
:101CA00000919A9A002361F50091929A1091939A6B
:101CB000012B31F427EC3AE000EC0E94D2071DC062
:101CC0000091929A1091939A013020E0120731F41A
:101CD00028ED3AE000EC0E94D2070FC00091929AE2
:101CE0001091939A1A930A9300E718E00E94F34820
:101CF0002296980100EC0E94D2070E94CC0708951A
:101D00000091949A1091959A012B31F427EC3AE0C6
:101D100000EC0E94D2071DC00091949A1091959AF0
:101D2000013020E0120731F428ED3AE000EC0E9487
:101D3000D2070FC00091949A1091959A1A930A9322
:101D400000E718E00E94F3482296980100EC0E94F8
:101D5000D20704E00E9436280895033149F5009126
:101D60009A9A002391F40091929A1091939A1A935F
:101D70000A9309EE1AE00E94F3482296980100ECBB
:101D80000E94D2070E94CC0708950091949A109166
:101D9000959A1A930A9308EF1AE00E94F348229644
:101DA000980100EC0E94D20701E00E9436280895B5
:101DB000043149F500919A9A002391F40091929A86
:101DC0001091939A1A930A9308E01BE00E94F3483B
:101DD0002296980100EC0E94D2070E94CC07089539
:101DE0000091949A1091959A1A930A9308E01BE037
:101DF0000E94F3482296980100EC0E94D20701E06D
:101E00000E9436280895053149F500919A9A0023D9
:101E100091F40091929A1091939A1A930A9309E17E
:101E20001BE00E94F3482296980100EC0E94D20722
:101E30000E94CC0708950091949A1091959A1A9354
:101E40000A9309E11BE00E94F3482296980100ECF6
:101E50000E94D20701E00E9436280895063109F059
:101E600096C000919A9A002309F048C00091929A76
:101E70001091939A012B31F42AE23BE000EC0E948E
:101E8000D20739C00091929A1091939A013020E0C4
:101E9000120731F42BE33BE000EC0E94D2072BC089
:101EA0000091929A1091939A023020E0120731F437
:101EB0002CE43BE000EC0E94D2071DC00091929AF6
:101EC0001091939A033020E0120731F42DE53BE0A6
:101ED00000EC0E94D2070FC00091929A1091939A41
:101EE0001A930A9300E718E00E94F348229698019B
:101EF00000EC0E94D2070E94CC0708950091949AAA
:101F00001091959A012B31F42AE23BE000EC0E94FB
:101F1000D20739C00091949A1091959A013020E02F
:101F2000120731F42BE33BE000EC0E94D2072BC0F8
:101F30000091949A1091959A023020E0120731F4A2
:101F40002CE43BE000EC0E94D2071DC00091949A63
:101F50001091959A033020E0120731F42DE53BE013
:101F600000EC0E94D2070FC00091949A1091959AAC
:101F70001A930A9300E718E00E94F348229698010A
:101F800000EC0E94D20704E00E9436280895073131
:101F900009F045C000919A9A002301F54AE050E00B
:101FA0000091929A1091939A0E94C4065A934A9370
:101FB0004AE050E00091929A1091939A0E94DC06B8
:101FC0001A930A930EE61BE00E94F34824969801A8
:101FD00000EC0E94D2070E94CC0708954AE050E02E
:101FE0000091949A1091959A0E94C4065A934A932C
:101FF0004AE050E00091949A1091959A0E94DC0674
:102000001A930A930EE61BE00E94F3482496980167
:1020100000EC0E94D20706E00E943628089508319D
:1020200009F079C000919A9A0023D1F50091929A13
:102030001091939A012B31F425EA3AE000EC0E94CA
:10204000D2072BC00091929A1091939A013020E010
:10205000120731F424E83BE000EC0E94D2071DC0D7
:102060000091929A1091939A023020E0120731F475
:1020700025E93BE000EC0E94D2070FC00091929A44
:102080001091939A1A930A9300E718E00E94F3487C
:102090002296980100EC0E94D2070E94CC07089576
:1020A0000091949A1091959A012B31F425EA3AE027
:1020B00000EC0E94D2072BC00091949A1091959A3F
:1020C000013020E0120731F424E83BE000EC0E94EC
:1020D000D2071DC00091949A1091959A023020E089
:1020E000120731F425E93BE000EC0E94D2070FC053
:1020F0000091949A1091959A1A930A9300E718E028
:102100000E94F3482296980100EC0E94D20704E056
:102110000E9436280895093109F096C000919A9AD4
:10212000002309F048C00091929A1091939A012BD4
:1021300031F42AE23BE000EC0E94D20739C0009162
:10214000929A1091939A013020E0120731F42BE318
:102150003BE000EC0E94D2072BC00091929A1091B4
:10216000939A023020E0120731F426EA3BE000ECBB
:102170000E94D2071DC00091929A1091939A033049
:1021800020E0120731F42DE53BE000EC0E94D2077D
:102190000FC00091929A1091939A1A930A9300E7B4
:1021A00018E00E94F3482296980100EC0E94D207A2
:1021B0000E94CC0708950091949A1091959A012B52
:1021C00031F42AE23BE000EC0E94D20739C00091D2
:1021D000949A1091959A013020E0120731F42BE384
:1021E0003BE000EC0E94D2072BC00091949A109122
:1021F000959A023020E0120731F426EA3BE000EC29
:102200000E94D2071DC00091949A1091959A0330B4
:1022100020E0120731F42DE53BE000EC0E94D207EC
:102220000FC00091949A1091959A1A930A9300E71F
:1022300018E00E94F3482296980100EC0E94D20711
:1022400004E00E94362808950A3109F045C0009143
:102250009A9A002301F54AE050E00091929A109179
:10226000939A0E94C4065A934A934AE050E0009120
:10227000929A1091939A0E94DC061A930A9307EBA4
:102280001BE00E94F3482496980100EC0E94D207BC
:102290000E94CC0708954AE050E00091949A109172
:1022A000959A0E94C4065A934A934AE050E00091DE
:1022B000949A1091959A0E94DC061A930A930CEC5A
:1022C0001BE00E94F3482496980100EC0E94D2077C
:1022D00006E00E94362808950B3109F079C000917C
:1022E0009A9A0023D1F50091929A1091939A012B1A
:1022F00031F425EA3AE000EC0E94D2072BC00091AD
:10230000929A1091939A013020E0120731F422EE54
:102310003BE000EC0E94D2071DC00091929A109100
:10232000939A023020E0120731F423EF3BE000ECF7
:102330000E94D2070FC00091929A1091939A1A931B
:102340000A9300E718E00E94F3482296980100ECF7
:102350000E94D2070E94CC0708950091949A109190
:10236000959A012B31F425EA3AE000EC0E94D2075D
:102370002BC00091949A1091959A013020E0120799
:1023800031F422EE3BE000EC0E94D2071DC0009128
:10239000949A1091959A023020E0120731F423EFBD
:1023A0003BE000EC0E94D2070FC00091949A10917C
:1023B000959A1A930A9300E718E00E94F348229630
:1023C000980100EC0E94D20704E00E94362808958C
:1023D0000C3109F05DC000919A9A002361F50091DB
:1023E000929A1091939A012B31F425EA3AE000EC8D
:1023F0000E94D2071DC00091929A1091939A0130C9
:1024000020E0120731F424E03CE000EC0E94D20707
:102410000FC00091929A1091939A1A930A9300E731
:1024200018E00E94F3482296980100EC0E94D2071F
:102430000E94CC0708950091949A1091959A012BCF
:1024400031F425EA3AE000EC0E94D2071DC0009169
:10245000949A1091959A013020E0120731F424E00B
:102460003CE000EC0E94D2070FC00091949A1091BA
:10247000959A1A930A9300E718E00E94F34822966F
:10248000980100EC0E94D20704E00E9436280895CB
:102490000D3109F096C000919A9A002309F048C0C6
:1024A0000091929A1091939A012B31F425E13CE02E
:1024B00000EC0E94D20739C00091929A1091939A31
:1024C000013020E0120731F428E23CE000EC0E94E9
:1024D000D2072BC00091929A1091939A023020E07B
:1024E000120731F42BE33CE000EC0E94D2071DC040
:1024F0000091929A1091939A033020E0120731F4E0
:102500002EE43CE000EC0E94D2070FC00091929AAA
:102510001091939A1A930A9300E718E00E94F348E7
:102520002296980100EC0E94D2070E94CC070895E1
:102530000091949A1091959A012B31F425E13CE099
:1025400000EC0E94D20739C00091949A1091959A9C
:10255000013020E0120731F428E23CE000EC0E9458
:10256000D2072BC00091949A1091959A023020E0E6
:10257000120731F42BE33CE000EC0E94D2071DC0AF
:102580000091949A1091959A033020E0120731F44B
:102590002EE43CE000EC0E94D2070FC00091949A18
:1025A0001091959A1A930A9300E718E00E94F34855
:1025B0002296980100EC0E94D20704E00E9436287F
:1025C00008950E3109F045C000919A9A002301F553
:1025D0004AE050E00091929A1091939A0E94C406AA
:1025E0005A934A934AE050E00091929A1091939A3C
:1025F0000E94DC061A930A9301E61CE00E94F3484D
:102600002496980100EC0E94D2070E94CC070895FE
:102610004AE050E00091949A1091959A0E94C40665
:102620005A934A934AE050E00091949A1091959AF7
:102630000E94DC061A930A9301E61CE00E94F3480C
:102640002496980100EC0E94D20706E00E943628EA
:1026500008950F3109F045C000919A9A002301F5C1
:102660004AE050E00091929A1091939A0E94C40619
:102670005A934A934AE050E00091929A1091939AAB
:102680000E94DC061A930A9307E71CE00E94F348B5
:102690002496980100EC0E94D2070E94CC0708956E
:1026A0004AE050E00091949A1091959A0E94C406D5
:1026B0005A934A934AE050E00091949A1091959A67
:1026C0000E94DC061A930A9307E71CE00E94F34875
:1026D0002496980100EC0E94D20706E00E9436285A
:1026E0000895003249F500919A9A002391F40091DF
:1026F000929A1091939A1A930A930DE81CE00E9403
:10270000F3482296980100EC0E94D2070E94CC0761
:1027100008950091949A1091959A1A930A930DE84E
:102720001CE00E94F3482296980100EC0E94D20718
:1027300001E00E9436280895013209F045C0009159
:102740009A9A002301F54AE050E00091929A109184
:10275000939A0E94C4065A934A934AE050E000912B
:10276000929A1091939A0E94DC061A930A930DE9AB
:102770001CE00E94F3482496980100EC0E94D207C6
:102780000E94CC0708954AE050E00091949A10917D
:10279000959A0E94C4065A934A934AE050E00091E9
:1027A000949A1091959A0E94DC061A930A930DE967
:1027B0001CE00E94F3482496980100EC0E94D20786
:1027C00006E00E9436280895023209F045C00091C3
:1027D0009A9A002301F54AE050E00091929A1091F4
:1027E000939A0E94C4065A934A934AE050E000919B
:1027F000929A1091939A0E94DC061A930A9303EB23
:102800001CE00E94F3482496980100EC0E94D20735
:102810000E94CC0708954AE050E00091949A1091EC
:10282000959A0E94C4065A934A934AE050E0009158
:10283000949A1091959A0E94DC061A930A9303EBDE
:102840001CE00E94F3482496980100EC0E94D207F5
:1028500006E00E9436280895033209F096C00091E0
:102860009A9A002309F048C00091929A1091939A85
:10287000012B31F425EA3AE000EC0E94D20739C07E
:102880000091929A1091939A013020E0120731F44E
:1028900029EC3CE000EC0E94D2072BC00091929AF8
:1028A0001091939A023020E0120731F42AED3CE0B7
:1028B00000EC0E94D2071DC00091929A1091939A49
:1028C000033020E0120731F42BEE3CE000EC0E94D4
:1028D000D2070FC00091929A1091939A1A930A937B
:1028E00000E718E00E94F3482296980100EC0E944D
:1028F000D2070E94CC0708950091949A1091959A5E
:10290000012B31F425EA3AE000EC0E94D20739C0ED
:102910000091949A1091959A013020E0120731F4B9
:1029200029EC3CE000EC0E94D2072BC00091949A65
:102930001091959A023020E0120731F42AED3CE024
:1029400000EC0E94D2071DC00091949A1091959AB4
:10295000033020E0120731F42BEE3CE000EC0E9443
:10296000D2070FC00091949A1091959A1A930A93E6
:1029700000E718E00E94F3482296980100EC0E94BC
:10298000D20704E00E9436280895043209F096C068
:1029900000919A9A002309F048C00091929A1091F0
:1029A000939A012B31F42CEF3CE000EC0E94D2070B
:1029B00039C00091929A1091939A013020E0120749
:1029C00031F42DE03DE000EC0E94D2072BC00091D5
:1029D000929A1091939A023020E0120731F42EE17E
:1029E0003DE000EC0E94D2071DC00091929A109128
:1029F000939A033020E0120731F42FE23DE000EC1F
:102A00000E94D2070FC00091929A1091939A1A9344
:102A10000A9300E718E00E94F3482296980100EC20
:102A20000E94D2070E94CC0708950091949A1091B9
:102A3000959A012B31F42CEF3CE000EC0E94D20778
:102A400039C00091949A1091959A013020E01207B4
:102A500031F42DE03DE000EC0E94D2072BC0009144
:102A6000949A1091959A023020E0120731F42EE1E9
:102A70003DE000EC0E94D2071DC00091949A109195
:102A8000959A033020E0120731F42FE23DE000EC8C
:102A90000E94D2070FC00091949A1091959A1A93B0
:102AA0000A9300E718E00E94F3482296980100EC90
:102AB0000E94D20704E00E9436280895053209F0EA
:102AC00079C000919A9A0023D1F50091929A1091C1
:102AD000939A012B31F420E43DE000EC0E94D207F0
:102AE0002BC00091929A1091939A013020E0120726
:102AF00031F421E53DE000EC0E94D2071DC00091B9
:102B0000929A1091939A023020E0120731F422E653
:102B10003DE000EC0E94D2070FC00091929A109104
:102B2000939A1A930A9300E718E00E94F3482296BA
:102B3000980100EC0E94D2070E94CC0708950091F2
:102B4000949A1091959A012B31F420E43DE000EC29
:102B50000E94D2072BC00091949A1091959A01304F
:102B600020E0120731F421E53DE000EC0E94D2079D
:102B70001DC00091949A1091959A023020E012079E
:102B800031F422E63DE000EC0E94D2070FC0009134
:102B9000949A1091959A1A930A9300E718E00E946C
:102BA000F3482296980100EC0E94D20704E00E94AC
:102BB00036280895063249F500919A9A002391F437
:102BC0000091929A1091939A1A930A9303E71DE049
:102BD0000E94F3482296980100EC0E94D2070E94BE
:102BE000CC0708950091949A1091959A1A930A939C
:102BF00003E71DE00E94F3482296980100EC0E9432
:102C0000D20701E00E9436280895073209F05DC01E
:102C100000919A9A002361F50091929A1091939AEB
:102C2000012B31F424E83DE000EC0E94D2071DC0E6
:102C30000091929A1091939A013020E0120731F49A
:102C400025E93DE000EC0E94D2070FC00091929A66
:102C50001091939A1A930A9300E718E00E94F348A0
:102C60002296980100EC0E94D2070E94CC0708959A
:102C70000091949A1091959A012B31F424E83DE04B
:102C800000EC0E94D2071DC00091949A1091959A71
:102C9000013020E0120731F425E93DE000EC0E940C
:102CA000D2070FC00091949A1091959A1A930A93A3
:102CB00000E718E00E94F3482296980100EC0E9479
:102CC000D20704E00E9436280895083209F06EC346
:102CD00000919A9A002309F0B4C10091929A109140
:102CE000939A012B31F425EA3AE000EC0E94D207D6
:102CF000A5C10091929A1091939A013020E0120799
:102D000031F426EA3DE000EC0E94D20797C1009121
:102D1000929A1091939A023020E0120731F427EB37
:102D20003DE000EC0E94D20789C10091929A109177
:102D3000939A033020E0120731F428EC3DE000ECD8
:102D40000E94D2077BC10091929A1091939A04300D
:102D500020E0120731F429ED3DE000EC0E94D2079B
:102D60006DC10091929A1091939A053020E012075C
:102D700031F42AEE3DE000EC0E94D2075FC10091E1
:102D8000929A1091939A063020E0120731F42BEFBB
:102D90003DE000EC0E94D20751C10091929A10913F
:102DA000939A073020E0120731F42CE03EE000EC6B
:102DB0000E94D20743C10091929A1091939A0830D1
:102DC00020E0120731F42DE13EE000EC0E94D20732
:102DD00035C10091929A1091939A093020E0120720
:102DE00031F42EE23EE000EC0E94D20727C10091B0
:102DF000929A1091939A0A3020E0120731F42FE34F
:102E00003EE000EC0E94D20719C10091929A109105
:102E1000939A0B3020E0120731F420E53EE000ECFD
:102E20000E94D2070BC10091929A1091939A0C3094
:102E300020E0120731F421E63EE000EC0E94D207C8
:102E4000FDC00091929A1091939A0D3020E01207E4
:102E500031F422E73EE000EC0E94D207EFC000917F
:102E6000929A1091939A0E3020E0120731F423E8E1
:102E70003EE000EC0E94D207E1C00091929A1091CE
:102E8000939A0F3020E0120731F424E93EE000EC81
:102E90000E94D207D3C00091929A1091939A003168
:102EA00020E0120731F425EA3EE000EC0E94D20750
:102EB000C5C00091929A1091939A013120E01207B7
:102EC00031F426EB3EE000EC0E94D207B7C000913F
:102ED000929A1091939A023120E0120731F427EC74
:102EE0003EE000EC0E94D207A9C00091929A109196
:102EF000939A033120E0120731F428ED3EE000EC14
:102F00000E94D2079BC00091929A1091939A04312B
:102F100020E0120731F429EE3EE000EC0E94D207D7
:102F20008DC00091929A1091939A053120E012077A
:102F300031F42AEF3EE000EC0E94D2077FC00091FE
:102F4000929A1091939A063120E0120731F42BE007
:102F50003FE000EC0E94D20771C00091929A10915C
:102F6000939A073120E0120731F42CE13FE000ECA6
:102F70000E94D20763C00091929A1091939A0831EF
:102F800020E0120731F42DE23FE000EC0E94D2076E
:102F900055C00091929A1091939A093120E012073E
:102FA00031F42EE33FE000EC0E94D20747C00091CD
:102FB000929A1091939A0A3120E0120731F42FE48B
:102FC0003FE000EC0E94D20739C00091929A109124
:102FD000939A0B3120E0120731F420E63FE000EC39
:102FE0000E94D2072BC00091929A1091939A0C31B3
:102FF00020E0120731F421E73FE000EC0E94D20705
:103000001DC00091929A1091939A0D3120E0120701
:1030100031F422E83FE000EC0E94D2070FC000919B
:10302000929A1091939A1A930A9300E718E00E94DB
:10303000F3482296980100EC0E94D2070E94CC0728
:1030400008950091949A1091959A012B31F425EAF4
:103050003AE000EC0E94D207A5C10091949A109129
:10306000959A013020E0120731F426EA3DE000ECA9
:103070000E94D20797C10091949A1091959A0230BC
:1030800020E0120731F427EB3DE000EC0E94D2076C
:1030900089C10091949A1091959A033020E012070B
:1030A00031F428EC3DE000EC0E94D2077BC1009196
:1030B000949A1091959A043020E0120731F429ED8A
:1030C0003DE000EC0E94D2076DC10091949A1091EE
:1030D000959A053020E0120731F42AEE3DE000EC2D
:1030E0000E94D2075FC10091949A1091959A063080
:1030F00020E0120731F42BEF3DE000EC0E94D207F4
:1031000051C10091949A1091959A073020E01207CE
:1031100031F42CE03EE000EC0E94D20743C1009164
:10312000949A1091959A083020E0120731F42DE11D
:103130003EE000EC0E94D20735C10091949A1091B4
:10314000959A093020E0120731F42EE23EE000ECBF
:103150000E94D20727C10091949A1091959A0A3043
:1031600020E0120731F42FE33EE000EC0E94D2078A
:1031700019C10091949A1091959A0B3020E0120792
:1031800031F420E53EE000EC0E94D2070BC1009133
:10319000949A1091959A0C3020E0120731F421E6B0
:1031A0003EE000EC0E94D207FDC00091949A10917D
:1031B000959A0D3020E0120731F422E73EE000EC52
:1031C0000E94D207EFC00091949A1091959A0E3008
:1031D00020E0120731F423E83EE000EC0E94D20721
:1031E000E1C00091949A1091959A0F3020E0120757
:1031F00031F424E93EE000EC0E94D207D3C00091F4
:10320000949A1091959A003120E0120731F425EA42
:103210003EE000EC0E94D207C5C00091949A109144
:10322000959A013120E0120731F426EB3EE000ECE4
:103230000E94D207B7C00091949A1091959A0231DA
:1032400020E0120731F427EC3EE000EC0E94D207A8
:10325000A9C00091949A1091959A033120E0120729
:1032600031F428ED3EE000EC0E94D2079BC00091B3
:10327000949A1091959A043120E0120731F429EEC6
:103280003EE000EC0E94D2078DC00091949A10910C
:10329000959A053120E0120731F42AEF3EE000EC68
:1032A0000E94D2077FC00091949A1091959A06319E
:1032B00020E0120731F42BE03FE000EC0E94D2073F
:1032C00071C00091949A1091959A073120E01207ED
:1032D00031F42CE13FE000EC0E94D20763C0009182
:1032E000949A1091959A083120E0120731F42DE25A
:1032F0003FE000EC0E94D20755C00091949A1091D3
:10330000959A093120E0120731F42EE33FE000ECFA
:103310000E94D20747C00091949A1091959A0A3161
:1033200020E0120731F42FE43FE000EC0E94D207C6
:1033300039C00091949A1091959A0B3120E01207B0
:1033400031F420E63FE000EC0E94D2072BC0009150
:10335000949A1091959A0C3120E0120731F421E7EC
:103360003FE000EC0E94D2071DC00091949A10919A
:10337000959A0D3120E0120731F422E83FE000EC8D
:103380000E94D2070FC00091949A1091959A1A93B7
:103390000A9300E718E00E94F3482296980100EC97
:1033A0000E94D20704E00E9436280895093209F0ED
:1033B0005DC000919A9A002361F50091929A109154
:1033C000939A012B31F423E93FE000EC0E94D207ED
:1033D0001DC00091929A1091939A013020E012073B
:1033E00031F424EA3FE000EC0E94D2070FC00091C4
:1033F000929A1091939A1A930A9300E718E00E9408
:10340000F3482296980100EC0E94D2070E94CC0754
:1034100008950091949A1091959A012B31F423E923
:103420003FE000EC0E94D2071DC00091949A1091D9
:10343000959A013020E0120731F424EA3FE000ECD5
:103440000E94D2070FC00091949A1091959A1A93F6
:103450000A9300E718E00E94F3482296980100ECD6
:103460000E94D20704E00E94362808950A3209F02B
:103470005DC000919A9A002361F50091929A109193
:10348000939A012B31F425EB3FE000EC0E94D20728
:103490001DC00091929A1091939A013020E012077A
:1034A00031F426EC3FE000EC0E94D2070FC00091FF
:1034B000929A1091939A1A930A9300E718E00E9447
:1034C000F3482296980100EC0E94D2070E94CC0794
:1034D00008950091949A1091959A012B31F425EB5F
:1034E0003FE000EC0E94D2071DC00091949A109119
:1034F000959A013020E0120731F426EC3FE000EC11
:103500000E94D2070FC00091949A1091959A1A9335
:103510000A9300E718E00E94F3482296980100EC15
:103520000E94D20704E00E94362808950B3209F069
:103530005AC100919A9A002309F0AAC00091929A68
:103540001091939A012B31F427ED3FE000EC0E949B
:10355000D2079BC00091929A1091939A013020E07B
:10356000120731F428EE3FE000EC0E94D2078DC034
:103570000091929A1091939A023020E0120731F450
:1035800029EF3FE000EC0E94D2077FC00091929AA1
:103590001091939A033020E0120731F42AE030E1D1
:1035A00000EC0E94D20771C00091929A1091939AF8
:1035B000043020E0120731F42BE130E100EC0E94EE
:1035C000D20763C00091929A1091939A053020E03F
:1035D000120731F42CE230E100EC0E94D20755C012
:1035E0000091929A1091939A063020E0120731F4DC
:1035F0002DE330E100EC0E94D20747C00091929A7F
:103600001091939A073020E0120731F42EE430E154
:1036100000EC0E94D20739C00091929A1091939ABF
:10362000083020E0120731F42FE530E100EC0E9471
:10363000D2072BC00091929A1091939A093020E002
:10364000120731F420E730E100EC0E94D2071DC0E0
:103650000091929A1091939A0A3020E0120731F467
:1036600021E830E100EC0E94D2070FC00091929A4D
:103670001091939A1A930A9300E718E00E94F34876
:103680002296980100EC0E94D2070E94CC07089570
:103690000091949A1091959A012B31F427ED3FE017
:1036A00000EC0E94D2079BC00091949A1091959AC9
:1036B000013020E0120731F428EE3FE000EC0E94D8
:1036C000D2078DC00091949A1091959A023020E013
:1036D000120731F429EF3FE000EC0E94D2077FC0CF
:1036E0000091949A1091959A033020E0120731F4DA
:1036F0002AE030E100EC0E94D20771C00091949A58
:103700001091959A043020E0120731F42BE130E15A
:1037100000EC0E94D20763C00091949A1091959A90
:10372000053020E0120731F42CE230E100EC0E9479
:10373000D20755C00091949A1091959A063020E0D6
:10374000120731F42DE330E100EC0E94D20747C0AC
:103750000091949A1091959A073020E0120731F465
:103760002EE430E100EC0E94D20739C00091949A17
:103770001091959A083020E0120731F42FE530E1DE
:1037800000EC0E94D2072BC00091949A1091959A58
:10379000093020E0120731F420E730E100EC0E940C
:1037A000D2071DC00091949A1091959A0A3020E09A
:1037B000120731F421E830E100EC0E94D2070FC07B
:1037C0000091949A1091959A1A930A9300E718E041
:1037D0000E94F3482296980100EC0E94D20704E070
:1037E0000E94362808950C3209F045C000919A9A3B
:1037F000002301F540E157E20091929A1091939ACB
:103800000E94DC065A934A9340E157E20091929A53
:103810001091939A0E94DC061A930A9302E910E130
:103820000E94F3482496980100EC0E94D2070E945F
:10383000CC07089540E157E20091949A1091959A2F
:103840000E94DC065A934A9340E157E20091949A11
:103850001091959A0E94DC061A930A9302E910E1EE
:103860000E94F3482496980100EC0E94D20708E0D9
:103870000E94362808950D3209F01EC100919A9ACF
:10388000002309F08CC00091929A1091939A012B19
:1038900031F426EA30E100EC0E94D2077DC00091AD
:1038A000929A1091939A013020E0120731F427EB9D
:1038B00030E100EC0E94D2076FC00091929A109103
:1038C000939A023020E0120731F428EC30E100EC4A
:1038D0000E94D20761C00091929A1091939A03308E
:1038E00020E0120731F429ED30E100EC0E94D2070C
:1038F00053C00091929A1091939A043020E01207DD
:1039000031F42AEE30E100EC0E94D20745C000916C
:10391000929A1091939A053020E0120731F42BEF20
:1039200030E100EC0E94D20737C00091929A1091CA
:10393000939A063020E0120731F42CE031E100ECDC
:103940000E94D20729C00091929A1091939A073051
:1039500020E0120731F42DE131E100EC0E94D207A2
:103960001BC00091929A1091939A083020E01207A0
:1039700031F42EE231E100EC0E94D2070DC000913B
:10398000929A1091939A093020E0120729F42FE3BC
:1039900031E100EC0E94D2070E94CC07089500910B
:1039A000949A1091959A012B31F426EA30E100ECBB
:1039B0000E94D2077DC00091949A1091959A01308F
:1039C00020E0120731F427EB30E100EC0E94D2072F
:1039D0006FC00091949A1091959A023020E01207DE
:1039E00031F428EC30E100EC0E94D20761C0009174
:1039F000949A1091959A033020E0120731F429ED42
:103A000030E100EC0E94D20753C00091949A1091CB
:103A1000959A043020E0120731F42AEE30E100ECF0
:103A20000E94D20745C00091949A1091959A053052
:103A300020E0120731F42BEF30E100EC0E94D207B6
:103A400037C00091949A1091959A063020E01207A1
:103A500031F42CE031E100EC0E94D20729C0009142
:103A6000949A1091959A073020E0120731F42DE1D5
:103A700031E100EC0E94D2071BC00091949A109192
:103A8000959A083020E0120731F42EE231E100EC83
:103A90000E94D2070DC00091949A1091959A093016
:103AA00020E0120729F42FE331E100EC0E94D20755
:103AB00004E00E94362808950E3209F045C00091B6
:103AC0009A9A002301F54AE050E00091929A1091F1
:103AD000939A0E94C4065A934A934AE050E0009198
:103AE000929A1091939A0E94DC061A930A9300E529
:103AF00011E10E94F3482496980100EC0E94D2073D
:103B00000E94CC0708954AE050E00091949A1091E9
:103B1000959A0E94C4065A934A934AE050E0009155
:103B2000949A1091959A0E94DC061A930A9300E5E4
:103B300011E10E94F3482496980100EC0E94D207FC
:103B400006E00E94362808950F3209F05DC000910A
:103B50009A9A002361F50091929A1091939A012B01
:103B600031F426E631E100EC0E94D2071DC000913D
:103B7000929A1091939A013020E0120731F427E7CE
:103B800031E100EC0E94D2070FC00091929A10918F
:103B9000939A1A930A9300E718E00E94F34822963A
:103BA000980100EC0E94D2070E94CC070895009172
:103BB000949A1091959A012B31F426E631E100ECAC
:103BC0000E94D2071DC00091949A1091959A0130DD
:103BD00020E0120731F427E731E100EC0E94D20720
:103BE0000FC00091949A1091959A1A930A9300E746
:103BF00018E00E94F3482296980100EC0E94D20738
:103C000004E00E9436280895003309F05DC0009159
:103C10009A9A002361F50091929A1091939A012B40
:103C200031F428E831E100EC0E94D2071DC0009178
:103C3000929A1091939A013020E0120731F429E909
:103C400031E100EC0E94D2070FC00091929A1091CE
:103C5000939A1A930A9300E718E00E94F348229679
:103C6000980100EC0E94D2070E94CC0708950091B1
:103C7000949A1091959A012B31F428E831E100ECE7
:103C80000E94D2071DC00091949A1091959A01301C
:103C900020E0120731F429E931E100EC0E94D2075B
:103CA0000FC00091949A1091959A1A930A9300E785
:103CB00018E00E94F3482296980100EC0E94D20777
:103CC00004E00E9436280895013309F096C000915F
:103CD0009A9A002309F048C00091929A1091939A01
:103CE000012B31F42AEA31E100EC0E94D20739C0FD
:103CF0000091929A1091939A013020E0120731F4CA
:103D00002BEB31E100EC0E94D2072BC00091929A7C
:103D10001091939A023020E0120731F42CEC31E13B
:103D200000EC0E94D2071DC00091929A1091939AC4
:103D3000033020E0120731F42DED31E100EC0E9458
:103D4000D2070FC00091929A1091939A1A930A93F6
:103D500000E718E00E94F3482296980100EC0E94C8
:103D6000D2070E94CC0708950091949A1091959AD9
:103D7000012B31F42AEA31E100EC0E94D20739C06C
:103D80000091949A1091959A013020E0120731F435
:103D90002BEB31E100EC0E94D2072BC00091949AEA
:103DA0001091959A023020E0120731F42CEC31E1A9
:103DB00000EC0E94D2071DC00091949A1091959A30
:103DC000033020E0120731F42DED31E100EC0E94C8
:103DD000D2070FC00091949A1091959A1A930A9362
:103DE00000E718E00E94F3482296980100EC0E9438
:103DF000D20704E00E9436280895023309F05DC01E
:103E000000919A9A002361F50091929A1091939AE9
:103E1000012B31F42EEE31E100EC0E94D2071DC0DF
:103E20000091929A1091939A013020E0120731F498
:103E30002FEF31E100EC0E94D2070FC00091929A5F
:103E40001091939A1A930A9300E718E00E94F3489E
:103E50002296980100EC0E94D2070E94CC07089598
:103E60000091949A1091959A012B31F42EEE31E144
:103E700000EC0E94D2071DC00091949A1091959A6F
:103E8000013020E0120731F42FEF31E100EC0E9405
:103E9000D2070FC00091949A1091959A1A930A93A1
:103EA00000E718E00E94F3482296980100EC0E9477
:103EB000D20704E00E9436280895033349F50091A3
:103EC0009A9A002391F40091929A1091939A1A93DE
:103ED0000A9300E112E10E94F3482296980100EC57
:103EE0000E94D2070E94CC0708950091949A1091E5
:103EF000959A1A930A9300E112E10E94F3482296E0
:103F0000980100EC0E94D20701E00E943628089533
:103F1000043349F500919A9A002391F40091929A02
:103F20001091939A1A930A9301E212E10E94F348C6
:103F30002296980100EC0E94D2070E94CC070895B7
:103F40000091949A1091959A1A930A9302E312E1C0
:103F50000E94F3482296980100EC0E94D20701E0EB
:103F60000E9436280895053349F500919A9A002356
:103F700091F40091929A1091939A1A930A9302E401
:103F800012E10E94F3482296980100EC0E94D207A9
:103F90000E94CC0708950091949A1091959A1A93D3
:103FA0000A9302E412E10E94F3482296980100EC81
:103FB0000E94D20701E00E9436280895063349F591
:103FC00000919A9A002391F40091929A1091939AF9
:103FD0001A930A9303E512E10E94F348229698018E
:103FE00000EC0E94D2070E94CC0708950091949A99
:103FF0001091959A1A930A9303E512E10E94F348EF
:104000002296980100EC0E94D20701E00E94362817
:104010000895073349F500919A9A002391F400918D
:10402000929A1091939A1A930A9304E612E10E94CD
:10403000F3482296980100EC0E94D2070E94CC0718
:1040400008950091949A1091959A1A930A9304E610
:1040500012E10E94F3482296980100EC0E94D207D8
:1040600001E00E9436280895083309F044C0009109
:104070009A9A002301F54AE050E00091929A10913B
:10408000939A0E94C4065A934A934AE050E00091E2
:10409000929A1091939A0E94DC061A930A9305E76C
:1040A00012E10E94F3482496980100EC0E94D20786
:1040B0000E94CC0708954AE050E00091949A109134
:1040C000959A0E94C4065A934A934AE050E00091A0
:1040D000949A1091959A0E94DC061A930A9305E728
:1040E00012E10E94F3482496980100EC0E94D20746
:1040F00006E0BCD70895093341F500919A9A002350
:1041000091F40091929A1091939A1A930A930BE862
:1041100012E10E94F3482296980100EC0E94D20717
:104120000E94CC0708950091949A1091959A1A9341
:104130000A930BE812E10E94F3482296980100ECE2
:104140000E94D20701E092D708950A3341F5009109
:104150009A9A002391F40091929A1091939A1A934B
:104160000A930CE912E10E94F3482296980100ECB0
:104170000E94D2070E94CC0708950091949A109152
:10418000959A1A930A930CE912E10E94F348229639
:10419000980100EC0E94D20701E068D708950B3324
:1041A00041F500919A9A002391F40091929A10910E
:1041B000939A1A930A930DEA12E10E94F348229609
:1041C000980100EC0E94D2070E94CC07089500914C
:1041D000949A1091959A1A930A930DEA12E10E940B
:1041E000F3482296980100EC0E94D20701E03ED7E6
:1041F00008950C3341F500919A9A002391F40091AF
:10420000929A1091939A1A930A930EEB12E10E94DC
:10421000F3482296980100EC0E94D2070E94CC0736
:1042200008950091949A1091959A1A930A930EEB1F
:1042300012E10E94F3482296980100EC0E94D207F6
:1042400001E014D708950D3341F500919A9A0023A7
:1042500091F40091929A1091939A1A930A930FEC09
:1042600012E10E94F3482296980100EC0E94D207C6
:104270000E94CC0708950091949A1091959A1A93F0
:104280000A930FEC12E10E94F3482296980100EC89
:104290000E94D20701E0EAD608950E3309F044C027
:1042A00000919A9A002301F54AE050E00091929A19
:1042B0001091939A0E94C4065A934A934AE050E0A0
:1042C0000091929A1091939A0E94DC061A930A9395
:1042D00000EE12E10E94F3482496980100EC0E943F
:1042E000D2070E94CC0708954AE050E00091949ACA
:1042F0001091959A0E94C4065A934A934AE050E05E
:104300000091949A1091959A0E94DC061A930A9350
:1043100000EE12E10E94F3482496980100EC0E94FE
:10432000D20706E0A3D608950F3309F044C00091E8
:104330009A9A002301F54AE050E00091929A109178
:10434000939A0E94C4065A934A934AE050E000911F
:10435000929A1091939A0E94DC061A930A9306EFA0
:1043600012E10E94F3482496980100EC0E94D207C3
:104370000E94CC0708954AE050E00091949A109171
:10438000959A0E94C4065A934A934AE050E00091DD
:10439000949A1091959A0E94DC061A930A9306EF5C
:1043A00012E10E94F3482496980100EC0E94D20783
:1043B00006E05CD60895003409F043C000919A9A53
:1043C000002301F548EE53E00091929A1091939AE0
:1043D0000E94DC065A934A9348EE53E00091929A69
:1043E0001091939A0E94DC061A930A930BE013E152
:1043F0000E94F3482496980100EC0E94D2070E9484
:10440000CC07089548EE53E00091949A1091959A44
:104410000E94DC065A934A9348EE53E00091949A26
:104420001091959A0E94DC061A930A930BE013E10F
:104430000E94F3482496980100EC0E94D20707E0FE
:1044400015D608959A938A932597C9010093969A51
:104450001093979A413009F026C12091A39B2630F2
:1044600089F49C010E94B2508093929A9093939AFF
:1044700000E000939A9A00E00093008001E000932E
:10448000919AECC50091A39B053051F400E0009394
:104490009A9A00E00093008001E00093919ADEC5B3
:1044A0000091A39B013009F06EC04AE050E08C01FE
:1044B0000E94C40648834AE050E08C010E94C40672
:1044C0004AE050E00E94C406498344E650E08C0173
:1044D0000E94C4064AE050E00E94C4064A8348EEA7
:1044E00053E08C010E94C4064AE050E00E94C406DA
:1044F0004B8340E157E28C010E94C4060C83FE010D
:104500000091008010E0E00FF11F319700810395CA
:104510000083FE010091008010E0E00FF11F319751
:1045200000810A3048F020E0FE010091008010E098
:10453000E00FF11F319720834C8150E000E117E23A
:104540000E94BC06C8014B8150E008EE13E00E94B7
:10455000BC06800F911F4A8150E004E610E00E94E3
:10456000BC06800F911F498150E00AE010E00E94D4
:10457000BC06800F911F088110E0800F911F01E0A1
:104580000093919A6BC50091A39B023009F06FC014
:104590004AE050E08C010E94C40648834AE050E0A3
:1045A0008C010E94C4064AE050E00E94C406498380
:1045B00044E650E08C010E94C4064AE050E00E94AC
:1045C000C4064A8348EE53E08C010E94C4064AE0C8
:1045D00050E00E94C4064B8340E157E28C010E94E8
:1045E000C4060C83FE010091008010E0E00FF11F73
:1045F00031970081013050F429E0FE0100910080E4
:1046000010E0E00FF11F319720830AC0FE010091F6
:10461000008010E0E00FF11F319700810A950083C0
:104620004C8150E000E117E20E94BC06C8014B81BA
:1046300050E008EE13E00E94BC06800F911F4A81F3
:1046400050E004E610E00E94BC06800F911F4981F3
:1046500050E00AE010E00E94BC06800F911F088124
:1046600010E0800F911F01E00093919AF7C4009130
:10467000A39B033051F400910080013099F0009128
:1046800000800A9500930080E9C40091A39B043048
:1046900049F400910080043028F4009100800395D3
:1046A00000930080DBC4423009F041C02091A39BFD
:1046B000263089F49C010E94B2508093929A909384
:1046C000939A00E000939A9A00E00093008001E042
:1046D0000093919AC3C40091A39B053051F400E06C
:1046E00000939A9A00E00093008001E00093919A71
:1046F000B5C40091A39B013059F40196863000E0C7
:10470000900710F085E090E001E00093919AA6C434
:104710000091A39B023051F4082F092B11F001974F
:1047200002C080E090E001E00093919A97C443308A
:1047300009F041C02091A39B263089F49C010E947E
:10474000B2508093929A9093939A00E000939A9A31
:1047500000E00093008001E00093919A7FC40091F3
:10476000A39B053051F400E000939A9A00E0009377
:10477000008001E00093919A71C40091A39B0130E5
:1047800059F401968E3100E0900710F08DE190E031
:1047900001E00093919A62C40091A39B023051F40E
:1047A000082F092B11F0019702C080E090E001E092
:1047B0000093919A53C4443009F05DC22091008067
:1047C000213009F04EC02091A39B253051F400E028
:1047D00000939A9A00E00093008001E00093919A80
:1047E0003DC42091A39B213049F48E3F0FE79007F1
:1047F000BCF5019601E00093919A30C42091A39BEF
:10480000223049F4803000E8900751F1019701E02F
:104810000093919A23C42091A39B243069F40091C2
:104820000080043028F400910080039500930080FC
:1048300001E00093919A12C42091A39B263081F449
:104840009C010E94B2508093929A9093939A00E0B8
:1048500000939A9A00E00093008001E00093919AFF
:10486000FDC320910080223009F081C02091A39BDC
:10487000253051F400E000939A9A00E00093008004
:1048800001E00093919AEAC32091A39B2130C9F4DF
:10489000853F0FE7900724F40A9601E00093919A70
:1048A000873F0FEF900734F0992322F401E0009343
:1048B0000080D4C3082F092B19F401E00093008075
:1048C000CDC32091A39B2230D9F48A3000E8900711
:1048D00024F00A9701E00093919A8A3000E0900753
:1048E00044F4813000E0900724F001E00093008060
:1048F000B5C3082F092BD1F501E000930080AEC3AA
:104900002091A39B233069F400910080013029F0AD
:10491000009100800A950093008001E00093919A35
:104920009DC32091A39B243069F400910080043042
:1049300028F40091008003950093008001E000932B
:10494000919A8CC32091A39B263081F49C010E94F4
:10495000B2508093929A9093939A00E000939A9A1F
:1049600000E00093008001E00093919A77C32091CA
:104970000080233009F083C02091A39B253051F49F
:1049800000E000939A9A00E00093008001E0009319
:10499000919A64C32091A39B2130D1F48B390FE706
:1049A00090072CF48C599F4F01E00093919A8D3918
:1049B0000FEF900734F0992322F402E00093008077
:1049C0004DC3082F092B19F401E00093008046C362
:1049D0002091A39B2230E1F4843600E890072CF06C
:1049E0008456904001E00093919A843600E090074D
:1049F00044F4813000E0900724F002E0009300804E
:104A00002DC3082F092BD1F501E00093008026C3A8
:104A10002091A39B233069F400910080013029F09C
:104A2000009100800A950093008001E00093919A24
:104A300015C32091A39B243069F4009100800430B9
:104A400028F40091008003950093008001E000931A
:104A5000919A04C32091A39B263081F49C010E946B
:104A6000B2508093929A9093939A00E000939A9A0E
:104A700000E00093008001E00093919AEFC2209142
:104A80000080243009F083C02091A39B253051F48D
:104A900000E000939A9A00E00093008001E0009308
:104AA000919ADCC22091A39B2130D1F487310CE78D
:104AB00090072CF488519C4F01E00093919A893122
:104AC0000CEF900734F0992322F403E00093008068
:104AD000C5C2082F092B19F401E000930080BEC263
:104AE0002091A39B2230E1F4883E03E890072CF04C
:104AF000885E934001E00093919A883E03E090071E
:104B000044F4813000E0900724F003E0009300803B
:104B1000A5C2082F092BD1F501E0009300809EC2A9
:104B20002091A39B233069F400910080013029F08B
:104B3000009100800A950093008001E00093919A13
:104B40008DC22091A39B243069F400910080043031
:104B500028F40091008003950093008001E0009309
:104B6000919A7CC22091A39B263081F49C010E94E3
:104B7000B2508093929A9093939A00E000939A9AFD
:104B800000E00093008001E00093919A67C22091B9
:104B90000080253009F062C22091A39B253051F49A
:104BA00000E000939A9A00E00093008001E00093F7
:104BB000919A54C22091A39B2130D1F48F3E08E5F5
:104BC00090072CF4805F984D01E00093919A813F0B
:104BD00008ED900734F0992322F404E0009300805C
:104BE0003DC2082F092B19F401E00093008036C262
:104BF0002091A39B2230E1F4803107EA90072CF04A
:104C00008051974201E00093919A803107E290072A
:104C100044F4813000E0900724F004E00093008029
:104C20001DC2082F092B31F501E00093008016C248
:104C30002091A39B233051F4009100800130D1F0EA
:104C4000009100800A950093008008C22091A39BE8
:104C5000263081F49C010E94B2508093929A9093E6
:104C6000939A00E000939A9A00E00093008001E09C
:104C70000093919AF3C1453009F07BC02091A39B2A
:104C8000263089F49C010E94B2508093929A9093AE
:104C9000939A00E000939A9A00E00093008001E06C
:104CA0000093919ADBC10091A39B053051F400E081
:104CB00000939A9A00E00093008001E00093919A9B
:104CC000CDC10091A39B013041F5082F092B19F4A8
:104CD00081E090E01EC0813000E0900719F486E08A
:104CE00090E017C0863000E0900719F48AE090E069
:104CF00010C08A3000E0900719F48BE090E009C002
:104D00008B3000E0900719F480E090E002C080E072
:104D100090E001E00093919AA1C10091A39B023021
:104D200039F5082F092B19F48BE090E01EC0813073
:104D300000E0900719F480E090E017C0863000E0B2
:104D4000900719F481E090E010C08A3000E09007ED
:104D500019F486E090E009C08B3000E0900719F468
:104D60008AE090E002C080E090E001E00093919A38
:104D700075C1463009F089C02091A39B263089F483
:104D80009C010E94B2508093929A9093939A00E073
:104D900000939A9A00E00093008001E00093919ABA
:104DA0005DC10091A39B053051F400E000939A9AF5
:104DB00000E00093008001E00093919A4FC10091C0
:104DC000A39B013079F5082F092B19F481E090E0BD
:104DD00025C0813000E0900719F482E090E01EC009
:104DE000823000E0900719F483E090E017C0833030
:104DF00000E0900719F485E090E010C0853000E0F5
:104E0000900719F486E090E009C0863000E0900732
:104E100019F480E090E002C080E090E001E00093AF
:104E2000919A1CC10091A39B023071F5082F092BA8
:104E300019F486E090E025C0813000E0900719F475
:104E400080E090E01EC0823000E0900719F481E01D
:104E500090E017C0833000E0900719F482E090E002
:104E600010C0853000E0900719F483E090E009C09D
:104E7000863000E0900719F485E090E002C080E001
:104E800090E001E00093919AE9C0473009F04BC0EF
:104E90002091A39B263089F49C010E94B2508093FC
:104EA000929A9093939A00E000939A9A00E000936C
:104EB000008001E00093919AD1C00091A39B05303E
:104EC00051F400E000939A9A00E00093008001E022
:104ED0000093919AC3C00091A39B013081F4082FE5
:104EE000092B19F481E090E006C0813000E09007C2
:104EF00011F480E090E001E00093919AAFC000913E
:104F0000A39B023079F4082F092B19F481E090E07B
:104F100006C0813000E0900711F480E090E001E0ED
:104F20000093919A9BC0483009F098C02091A39BB0
:104F3000263089F49C010E94B2508093929A9093FB
:104F4000939A00E000939A9A00E00093008001E0B9
:104F50000093919A83C00091A39B053051F400E027
:104F600000939A9A00E00093008001E00093919AE8
:104F700075C00091A39B0130B9F5823000E0900725
:104F800019F483E090E02CC0833000E0900719F41E
:104F900085E090E025C0853000E0900719F486E0B8
:104FA00090E01EC0863000E0900719F488E090E0A1
:104FB00017C0883000E0900719F489E090E010C035
:104FC000893000E0900719F48AE090E009C08A3047
:104FD00000E0900719F482E090E002C082E090E0E7
:104FE00001E00093919A3AC00091A39B0230B1F581
:104FF000823000E0900719F48AE090E02CC0833002
:1050000000E0900719F482E090E025C0853000E0D0
:10501000900719F483E090E01EC0863000E090070E
:1050200019F485E090E017C0883000E0900719F48B
:1050300086E090E010C0893000E0900719F488E025
:1050400090E009C08A3000E0900719F489E090E010
:1050500002C082E090E001E00093919A8093949ADC
:105060009093959A2596899199910895002321F519
:105070000091999A002329F419E000EC0E94C707D7
:1050800008950091999A013029F41AE000EC0E94E9
:10509000C70708950091999A023029F41BE000ECAB
:1050A0000E94C70708950091999A033021F41CE0EB
:1050B00000EC0E94C7070895013041F41BE0009105
:1050C0000080101B00EC0E94C70708950230D9F43D
:1050D00000910080043018F003E0009300800091FC
:1050E0000080033040F41BE000910080101B00ECB6
:1050F0000E94C70708951AE000910080101B00EC81
:105100000E94C70708950330D9F40091008003304E
:1051100018F002E00093008000910080023040F41B
:105120001BE000910080101B00EC0E94C70708954F
:105130001AE000910080101B00EC0E94C707089540
:10514000043029F411E000EC0E94C70708950530EF
:10515000D9F400910080043018F003E0009300803F
:1051600000910080023040F41BE000910080101B91
:1051700000EC0E94C70708951AE000910080101B00
:1051800000EC0E94C70708950630D9F40091008012
:10519000053018F004E00093008000910080023098
:1051A00040F41BE000910080101B00EC0E94C70738
:1051B00008951AE000910080101B00EC0E94C707C0
:1051C00008950730D9F400910080053018F004E00C
:1051D0000093008000910080043040F41AE00091B8
:1051E0000080101B00EC0E94C707089519E0009191
:1051F0000080101B00EC0E94C70708950830D1F40E
:1052000000910080063018F005E0009300800091C6
:105210000080053040F41AE000910080101B00EC83
:105220000E94C707089519E000910080101B00EC50
:105230000E94C70708951091989A101778F001E01E
:1052400000939A9A01E0009300800091929A109145
:10525000939A0093949A1093959A0895002331F4A9
:1052600020E233E100EC0E94D20727C0013031F484
:1052700021E333E100EC0E94D2071FC0023031F479
:1052800022E433E100EC0E94D20717C0033031F46E
:1052900023E533E100EC0E94D2070FC0043031F463
:1052A00024E633E100EC0E94D20707C0053029F460
:1052B00025E733E100EC0E94D20700E00093919AC9
:1052C00008950091A39B023049F409E81AE220E016
:1052D000ECE9FBE90083118322832EC00091A39B9C
:1052E000013049F401EB19E220E0ECE9FBE900832D
:1052F0001183228321C00091A39B063089F40CEF17
:1053000018E00E94BA500093929A1093939A01ED7C
:105310001AE220E0ECE9FBE90083118322830CC050
:105320000091A39B0E3F41F402EC18E420E0ECE96D
:10533000FBE90083118322830091919A002381F07D
:1053400004EE10E00E94DD48980100E80E94D207B8
:1053500005EF10E00E94DD48980100EC0E94D207A2
:1053600008950091A39B023049F401E619E220E080
:10537000ECE9FBE900831183228326C00091A39B03
:10538000013049F409EF19E220E0ECE9FBE9008380
:105390001183228319C00091A39B063049F40CEAC3
:1053A0001BE220E0ECE9FBE90083118322830CC0BF
:1053B0000091A39B0E3F41F402EC18E420E0ECE9DD
:1053C000FBE90083118322830091919A002381F0ED
:1053D00004EE10E00E94DD48980100E80E94D20728
:1053E00006E011E00E94DD48980100EC0E94D2071F
:1053F00008950091A39B023049F401EB19E220E0EB
:10540000ECE9FBE900831183228326C00091A39B72
:10541000013049F401E41AE220E0ECE9FBE9008301
:105420001183228319C00091A39B063049F405EC37
:1054300013E320E0ECE9FBE90083118322830CC035
:105440000091A39B0E3F41F402EC18E420E0ECE94C
:10545000FBE90083118322830091919A002381F05C
:1054600004EE10E00E94DD48980100E80E94D20797
:1054700007E111E00E94DD48980100EC0E94D2078C
:1054800008950091A39B023049F409EF19E220E04E
:10549000ECE9FBE900831183228326C00091A39BE2
:1054A000013049F409E81AE220E0ECE9FBE9008365
:1054B0001183228319C00091A39B063049F409E9A6
:1054C00015E420E0ECE9FBE90083118322830CC0A2
:1054D0000091A39B0E3F41F402EC18E420E0ECE9BC
:1054E000FBE90083118322830091919A002381F0CC
:1054F00004EE10E00E94DD48980100E80E94D20707
:1055000009E311E00E94DD48980100EC0E94D207F7
:1055100008950091A39B023049F401E41AE220E0CF
:10552000ECE9FBE900831183228326C00091A39B51
:10553000013049F401E619E220E0ECE9FBE90083DF
:105540001183228319C00091A39B063049F409E01E
:1055500018E420E0ECE9FBE90083118322830CC00E
:105560000091A39B0E3F41F402EC18E420E0ECE92B
:10557000FBE90083118322830091919A002381F03B
:1055800004EE10E00E94DD48980100E80E94D20776
:105590000BE511E00E94DD48980100EC0E94D20763
:1055A00008950091A39B053049F401E619E220E03B
:1055B000ECE9FBE90083118322834CC00091A39B9B
:1055C000023089F401E019E00E94BA500093929AE7
:1055D0001093939A00E51BE220E0ECE9FBE90083DD
:1055E0001183228337C00091A39B013089F40DEF12
:1055F00018E00E94BA500093929A1093939A00E593
:105600001BE220E0ECE9FBE900831183228322C046
:105610000091A39B0630F1F40CEF18E00E94BA5001
:105620000093929A1093939A0091929A1091939A60
:10563000012B39F421E030E00CEF18E00E94B25069
:1056400006C020E030E00CEF18E00E94B25001E00C
:105650000093919A0091919A002309F10CE611E0D0
:105660000E94DD48980100E80E94D2070CEF18E084
:105670000E94BA500093929A1093939A0091929A32
:105680001091939A012B31F026E833E100EC0E944F
:10569000D207089528E933E100EC0E94D20708956B
:1056A00000919A9A0023D1F50091A39B053049F40B
:1056B00001E619E220E0ECE9FBE900831183228393
:1056C00036C00091A39B023049F401ED1AE220E0BC
:1056D000ECE9FBE900831183228329C00091A39B9D
:1056E000013049F401ED1AE220E0ECE9FBE9008326
:1056F000118322831CC00091A39B0630C1F401E0FA
:1057000000939A9A01E0009300800091929A109180
:10571000939A0093949A1093959A09C044E020912B
:10572000949A3091959A0DEF18E00E9422220091F0
:10573000919A002381F00DEF18E00E94BA50009377
:10574000929A1093939A29EA33E100E80E94D207D3
:105750000DE30E940E0808950091A39B053049F4C3
:1057600001EB19E220E0ECE9FBE9008311832283DD
:1057700026C00091A39B063049F404E81CE220E017
:10578000ECE9FBE900831183228319C00091A39BFC
:10579000023049F40CE31CE220E0ECE9FBE9008371
:1057A000118322830CC00091A39B013041F404EFCC
:1057B0001BE220E0ECE9FBE90083118322830091E6
:1057C000919A002381F006E011E00E94DD489801E3
:1057D00000E80E94D20702ED11E00E94DD48980126
:1057E00000EC0E94D20708950091A39B053049F474
:1057F00001EB19E220E0ECE9FBE90083118322834D
:1058000026C00091A39B063049F402E810E320E093
:10581000ECE9FBE900831183228319C00091A39B6B
:10582000023049F40CEA1BE220E0ECE9FBE90083DA
:10583000118322830CC00091A39B013041F40CE33F
:105840001CE220E0ECE9FBE9008311832283009154
:10585000919A002381F006E011E00E94DD48980152
:1058600000E80E94D20703EE11E00E94DD48980193
:1058700000EC0E94D20708950091A39B053049F4E3
:1058800001EB19E220E0ECE9FBE9008311832283BC
:1058900026C00091A39B063049F40FE811E320E0F5
:1058A000ECE9FBE900831183228319C00091A39BDB
:1058B000023049F404EF1BE220E0ECE9FBE900834D
:1058C000118322830CC00091A39B013041F40CEAA8
:1058D0001BE220E0ECE9FBE90083118322830091C5
:1058E000919A002381F006E011E00E94DD489801C2
:1058F00000E80E94D20704EF11E00E94DD48980101
:1059000000EC0E94D20708950091A39B053049F452
:105910000CEA1BE220E0ECE9FBE90083118322831F
:1059200019C00091A39B023049F409E310E320E081
:10593000ECE9FBE90083118322830CC00091A39B57
:10594000013041F40DEC1CE220E0ECE9FBE90083BE
:10595000118322830091AB9B002339F006E019E00C
:105960000E94B75301E00093919A0091919A00230D
:1059700099F006E019E00E94BA500093929A1093B1
:10598000939A05E012E00E94DD48980100E80E9429
:10599000D20706E20E940E0808950091A39B0530ED
:1059A00049F40CEA1BE220E0ECE9FBE900831183F7
:1059B000228319C00091A39B023049F404E81CE241
:1059C00020E0ECE9FBE90083118322830CC0009105
:1059D000A39B013041F406E11DE220E0ECE9FBE984
:1059E0000083118322830091AB9B002339F007E0F1
:1059F00019E00E94B75301E00093919A0091919AA7
:105A0000002399F007E019E00E94BA500093929A9F
:105A10001093939A06E112E00E94DD48980100E895
:105A20000E94D2070CE30E940E0808950091A39BE8
:105A3000053049F40CEA1BE220E0ECE9FBE90083C5
:105A40001183228319C00091A39B023049F40DEC0D
:105A50001CE220E0ECE9FBE90083118322830CC007
:105A60000091A39B013041F40FE51DE220E0ECE939
:105A7000FBE90083118322830091AB9B002339F063
:105A800008E019E00E94B75301E00093919A009159
:105A9000919A002399F008E019E00E94BA5000930F
:105AA000929A1093939A07E212E00E94DD489801BF
:105AB00000E80E94D20706E20E940E0808950091B5
:105AC000A39B053049F40CEA1BE220E0ECE9FBE97A
:105AD00000831183228319C00091A39B023049F4F3
